:020000040800F2
:1000000048040020B5160008911400089314000855
:1000100095140008971400089914000800000000C7
:100020000000000000000000000000009D14000817
:100030009B140008000000009F140008A114000891
:10004000BB140008BD140008BF140008C114000848
:10005000C9140008CB140008CD140008DB140008F4
:10006000DD140008DF140008E1140008E3140008A0
:10007000E5140008E7140008E9140008EB14000870
:10008000ED140008EF140008F1140008F314000840
:10009000F5140008F7140008F9140008FB14000810
:1000A000FD140008FF1400080115000803150008DE
:1000B00005150008251500082D1500082F15000846
:1000C00031150008331500083515000837150008EC
:1000D0004B1500084D1500088D1500088F150008F8
:1000E000911500089315000895150008971500084C
:1000F000991500089B1500089D1500089F1500081C
:10010000A1150008A3150008A5150008A7150008EB
:10011000A9150008AB150008AD150008AF150008BB
:10012000B1150008B3150008B5150008B71500088B
:10013000DFF8EC02006850F00100DFF8E41208601C
:10014000DFF8E0020068DFF8E0120840DFF8D412C0
:100150000860DFF8CC020068DFF8D0120840DFF852
:10016000C0120860DFF8B802006830F48020DFF8C1
:10017000B0120860DFF8AC02006830F4FE00DFF86F
:10018000A4120860DFF8A802002101607047DFF8C0
:100190009012096831F48031DFF884221160DFF8B1
:1001A0008012096831F48021DFF874221160B0F503
:1001B000803F03D0B0F5802F09D011E0DFF8600256
:1001C000006850F48030DFF85812086008E0DFF86B
:1001D0005002006850F4A020DFF844120860FFE7E6
:1001E000704780B50020009000200021312000F0F1
:1001F000F5F801000098401C0090C9B2002903D115
:100200000098B0F5A06FF1D1312000F0E7F8002898
:1002100001D0012000E00020C0B202BD0022814BCD
:100220001B681A0032F47C12084302437D480260C6
:1002300070478049C0B2086070470021794A12684F
:1002400011008908890001437648016070477548AC
:10025000006810F00C0070470021724A126811000B
:1002600031F0F00101436F480160704700216D4A91
:100270001268110031F4E06101436A48016070477F
:100280000021684A1268110031F4605151EAC0013E
:10029000644801607047684900220A70664900227C
:1002A0000A70C0B2012802D0042804D007E06248D6
:1002B0000121017003E0604805210170FFE77047EC
:1002C0005D49096808435C49086070475B49C0B2F2
:1002D0000860704730B40022002100230024514DF3
:1002E0002D6815F00C052A00002A04D0042A05D038
:1002F000082A06D021E05249016020E050490160FF
:100300001DE04849096811F47011890C891C454A9F
:10031000126812F48033002B03D14A4A5143016022
:100320000AE0404A1268920303D5464A51430160ED
:1003300002E0434A5143016001E04149016039490B
:10034000096811F0F00212090FF20811545C0168FB
:10035000E14041603349096811F4E062120A0FF28A
:10036000F401545C4168E14081602E49096811F450
:100370006052D20A0FF2DC01545C4168E140C16076
:100380002849096811F44042920B0FF2D801545CDD
:10039000C168B1FBF4F1016130BC7047C9B20029FA
:1003A00005D02949096808432749086005E026491E
:1003B000096831EA0000244908607047C9B2002981
:1003C00005D02249096808432049086005E01F4913
:1003D000096831EA00001D490860704710B4002226
:1003E00000230021C0B24409E4B22200012A02D154
:1003F0000B490B6806E0022A02D10F490B6801E0A5
:1004000013490B68C0B210F01F0201209040034254
:1004100001D0012100E000210800C0B210BC7047EB
:1004200000100240041002400000FFF8FFFFF6FE3B
:100430000810024060004242201002403C04424248
:1004400000127A0000093D00181002401C10024002
:100450002410024000000000010203040102030412
:10046000060708090204060800B587B0102200211B
:10047000664800F0D2F801214FF48050FFF78EFF5C
:1004800001210420FFF78AFFA020ADF8000018200A
:100490008DF8030003208DF8020000A95C4800F0ED
:1004A000D7F84020ADF8000004208DF803000320A9
:1004B0008DF8020000A9564800F0CAF81020ADF8E7
:1004C000000010208DF8030000A9514800F0C0F88A
:1004D0000020ADF804004FF48270ADF80600002053
:1004E000ADF808000020ADF80A000020ADF80C00BF
:1004F0004FF40070ADF80E001020ADF81000002091
:10050000ADF812000720ADF8140001A9414800F031
:1005100035F901213F4800F051F907B000BDF8B5A9
:10052000069E079C089D394F3860384800270771A0
:1005300036484171354882713448836033480673C8
:10054000324844733148857330480121C1732F48C4
:10055000407B012819D110212D4800F0E2F814E069
:100560002C4800F03BF92949896808702748006841
:10057000401C2649086025480079401C2349087121
:1005800022484079401E214948712048407901287D
:100590002FD31E480068017889B21E4800F01CF96C
:1005A00001211C4800F01CF90028F9D0012119484C
:1005B00000F020F915488079002803D00228CFD018
:1005C0000BD3D3E711480079002805D1114800F07A
:1005D00005F90E4989680870C8E70E4800F0FEF872
:1005E0000A498968087009488068401C0749886082
:1005F000BCE70648807B012803D11021044800F0A5
:100600008DF802480021C173F1BD000000000020F8
:100610000008014000300140FEE710B50400100062
:100620000A000100200000F0E9F8200010BD50F899
:10063000041B61B150F8042BD30744BFA9F1010397
:100640009A18002342F8043B091FFAD1EFE77047DC
:10065000F0B400220026002400250023002791F892
:1006600003C01CF00F0C624691F803C05FEACC6C2B
:1006700001D58B781A430B781B0621D00368002420
:1006800006E0CD78482D02D10125A5400561641C06
:10069000082C14D20125A5400E882E40AE42F6D17A
:1006A000A5000F2616FA05F7BB4312FA05F52B43F2
:1006B000CD78282DE5D10125A5404561E7E7036008
:1006C0000B884FF48074A34226D34368002420E0B3
:1006D000012514F10806B5400E882E40AE4217D110
:1006E000A5000F2616FA05F7BB4312FA05F52B43B2
:1006F000CD78282D04D1012514F10806B5404561B7
:10070000CD78482D04D1012514F10806B5400561C6
:10071000641C082CDCD34360F0BC704789B20161D3
:10072000704789B24161704710B400220F2311F065
:100730000304E4B2A400A3401A00C9B28B100E4C0B
:1007400054F8233033EA0202C9B28B100A4C44F841
:100750002320C9B28A10084B53F82220C0B211F0EE
:100760000303DBB29B0098401043C9B28910024AD0
:1007700042F8210010BC70470800014010B400226C
:1007800003881A0012F441520B884C8823438C884A
:100790002343CC8823430C8923434C8923438C89EE
:1007A0002343CC8923431A430280828B4FF2FF7389
:1007B0001A408283098A018210BC7047C9B200299D
:1007C00004D0018851F04001018004E001884FF617
:1007D000BF721140018070478181704780897047E6
:1007E00000220089084201D0012200E0002210000E
:1007F000C0B2704789B2C9430181704762F30F22CA
:1008000062F31F42401810F0030308D0C91A1FD327
:10081000DB0748BF00F8012D28BF20F8022D130088
:1008200030B414461546103928BF20E93C00FAD8E8
:10083000490728BF20E90C0048BF40F8042D890073
:1008400028BF20F8022D48BF00F8012D30BC7047AA
:10085000C91818BF00F8012DCB0728BF00F8012DDB
:1008600070470000002000E0401CDFF8841188423F
:10087000FAD3704710B500240C220021DFF8740170
:10088000FFF7CBFEDFF86C0100210172200080B27F
:1008900000F02EF9641C0321022000F038F820003B
:1008A00080B200F025F9641C0C210E2000F02FF816
:1008B000200080B200F01CF9641C0F2000F048F802
:1008C000200080B200F014F9641C05210D2000F016
:1008D0001EF8200080B200F00BF9641C24210420D3
:1008E00000F015F8200080B200F002F9641C01202D
:1008F00000F02EF810F01F000828F8D1200080B278
:1009000000F0F6F8641C3B480121017210BD00B5EF
:1009100085B050F0C0008DF80E008DF80F1001204A
:100920000290012001900220009003AB01220221DD
:100930000DF10E00FFF7F3FD9DF80C0080B200F002
:10094000D7F89DF80D0080B200F0D2F805B000BDD8
:1009500000B585B050F080008DF80C0000208DF8B7
:100960000D000120029001200190022000900DF165
:100970000E030122022103A8FFF7D1FD9DF80F000D
:1009800005B000BD10B500F053F904000F20FFF7CB
:10099000DFFF410713D517480B2101721548006886
:1009A000002806D0200080B212490968884701203B
:1009B0001CE0222000F09CF8FFF754FFFEE7000740
:1009C00013D50C480C2101720A484068002806D053
:1009D000200080B2074949688847012006E044208A
:1009E00000F086F8FFF73EFFFEE7002010BD000094
:1009F000F8FF0F001000002000B587B0082200218A
:100A00004B48FFF70AFE01214FF48040FFF7C6FC78
:100A10004FF4164002900020ADF80C000020ADF815
:100A20000E000020ADF810000020ADF814000C20DE
:100A3000ADF8120002A93F4800F028F900F03AF89A
:100A400001213C4800F070F901210420FFF7A6FCC9
:100A50004FF40070ADF8000002208DF8020018205D
:100A60008DF8030000A93448FFF7F2FD4FF48060D1
:100A7000ADF8000002208DF8020004208DF803007C
:100A800000A92D48FFF7E4FD25208DF80400032080
:100A90008DF8050003208DF8060001208DF8070071
:100AA00001A800F08DF907B000BD214A1060204870
:100AB0004160704780B5012240F226611D4800F078
:100AC00041F9012240F225511A4800F03BF940213A
:100AD000184800F070F901BD80B52021154800F0DC
:100AE0006AF901BD80B54021124800F064F901BDEA
:100AF00080B5010089B20F4800F04BF980210D4804
:100B000000F04FF90028F9D001BD80B5094800F088
:100B100044F980B202BD80B50548006880470020D6
:100B200002BD80B5024840688047002002BD000039
:100B30003C000020003801400008014080B5082238
:100B400000215148FFF769FD01BD4F49086070471A
:100B50004D494860704710B582B0040001215FF034
:100B6000C050FFF72BFC012000F088F90120FFF7AF
:100B700092FB4120FFF732FC0028FAD04FF480703E
:100B8000FFF79EFB0120FFF7A1FB00F0D2F900F078
:100B9000CBF9042000F0E5F90121042000F074F9FC
:100BA00000F0C2F900F0C0F9002000F0A3F900F055
:100BB000BBF95FF0FF30001B00F090F903208DF8C7
:100BC000000000208DF8010000208DF802000120B7
:100BD0008DF8030000A800F0F3F813BD10B5040071
:100BE00000F0A2F95FF0FF30001B00F077F910BDB4
:100BF00010B5040000F098F97FF40040001900F0EF
:100C000087F900F091F9022000F0ABF901210220F0
:100C100000F03AF910BD80B500F086F9002000F030
:100C200077F900F081F90021022000F02DF901BDD3
:100C300080B500F048F902BD80B5022000F085F9CA
:100C400000280BD0022000F08CF90F4840680028E3
:100C500016D00D4840688047012012E0042000F0C3
:100C600074F900280BD0042000F07BF906480068D6
:100C7000002805D0044800688047012001E0FEE715
:100C8000002002BD00000000340000202DE9F043E8
:100C900085B004000D000020002600275FF000084A
:100CA0005FF00009A146218A08004CF6FF71084058
:100CB000E98808432082A0894EF6F3110840A988EC
:100CC0002A8911436A8911430843A081A08A4FF6FB
:100CD000FF410840A9890843A08200A8FFF7FAFA5B
:100CE0001048814501D1039E00E0029E192000FBBF
:100CF00006F029688900B0FBF1F76420B7FBF0F03B
:100D000000010109642202FB11785FEA0811323107
:100D10006422B1FBF2F111F00F010843208105B00C
:100D2000BDE8F08300380140C9B2002904D08189B0
:100D300051F40051818104E081894DF6FF72114028
:100D40008181704770B40024002500260023030031
:100D50000800C0B24009C0B2040089B211F01F00FF
:100D600005000120A8400600012C01D10C3304E04D
:100D7000022C01D1103300E01433D2B2002A03D088
:100D800018683043186002E01868B043186070BCFF
:100D90007047C905C90D818070478088C005C00DA6
:100DA000704700220088084201D0012200E00022A2
:100DB0001000C0B2704789B2C9430180704700007B
:100DC00070B400210022002300240F25C678002ED5
:100DD00035D02749096811F4E061D1F5E061090ACD
:100DE000D1F10404CD404178A14082782A401143DA
:100DF0000901027812F00302D2B2D20091400278C7
:100E00009210194B53F82220FF23047814F00304A6
:100E1000E4B2E400A3409A4319400A4301788910E0
:100E2000114B43F8212001784911124A012300781F
:100E300010F01F0013FA00F042F821000AE00178D8
:100E40004911084A0123007810F01F0013FA00F03E
:100E500042F8210070BC7047074A1140084303491B
:100E60000860704780E100E000E400E008ED00E089
:100E70000CED00E000E100E080FFFF1F0149C0B27F
:100E80000860704720000E42C9B2002905D03849D9
:100E9000098808433649088005E03549098831EA60
:100EA00000003349088070473248008850F0100035
:100EB0003049088070472F4800884FF6EF7108408E
:100EC0002C490880704700202B49098808002B49CD
:100ED000098889B280B250EA0140704710B5040019
:100EE000FFF7E2FF200C2549088023480480FFF724
:100EF000E2FF10BD10B50400FFF7D6FF200C10F084
:100F00000F001F4908801F480480FFF7D4FF10BD61
:100F100010B50400FFF7C8FF200C1B4908801B48D0
:100F20000480FFF7C8FF10BD124800888006FBD57B
:100F30007047104800884FF6F77108400D49088047
:100F40000C4800880007FBD570470021094A128829
:100F500092B2024201D0012100E000210800C0B29B
:100F600070470449098831EA000002490880704747
:100F700000280040042800401C2800401828004099
:100F8000082800400C280040202800402428004069
:100F900080B500F099F802BD00B585B000F053F8B7
:100FA00000F08AF801211020FFF7F8F90220ADF8CF
:100FB000000010208DF8030003208DF8020000A926
:100FC0003B48FFF745FB0420ADF8000010208DF8EA
:100FD000030003208DF8020000A93548FFF738FB15
:100FE00004213348FFF79AFB00210220FFF79CFB06
:100FF0000120029000208DF80C0008208DF80D00D3
:1010000001208DF80E0002A800F0E2F806208DF80D
:10101000040002208DF8050000208DF80600012054
:101020008DF8070001A8FFF7CBFE00F023F9FFF7CA
:10103000E3FCFFF719FA00F04BF9FFF77FFDFFF72C
:1010400019FC05B000BD80B5FFF772F85FF4803081
:10105000FFF79DF8FFF7C5F81649087015480078A6
:10106000012824D1102000F08DF9022000F07EF933
:101070000020FFF7F1F80020FFF702F94FF480603D
:10108000FFF7F4F85FF4E0115FF48030FFF7C6F883
:101090000120FFF7CEF83920FFF7A0F90028FAD099
:1010A0000220FFF7CAF8FFF7D2F80828FBD101BDEC
:1010B000001001404500002080B500215FF0006075
:1010C000FFF7CAFE01BD000080B5FFF765FF0622ED
:1010D00000213248FFF7A1FA082200213048FFF72B
:1010E0009CFA00F0E3F82F492F48FFF7DEFC2F4869
:1010F000FFF72BFD2E48FFF72BFD4FF40040FFF7C5
:101100002AFD26480321017024484FF47A7141805A
:1011100022484088FFF76CFDFEE780B54FF40040A1
:10112000FFF75CFD00F0C8F81C48042101701B4863
:101130004FF47A71418019484088FFF759FD1848EB
:101140000068401C1649086001BD80B500F0A6F893
:101150001248408800F2E830104948800F48007873
:10116000401E0E4908700D48007880B2FFF7C0FCA1
:101170000A484088FFF7BCFC08480078012804D3DF
:1011800006484088FFF734FD01E0FFF744FD0448BE
:101190004068401C0249486001BD00002400002056
:1011A0002C000020BD110008B51100081B1100081B
:1011B0004B11000880B5FFF795FC01BD80B5FFF726
:1011C0008BFCFFF7A2FCC0B280B2FFF791FC01BD1F
:1011D0008179002938D02249096802689143204A60
:1011E000116020490968026891431E4A1160017923
:1011F0001B4A5158026811430279194B99501A49F8
:10120000096802689143184A116018490968026820
:101210009143164A1160417910290CD1124909688D
:1012200002681143104A11601049096800680843B8
:101230000E49086010E04179094A5158026811438B
:101240004079074A115007E00179054A5158026870
:1012500091430079024A1150704705490860704770
:101260000004014004040140080401400C04014052
:101270001404014080B501211020FFF78FF84FF4CE
:10128000E070ADF8000010208DF8030002208DF80A
:10129000020000A90C48FFF7DBF901BD0B4800680C
:1012A0004FF48071484009490860704780B580213B
:1012B0000548FFF733FA01BD0448006890F080004C
:1012C0000249086070470000001001400C10014006
:1012D00000B589B0082200212348FFF79EF90121BB
:1012E0000120FFF76BF84FF6FF70ADF8080041F6EC
:1012F0001F40ADF804000020ADF80A000020ADF852
:10130000060001A95FF0804000F04AF83020ADF8F7
:1013100010000020ADF816000120ADF812000020EA
:10132000ADF8180004A95FF0804000F054F80121E6
:101330005FF0804000F090F81C208DF80000022043
:101340008DF8010001208DF8020001208DF80300C6
:1013500000A8FFF735FD09B000BD80B50248006860
:101360008047012002BD00001C0000200B490968D5
:1013700011F03801094A1160084909680843074912
:10138000086070470549096831F01001034A11608F
:10139000024909680843014908607047002002407B
:1013A00010B4028812F08F0202800288CB884C8829
:1013B00023431A4302808A8882850A880285012293
:1013C0008282234A904202D0224A904201D1097A75
:1013D000018610BC704770B4002300240022058CE5
:1013E0004FF6FE7635400584058C2C0085882A0052
:1013F000058B2B004FF68F752B400D882B434FF636
:10140000FD752C400D892C434D882C43CD88858655
:101410000F4DA84202D00F4DA84213D14FF6F775D9
:101420002C404D892C434FF6FB752C408D882C4366
:1014300047F6FF652A4047F6FF552A408D892A4323
:10144000C9890A4382800383048470BC704700000A
:10145000002C014000340140C9B2002904D00188A9
:1014600051F00101018004E0018840F2FE32114098
:10147000018070470022008A084201D0012200E06A
:1014800000221000C0B2704789B2C9430182704780
:101490007047FEE7FEE7FEE7FEE7704770477047DC
:1014A00037480078401C36490870354800780128D4
:1014B00002D333480021017070477047704770476E
:1014C00080B5FFF7B9FB01BD7047704780B50120BB
:1014D000FFF7C3FEFFF756FA01BD7047704770472C
:1014E0007047704770477047704770477047704744
:1014F0007047704770477047704770477047704734
:101500007047704780B502215FF08040FFF7B2FF5F
:10151000002806D002215FF08040FFF7B5FFFFF7FB
:101520001CFF01BD80B5FFF787FB01BD7047704709
:1015300070477047704780B501211248FFF750F996
:10154000002801D0FFF768F801BD704780B5202161
:101550000D48FFF726FC002805D020210A48FFF798
:101560002AFCFFF7DEFA40210748FFF71AFC0028A3
:1015700005D040210448FFF71EFCFFF7CCFA01BD5F
:10158000440000200030014000380140704770479F
:101590007047704770477047704770477047704793
:1015A0007047704770477047704770477047704783
:1015B000704770477047704730BF704720BF704713
:1015C00040BF7047BFF36F8F7047BFF34F8F7047B7
:1015D000BFF35F8F704701DF7047EFF314807047F0
:1015E00080F31488BFF36F8F7047EFF30980704763
:1015F00080F309887047EFF30880704780F308880C
:10160000704762B6704772B67047EFF3108070474C
:1016100061B6704771B67047EFF31380704780F37F
:1016200011887047EFF31280704740BA704700BAD4
:101630007047000010B5084979441C31074C7C44C0
:101640001A34A14206D0081D0A685118884701467D
:10165000A142F8D110BD00BF080000001400000036
:10166000CFEFFFFF48000000000000200000000056
:1016700000F009F8002801D0FFF7DCFF0020FFF799
:1016800087FC00F002F80120704780B500F002B836
:1016900000BF00000746384600F002F8FBE70000F4
:1016A00080B5C046C046024A11001820ABBEFBE719
:1016B00026000200C046C046C046C046FFF7D8FF1D
:04000005080016B524
:00000001FF
