:1040000031400039B0124440B012A4405E42310049
:104010007EE34E114E114E114E117EF007004E936D
:1040200002205E43013C5E534E5E4E5E4E5E4E5E2F
:104030007F4070004FCEC2DF31007EF07000C2CEF4
:1040400031003041B240805A2001F240E000560079
:10405000F24007005700B0129640F2D04000360000
:10406000B24010006201B240803E7201B2401001C5
:10407000600132D0D8000C4330410D120C120F12E7
:104080000E12F2E040003500B0120C403E413F41BC
:104090003C413D410013F2D070003200F2D070007C
:0E40A000310030413040A8403040AC40FF3F7E
:02FFEC007A4059
:02FFFE000040C1
:00400001BF
:00000001FF
