:020000040800F2
:10000000C804002071180008511600085316000893
:100010005516000857160008591600080000000081
:100020000000000000000000000000005D16000855
:100030005B160008000000005F160008611600084B
:100040007B1600087D1600087F1600088116000840
:100050008316000885160008871600089516000804
:1000600097160008991600089B1600089D160008B0
:100070009F160008A1160008A3160008A516000880
:10008000A7160008A9160008AB160008AD16000850
:10009000AF160008B1160008B3160008B516000820
:1000A000B7160008B9160008BB160008BD160008F0
:1000B000BF160008DF160008E7160008E91600085A
:1000C000EB160008ED160008EF160008F116000800
:1000D0000517000807170008491700084B17000804
:1000E0004D1700084F170008511700085317000854
:1000F0005517000857170008591700085B17000824
:100100005D1700085F1700086117000863170008F3
:100110006517000867170008691700086B170008C3
:100120006D1700086F170008711700087317000893
:10013000002000E0401CDFF894138842FAD3704797
:1001400010B500240C220021DFF8840300F0C4F96C
:10015000DFF87C0300210172200080B200F042FA37
:10016000641C0321022000F0D6F8200080B200F0C9
:1001700039FA641C0C210E2000F0CDF8200080B26A
:1001800000F030FA641C0F2000F0E6F8200080B286
:1001900000F028FA641C05210D2000F0BCF82000B6
:1001A00080B200F01FFA641C2421042000F0B3F890
:1001B000200080B200F016FA641C012000F0CCF898
:1001C00010F01F000828F8D1200080B200F00AFAD1
:1001D000641CBF480121017210BD80B500F02FFAE8
:1001E00001BD80B500F02EFA01BDB9490860704725
:1001F000B7494860704780B5B54902220A7210F1CC
:100200002001C9B2082000F086F8B148032101722C
:1002100001BD704780B5AE480D210172012000F08C
:100220009BF80321022000F076F8012000F094F8FA
:1002300010F01F000828F8D100F076FAA448012138
:10024000017201BD80B5A24A04231372C9B200F045
:100250009DF89F480521017201BD80B59C4806218B
:1002600001720921022000F056F8012000F074F814
:1002700010F01F000928F8D195480721017201BD2F
:1002800080B59348082101720221924800F0BCFA1F
:100290000221904800F0BBFA8D480068002805D084
:1002A00000F0D3F980B28A490968884701BD80B55A
:1002B0008748092101720621022000F02CF800F085
:1002C0002DFA012000F048F810F01F000628F8D1A0
:1002D0007F480A21017201BD2DE9F84304000D0099
:1002E00016001F00DDF82080DDF82490062000F0C5
:1002F00033F8C0B2C00989F80000072000F02CF8DC
:100300005B38387043463200D2B22900200000F03A
:1003100061F8BDE8F18300B585B050F0C0008DF8FC
:100320000E008DF80F100120029001200190022094
:10033000009003AB012202210DF10E0000F0EFFA54
:100340009DF80C0080B200F04DF99DF80D0080B2D0
:1003500000F048F905B000BD00B585B050F0800050
:100360008DF80C0000208DF80D0001200290012076
:100370000190022000900DF10E030122022103A83A
:1003800000F0CDFA9DF80F0005B000BD30B5A5B066
:1003900004000D0060208DF80C008DF80D50002039
:1003A0000290012001908120009004AB01220221E3
:1003B00003A800F0B4FA01200290002001908120EF
:1003C000009004AB01222900C9B2200000F0A7FA76
:1003D00025B030BD70B5A4B004000D001E00202073
:1003E0008DF8100000200290012001900320009061
:1003F00003AB0122022104A800F091FA9DF80D0040
:1004000028702878C01EC0B27D281BD20020029020
:10041000002001907D20009023000122297804A86B
:1004200000F07DFA0120029000200190032000904E
:1004300003AB0122032104A800F071FA9DF80E001D
:1004400030700BE00120029000200190032000900A
:1004500003AB0122012104A800F061FA24B070BDB1
:1004600010B500F0F2F804000F20FFF775FF410708
:1004700013D517480B21017215480068002806D0D3
:10048000200080B212490968884701201CE0222020
:1004900000F0A8F8FFF74CFEFEE7000713D50C4864
:1004A0000C2101720A484068002806D0200080B262
:1004B000074949688847012006E0442000F092F887
:1004C000FFF736FEFEE7002010BD0000F8FF0F002A
:1004D000980000200010014010B5040010000A0030
:1004E0000100200000F0AAFA200010BD00B587B07E
:1004F000082200214B48FFF7EFFF01214FF4804015
:1005000000F0E7FB4FF4164002900020ADF80C001D
:100510000020ADF80E000020ADF810000020ADF86E
:1005200014000C20ADF8120002A93F4800F036FC80
:1005300000F03AF801213C4800F07EFC0121042043
:1005400000F0C7FB4FF40070ADF8000002208DF8FA
:10055000020018208DF8030000A9344800F0EEF8DE
:100560004FF48060ADF8000002208DF802000420F6
:100570008DF8030000A92D4800F0E0F825208DF843
:10058000040003208DF8050003208DF806000120EB
:100590008DF8070001A800F09BFC07B000BD214AC0
:1005A000106020484160704780B5012240F226610A
:1005B0001D4800F04FFC012240F225511A4800F07E
:1005C00049FC4021184800F07EFC01BD80B5202187
:1005D000154800F078FC01BD80B54021124800F0BC
:1005E00072FC01BD80B5010089B20F4800F059FCD2
:1005F00080210D4800F05DFC0028F9D001BD80B5D8
:10060000094800F052FC80B202BD80B50548006880
:100610008047002002BD80B5024840688047002026
:1006200002BD0000BC00002000380140000801406D
:1006300080B5082200211C48FFF74EFF01BD1A4972
:100640000860704718494860704780B5174800F047
:1006500015FD02BD80B50221144800F011FD0028EF
:100660000CD00221114800F015FD0F484068002809
:1006700018D00D4840688047012014E001210B4844
:1006800000F0FEFC00280CD00121084800F002FD1B
:1006900005480068002805D003480068804701200D
:1006A00001E0FEE7002002BDB4000020000400408D
:1006B00080B50121102000F00CFB4FF4E070ADF884
:1006C000000010208DF8030002208DF8020000A920
:1006D000184800F033F801BD80B54FF4807115481B
:1006E00000F092F801BD80B54FF48071114800F020
:1006F0008EF801BD104800684FF4807148400E49E3
:100700000860704780B540210A4800F07DF801BDBF
:1007100080B54021074800F07AF801BD80B58021FE
:10072000044800F071F801BD80B58021014800F057
:100730006EF801BD001001400C100140F0B4002221
:100740000026002400250023002791F803C01CF098
:100750000F0C624691F803C05FEACC6C01D58B7830
:100760001A430B781B0621D00368002406E0CD78DD
:10077000482D02D10125A5400561641C082C14D226
:100780000125A5400E882E40AE42F6D1A5000F26C9
:1007900016FA05F7BB4312FA05F52B43CD78282D41
:1007A000E5D10125A5404561E7E703600B884FF4DB
:1007B0008074A34226D34368002420E0012514F16D
:1007C0000806B5400E882E40AE4217D1A5000F2670
:1007D00016FA05F7BB4312FA05F52B43CD78282D01
:1007E00004D1012514F10806B5404561CD78482DA6
:1007F00004D1012514F10806B5400561641C082CDC
:10080000DCD34360F0BC704789B20161704789B2A4
:100810004161704710B400220F2311F00304E4B2C9
:10082000A400A3401A00C9B28B100E4C54F8233018
:1008300033EA0202C9B28B100A4C44F82320C9B231
:100840008A10084B53F82220C0B211F00303DBB228
:100850009B0098401043C9B28910024A42F8210017
:1008600010BC70470800014000B587B0102200217D
:100870006648FFF731FE01214FF4805000F029FA5D
:100880000121042000F025FAA020ADF80000182076
:100890008DF8030003208DF8020000A95C48FFF7E3
:1008A0004DFF4020ADF8000004208DF80300032028
:1008B0008DF8020000A95648FFF740FF1020ADF860
:1008C000000010208DF8030000A95148FFF736FF03
:1008D0000020ADF804004FF48270ADF8060000204F
:1008E000ADF808000020ADF80A000020ADF80C00BB
:1008F0004FF40070ADF80E001020ADF8100000208D
:10090000ADF812000720ADF8140001A9414800F02D
:10091000C5FB01213F4800F0E1FB07B000BDF8B581
:10092000069E079C089D394F38603848002707719C
:1009300036484171354882713448836033480673C4
:10094000324844733148857330480121C1732F48C0
:10095000407B012819D110212D48FFF758FF14E0E2
:100960002C4800F0CBFB29498968087027480068AB
:10097000401C2649086025480079401C234908711D
:1009800022484079401E2149487120484079012879
:100990002FD31E480068017889B21E4800F0ACFBD6
:1009A00001211C4800F0ACFB0028F9D001211948B6
:1009B00000F0B0FB15488079002803D00228CFD082
:1009C0000BD3D3E711480079002805D1114800F076
:1009D00095FB0E4989680870C8E70E4800F08EFB49
:1009E0000A498968087009488068401C074988607E
:1009F000BCE70648807B012803D110210448FFF79B
:100A000003FF02480021C173F1BD000088000020EF
:100A10000008014000300140FEE750F8041B61B1BE
:100A200050F8042BD30744BFA9F101039A180023FF
:100A300042F8043B091FFAD1EFE7704762F30F2237
:100A400062F31F42401810F0030308D0C91A1FD3E5
:100A5000DB0748BF00F8012D28BF20F8022D130046
:100A600030B414461546103928BF20E93C00FAD8A6
:100A7000490728BF20E90C0048BF40F8042D890031
:100A800028BF20F8022D48BF00F8012D30BC704768
:100A9000C91818BF00F8012DCB0728BF00F8012D99
:100AA00070470000DFF8B002006850F00100DFF886
:100AB000A8120860DFF8A4020068DFF8A41208405A
:100AC000DFF898120860DFF890020068DFF89412EF
:100AD0000840DFF884120860DFF87C02006830F418
:100AE0008020DFF874120860DFF87002006830F4CC
:100AF000FE00DFF868120860DFF86C020021016078
:100B00007047DFF85412096831F48031DFF8482269
:100B10001160DFF84412096831F48021DFF83822CF
:100B20001160B0F5803F03D0B0F5802F09D011E0FF
:100B3000DFF82402006850F48030DFF81C120860EF
:100B400008E0DFF81402006850F4A020DFF8081273
:100B50000860FFE7704780B500200090002000216A
:100B6000312000F0D6F801000098401C0090C9B276
:100B7000002903D10098B0F5A06FF1D1312000F029
:100B8000C8F8002801D0012000E00020C0B202BD5A
:100B90000022724B1B681A0032F47C120843024395
:100BA0006E48026070477149C0B20860704700210A
:100BB0006A4A126811008908890001436748016088
:100BC00070476648006810F00C0070470021634AC7
:100BD0001268110031F0F001014360480160704774
:100BE00000215E4A1268110031F4E06101435B4864
:100BF000016070470021594A1268110031F46051B8
:100C000051EAC00155480160704730B4002200210C
:100C100000230024514D2D6815F00C052A00002AF0
:100C200004D0042A05D0082A06D021E051490160E9
:100C300020E0504901601DE04849096811F4701135
:100C4000890C891C454A126812F48033002B03D1A9
:100C5000494A514301600AE0404A1268920303D5B1
:100C6000454A5143016002E0424A5143016001E0BC
:100C7000404901603949096811F0F00212090FF288
:100C80000811545C0168E14041603449096811F47D
:100C9000E062120A0FF2F001545C4168E1408160A9
:100CA0002E49096811F46052D20A0FF2DC01545C3B
:100CB0004168E140C1602949096811F44042920B42
:100CC0000FF2D401545CC168B1FBF4F1016130BC96
:100CD0007047C9B2002905D0284909680843274947
:100CE000086005E02549096831EA000023490860E9
:100CF0007047C9B2002905D0214909680843204935
:100D0000086005E01E49096831EA00001C490860D6
:100D1000704710B4002200230021C0B24409E4B29D
:100D20002200012A02D10C490B6806E0022A02D1F6
:100D30000F490B6801E013490B68C0B210F01F02A5
:100D400001209040034201D0012100E00021080071
:100D5000C0B210BC704700000010024004100240F6
:100D60000000FFF8FFFFF6FE08100240600042425C
:100D70002010024000127A0000093D0018100240C5
:100D80001C10024024100240000000000102030475
:100D90000102030406070809020406082DE9F043CE
:100DA00085B004000D000020002600275FF0000839
:100DB0005FF00009A146218A08004CF6FF71084047
:100DC000E98808432082A0894EF6F3110840A988DB
:100DD0002A8911436A8911430843A081A08A4FF6EA
:100DE000FF410840A9890843A08200A8FFF70DFF32
:100DF0001048814501D1039E00E0029E192000FBAE
:100E000006F029688900B0FBF1F76420B7FBF0F029
:100E100000010109642202FB11785FEA08113231F6
:100E20006422B1FBF2F111F00F010843208105B0FB
:100E3000BDE8F08300380140C9B2002904D081899F
:100E400051F40051818104E081894DF6FF72114017
:100E50008181704770B40024002500260023030020
:100E60000800C0B24009C0B2040089B211F01F00EE
:100E700005000120A8400600012C01D10C3304E03C
:100E8000022C01D1103300E01433D2B2002A03D077
:100E900018683043186002E01868B043186070BCEE
:100EA0007047C905C90D818070478088C005C00D95
:100EB000704700220088084201D0012200E0002291
:100EC0001000C0B2704789B2C9430180704700006A
:100ED00070B400210022002300240F25C678002EC4
:100EE00035D02749096811F4E061D1F5E061090ABC
:100EF000D1F10404CD404178A14082782A401143C9
:100F00000901027812F00302D2B2D20091400278B5
:100F10009210194B53F82220FF23047814F0030495
:100F2000E4B2E400A3409A4319400A4301788910CF
:100F3000114B43F8212001784911124A012300780E
:100F400010F01F0013FA00F042F821000AE00178C7
:100F50004911084A0123007810F01F0013FA00F02D
:100F600042F8210070BC7047074A1140084303490A
:100F70000860704780E100E000E400E008ED00E078
:100F80000CED00E000E100E080FFFF1F10B40288DC
:100F900012F08F0202800288CB884C8823431A43C8
:100FA00002808A8882850A88028501228282234AF9
:100FB000904202D0224A904201D1097A018610BCA7
:100FC000704770B4002300240022058C4FF6FE7693
:100FD00035400584058C2C0085882A00058B2B0064
:100FE0004FF68F752B400D882B434FF6FD752C4027
:100FF0000D892C434D882C43CD8885860F4DA84202
:1010000002D00F4DA84213D14FF6F7752C404D89F1
:101010002C434FF6FB752C408D882C4347F6FF651B
:101020002A4047F6FF552A408D892A43C9890A4339
:1010300082800383048470BC70470000002C014050
:1010400000340140C9B2002904D0018851F00101E7
:10105000018004E0018840F2FE32114001807047B7
:10106000D2B2002A03D082891143818103E08289B0
:1010700032EA01018181704781867047808C704718
:101080000022008A084201D0012200E00022100064
:10109000C0B2704789B2C9430182704710B40022C0
:1010A00003881A0012F441520B884C8823438C8821
:1010B0002343CC8823430C8923434C8923438C89C5
:1010C0002343CC8923431A430280828B4FF2FF7360
:1010D0001A408283098A018210BC7047C9B2002974
:1010E00004D0018851F04001018004E001884FF6EE
:1010F000BF721140018070478181704780897047BD
:1011000000220089084201D0012200E000221000E4
:10111000C0B2704789B2C943018170471CB58522AE
:1011200000217148FFF7D8F900F00CF96F497048B9
:10113000FFF735FA6F48FFF750F86F48FFF751F89F
:101140006E48FFF752F86E48FFF752F866487F2165
:1011500080F88110002004E0C0B263494118887013
:10116000401C614991F88110C0B28842F4D36548AF
:1011700000F0C5F942F2107000F0C4F9FFF749F829
:101180001A20FFF738F8FFF792F85748022141700C
:101190005548007850F004005349087052480078D0
:1011A0000028FBD0504800780028F7D04E4800783F
:1011B000C00710D54C484078012804D0022804D13B
:1011C000FFF78AFA01E0FFF79DFA4748007810F030
:1011D000FE00454908704448007880072FD54248F2
:1011E000407801281ED0022823D147480190474863
:1011F0000090474B7F2247494748FFF76DF800248E
:1012000007E0E4B238482018807880B2FFF7EAF9A6
:10121000641C354890F88100E4B28442F1D3FFF7B2
:1012200062FA06E0FFF743F82F4802214170FFF70A
:101230006FFA2D48007810F0FD002B4908702A48FD
:1012400000784007AED52848407802280ED1FEF736
:10125000E1FF254890F881102F48FEF7F3FFFEF7D5
:10126000FCFFFFF70DF82048012141701E4800786F
:1012700010F0FB001C49087094E728480078401CD7
:1012800026490870704725484078401C234948701B
:1012900070471548007850F00100134908701F4846
:1012A0008078401C1D49887070470F48007850F0C6
:1012B00002000D4908701948C078401C1749C870D1
:1012C000704780B5FFF716FA0748007850F0040021
:1012D0000549087011480079401C1049087142F214
:1012E000107000F00FF901BD000000202913000864
:1012F000211300087B1200088712000893120008CF
:10130000AB120008C31200088400002083000020F4
:10131000820000208100002002000020AC0000209C
:1013200080B5FFF759F901BD80B5FFF74FF9FFF719
:1013300066F9C0B280B2FFF755F901BD80B5FFF77D
:10134000EDFE02BD00B585B000F053F800F08AF85C
:1013500001211020FFF7BDFC0220ADF80000102095
:101360008DF8030003208DF8020000A93B48FFF729
:10137000E5F90420ADF8000010208DF803000320EB
:101380008DF8020000A93548FFF7D8F90421334849
:10139000FFF73AFA00210220FFF73CFA0120029001
:1013A00000208DF80C0008208DF80D0001208DF82C
:1013B0000E0002A800F0E0F806208DF804000220DC
:1013C0008DF8050000208DF8060001208DF807003B
:1013D00001A8FFF77DFDFFF76BF9FFF787F8FFF72F
:1013E00043FA00F047F8FFF723F9FEF7A9FE05B02E
:1013F00000BD80B5FFF756FB5FF48030FFF781FB3F
:10140000FFF7A9FB1649087015480078012824D178
:10141000102000F00FF9022000F000F90020FFF783
:10142000D5FB0020FFF7E6FB4FF48060FFF7D8FB09
:101430005FF4E0115FF48030FFF7AAFB0120FFF7B3
:10144000B2FB3920FFF765FC0028FAD00220FFF735
:10145000AEFBFFF7B6FB0828FBD101BD0010014031
:10146000C500002080B500215FF00060FFF77CFD23
:1014700001BD000000B589B0082200213D48FFF7FA
:101480002BF801210120FFF734FC4FF6FF70ADF877
:10149000080041F61F40ADF804000020ADF80A0036
:1014A0000020ADF8060001A95FF08040FFF76EFD57
:1014B0003020ADF810000020ADF816000120ADF886
:1014C00012000020ADF8180004A95FF08040FFF77B
:1014D00078FD01215FF08040FFF7B4FD1C208DF8FE
:1014E000000002208DF8010001208DF8020001208B
:1014F0008DF8030000A8FFF7EBFC09B000BD1D4903
:101500000860704770B504001A48868819488088BA
:101510002518184885805FF08040FFF7AFFDB6B210
:10152000801BA4B284420BDA02215FF08040FFF7F7
:10153000B1FD012202215FF08040FFF791FD10E034
:10154000290089B25FF08040FFF796FD02215FF02D
:101550008040FFF79FFD012202215FF08040FFF7EE
:101560007FFD70BD80B5034800688047012002BD43
:1015700000000000A40000208179002938D0224911
:10158000096802689143204A11602049096802688D
:1015900091431E4A116001791B4A51580268114358
:1015A0000279194B99501A49096802689143184AFF
:1015B00011601849096802689143164A116041791F
:1015C00010290CD11249096802681143104A1160B0
:1015D00010490968006808430E49086010E0417925
:1015E000094A5158026811434079074A115007E0EF
:1015F0000179054A5158026891430079024A115015
:101600007047054908607047000401400404014028
:10161000080401400C040140140401400B4909680E
:1016200011F03801094A116008490968084307495F
:10163000086070470549096831F01001034A1160DC
:1016400002490968084301490860704700200240C8
:101650007047FEE7FEE7FEE7FEE77047704770471A
:1016600036480078401C3549087034480078012815
:1016700002D33248002101707047704770477047AD
:1016800070477047704780B50120FFF7BAFFFEF73B
:10169000E7FE01BD7047704770477047704770475D
:1016A0007047704770477047704770477047704782
:1016B000704770477047704770477047704780B5F4
:1016C00002215FF08040FFF7DBFC002806D00221FA
:1016D0005FF08040FFF7DEFCFFF744FF01BD80B5FF
:1016E000FEF7B8FF01BD70477047704770477047FD
:1016F00080B501211248FFF703FD002801D0FFF754
:101700008BF901BD704780B520210E48FFF7D1FB52
:10171000002805D020210B48FFF7D5FBFEF77BFF03
:1017200040210848FFF7C5FB002805D040210548A7
:10173000FFF7C9FBFEF769FF01BD0000C4000020F0
:1017400000300140003801407047704770477047D3
:1017500070477047704770477047704770477047D1
:1017600070477047704770477047704770477047C1
:101770007047704730BF704720BF704740BF704709
:10178000BFF36F8F7047BFF34F8F7047BFF35F8F0B
:10179000704701DF7047EFF31480704780F31488BF
:1017A000BFF36F8F7047EFF30980704780F30988AC
:1017B0007047EFF30880704780F30888704762B67F
:1017C000704772B67047EFF31080704761B670478C
:1017D00071B67047EFF31380704780F3118870473C
:1017E000EFF31280704740BA704700BA70470000AC
:1017F00010B5084979441C31074C7C441A34A14285
:1018000006D0081D0A68511888470146A142F8D140
:1018100010BD00BF0800000014000000FFF1FFFF32
:10182000C8000000000000200000000000F009F8DF
:10183000002801D0FFF7DCFF0020FFF77FFD00F05C
:1018400002F80120704780B500F002B800BF000028
:101850000746384600F002F8FBE7000080B5C046B6
:10186000C046024A11001820ABBEFBE7260002006A
:0C187000C046C046C046C046FFF7D8FF87
:040000050800187166
:00000001FF
