:020000040800F2
:1000000010040020A10B0008DD080008DF0800082C
:10001000E1080008E3080008E50800080000000007
:10002000000000000000000000000000E9080008D7
:10003000E708000800000000EB080008ED080008D1
:10004000EF080008F1080008F3080008F5080008A8
:10005000F7080008F9080008FB080008FD08000878
:10006000FF08000801090008030900080509000845
:1000700007090008090900080B0900080D09000814
:100080000F090008110900081309000815090008E4
:1000900017090008190900081B0900081D090008B4
:1000A0001F09000821090008230900082509000884
:1000B00027090008290900082B0900082D09000854
:1000C0002F09000831090008330900083509000824
:1000D00037090008390900086509000867090008A0
:1000E000690900086B0900086D0900086F0900081C
:1000F00071090008730900087509000877090008EC
:10010000790900087B0900087D0900087F090008BB
:10011000810900088309000885090008870900088B
:10012000890900088B0900088D0900088F0900085B
:10013000DFF89002006850F00100DFF888120860D4
:10014000DFF884020068DFF884120840DFF87812D4
:100150000860DFF870020068DFF874120840DFF80A
:1001600064120860DFF85C02006830F48020DFF879
:1001700054120860DFF85002006830F4FE00DFF827
:1001800048120860DFF84C02002101607047DFF878
:100190003412096831F48031DFF828221160DFF869
:1001A0002412096831F48021DFF818221160B0F5BB
:1001B000803F03D0B0F5802F09D011E0DFF80402B2
:1001C000006850F48030DFF8FC11086008E0DFF8C8
:1001D000F401006850F4A020DFF8E8110860FFE7A0
:1001E000704780B50020009000200021312000F0F1
:1001F000C6F801000098401C0090C9B2002903D144
:100200000098B0F5A06FF1D1312000F0B8F80028C7
:1002100001D0012000E00020C0B202BD00226A4BE4
:100220001B681A0032F47C120843024366480260DD
:1002300070476949C0B2086070470021624A12687D
:1002400011008908890001435F48016070475E48DA
:10025000006810F00C00704700215B4A1268110022
:1002600031F0F00101435848016070470021564ABF
:100270001268110031F4E061014353480160704796
:100280000021514A1268110031F4605151EAC00155
:100290004D480160704730B4002200210023002443
:1002A000494D2D6815F00C052A00002A04D0042AB7
:1002B00005D0082A06D021E04949016020E04849DC
:1002C00001601DE04049096811F47011890C891C16
:1002D0003D4A126812F48033002B03D1414A514346
:1002E00001600AE0384A1268920303D53D4A51433F
:1002F000016002E03A4A5143016001E0384901607F
:100300003149096811F0F00212090FF2E401545C5E
:100310000168E14041602C49096811F4E062120A69
:100320000FF2CC01545C4168E140816026490968C4
:1003300011F46052D20A0FF2B801545C4168E140F6
:10034000C1602149096811F44042920B0FF2B001DB
:10035000545CC168B1FBF4F1016130BC7047C9B2B3
:10036000002905D02049096808431F49086005E0B5
:100370001D49096831EA00001B490860704710B444
:10038000002200230021C0B24409E4B22200012A65
:1003900002D10C490B6806E0022A02D10F490B6812
:1003A00001E012490B68C0B210F01F02012090401A
:1003B000034201D0012100E000210800C0B210BCBE
:1003C0007047000000100240041002400000FFF8D7
:1003D000FFFFF6FE0810024060004242201002407B
:1003E00000127A0000093D0018100240241002405B
:1003F00000000000010203040102030406070809CB
:10040000020406082DE9F04385B004000D00002029
:10041000002600275FF000085FF00009A146218A4E
:1004200008004CF6FF710840E98808432082A08943
:100430004EF6F3110840A9882A8911436A891143AD
:100440000843A081A08A4FF6FF410840A9890843CC
:10045000A08200A8FFF71FFF1048814501D1039E2D
:1004600000E0029E192000FB06F029688900B0FB1D
:10047000F1F76420B7FBF0F000010109642202FBF0
:1004800011785FEA081132316422B1FBF2F111F008
:100490000F010843208105B0BDE8F083003801401A
:1004A000C9B2002904D0818951F40051818104E04E
:1004B00081894DF6FF7211408181704770B400242C
:1004C00000250026002303000800C0B24009C0B286
:1004D000040089B211F01F0005000120A8400600A9
:1004E000012C01D10C3304E0022C01D1103300E0C7
:1004F0001433D2B2002A03D018683043186002E0E7
:100500001868B043186070BC7047C905C90D818078
:1005100070478088C005C00D7047002200880842DF
:1005200001D0012200E000221000C0B2704789B261
:10053000C9430180704770B40A00002400230025DD
:1005400000211600F6B27609F6B2350092B212F02A
:100550001F063300012616FA03F3012D02D181890B
:100560000B4006E0022D02D1018A0B4001E0818A96
:100570000B4092B2140AA4B2012111FA04F40088CB
:100580000440002B03D0002C01D0012100E0002109
:100590000800C0B270BC704700B587B008220021C7
:1005A000384800F07FF801214FF48040FFF7D7FE74
:1005B0004FF4164002900020ADF80C000020ADF87A
:1005C0000E000020ADF810000020ADF814000C2043
:1005D000ADF8120002A92C48FFF714FF012240F2E7
:1005E00025512948FFF76AFF00F032F80121042065
:1005F000FFF7B5FE4FF40070ADF8000003208DF852
:10060000020018208DF8030000A9204800F054F8DB
:100610004FF48060ADF8000004208DF8030000A9BD
:100620001A4800F049F84FF4A06000F0ABF825201C
:100630008DF8040001208DF8050001208DF80600DA
:1006400001208DF8070001A800F0A3F807B000BD55
:1006500080B501210C48FFF723FF01BD80B52021A3
:100660000948FFF764FF01BD80B5C0B2010089B23F
:100670000548FFF74AFF80210348FFF74EFF002897
:10068000F9D001BD00000020003801400008014001
:1006900010B50400FFF7E2FF2000C0B2FFF7E4FF4F
:1006A000002010BD10B5040010000A000100200059
:1006B00000F0D0F8200010BDF0B400220026002485
:1006C00000250023002791F803C01CF00F0C6246A0
:1006D00091F803C05FEACC6C01D58B781A430B7894
:1006E0001B0621D00368002406E0CD78482D02D1F6
:1006F0000125A5400561641C082C14D20125A540E4
:100700000E882E40AE42F6D1A5000F2616FA05F748
:10071000BB4312FA05F52B43CD78282DE5D10125F1
:10072000A5404561E7E703600B884FF48074A3425E
:1007300026D34368002420E0012514F10806B540C3
:100740000E882E40AE4217D1A5000F2616FA05F7E7
:10075000BB4312FA05F52B43CD78282D04D1012592
:1007600014F10806B5404561CD78482D04D1012526
:1007700014F10806B5400561641C082CDCD3436005
:10078000F0BC7047DFF8C0100843DFF8B81008600D
:10079000704770B400210022002300240F25C67882
:1007A000002E35D02749096811F4E061D1F5E061E8
:1007B000090AD1F10404CD404178A14082782A4051
:1007C00011430901027812F00302D2B2D200914023
:1007D00002789210194B53F82220FF23047814F06A
:1007E0000304E4B2E400A3409A4319400A430178A9
:1007F0008910124B43F8212001784911134A012333
:10080000007810F01F0013FA00F042F821000AE00F
:1008100001784911084A0123007810F01F0013FAEB
:1008200000F042F8210070BC7047094A11400843AB
:10083000034908607047000080E100E000E400E048
:1008400008ED00E00CED00E00000FA0500E100E03A
:1008500080FFFF1F62F30F2262F31F42401810F067
:10086000030308D0C91A1FD3DB0748BF00F8012DC6
:1008700028BF20F8022D130030B414461546103955
:1008800028BF20E93C00FAD8490728BF20E90C001E
:1008900048BF40F8042D890028BF20F8022D48BF2A
:1008A00000F8012D30BC7047C91818BF00F8012DA1
:1008B000CB0728BF00F8012D704750F8041B61B129
:1008C00050F8042BD30744BFA9F101039A18002361
:1008D00042F8043B091FFAD1EFE770477047FEE783
:1008E000FEE7FEE7FEE770477047704770477047C6
:1008F0007047704770477047704770477047704740
:10090000704770477047704770477047704770472F
:10091000704770477047704770477047704770471F
:10092000704770477047704770477047704770470F
:10093000704770477047704780B500F044F840F248
:1009400025510748FFF7F7FD002807D000F034F8DD
:100950000348FFF7DEFDC0B2FFF79AFE01BD0000BD
:1009600000380140704770477047704770477047C4
:1009700070477047704770477047704770477047BF
:1009800070477047704770477047704770477047AF
:1009900080B501211020FFF7E2FC4FF4E070ADF8C4
:1009A000000010208DF8030003208DF8020000A93C
:1009B0000848FFF781FE01BD0748006890F040003D
:1009C0000549086070470448006890F080000249BB
:1009D00008607047001001400C10014080B500F025
:1009E00007F800F03DF8FFF7D3FFFFF7D5FDFEE76E
:1009F00080B5FFF79DFB5FF48030FFF7C8FBFFF782
:100A0000F0FB1649087015480078012824D1102001
:100A100000F03AF8022000F02BF80020FFF71CFC51
:100A20000020FFF72DFC4FF48060FFF71FFC5FF400
:100A3000E0115FF48030FFF7F1FB0120FFF7F9FBD5
:100A40003920FFF79CFC0028FAD00220FFF7F5FBC5
:100A5000FFF7FDFB0828FBD101BD000008000020C6
:100A600080B500215FF00060FFF7DFFE01BD0000F0
:100A70000B49096811F03801094A116008490968F1
:100A800008430749086070470549096831F01001BB
:100A9000034A116002490968084301490860704728
:100AA0000020024030BF704720BF704740BF7047F2
:100AB000BFF36F8F7047BFF34F8F7047BFF35F8FE8
:100AC000704701DF7047EFF31480704780F314889C
:100AD000BFF36F8F7047EFF30980704780F3098889
:100AE0007047EFF30880704780F30888704762B65C
:100AF000704772B67047EFF31080704761B6704769
:100B000071B67047EFF31380704780F31188704718
:100B1000EFF31280704740BA704700BA7047000088
:100B200010B5084979441C31074C7C441A34A14261
:100B300006D0081D0A68511888470146A142F8D11D
:100B400010BD00BF08000000140000006FFDFFFF93
:100B50000C000000000000200000000000F009F878
:100B6000002801D0FFF7DCFF0020FFF737FF00F07F
:100B700002F80120704780B500F002B800BF000005
:100B80000746384600F002F8FBE7000080B5C04693
:100B9000C046024A11001820ABBEFBE72600020047
:0C0BA000C046C046C046C046FFF7D8FF64
:0400000508000BA143
:00000001FF
