:020000040800F2
:100000003804002079130008E5110008E711000802
:10001000E9110008EB110008ED11000800000000D4
:10002000000000000000000000000000F1110008C6
:10003000EF11000800000000F3110008F51100089E
:100040000F12000811120008131200081512000800
:1000500017120008191200081B12000829120008C4
:100060002B1200082D1200082F1200083112000870
:100070003312000835120008371200083912000840
:100080003B1200083D1200083F1200084112000810
:1000900043120008451200084712000849120008E0
:1000A0004B1200084D1200084F12000851120008B0
:1000B00053120008731200087B1200087D1200081A
:1000C0007F120008811200088312000885120008C0
:1000D000991200089B120008CD120008CF120008E8
:1000E000D1120008D3120008D5120008D712000858
:1000F000D9120008DB120008DD120008DF12000828
:10010000E1120008E3120008E5120008E7120008F7
:10011000E9120008EB120008ED120008EF120008C7
:10012000F1120008F3120008F5120008F712000897
:10013000DFF8B002006850F00100DFF8A812086094
:10014000DFF8A4020068DFF8A4120840DFF8981274
:100150000860DFF890020068DFF894120840DFF8CA
:1001600084120860DFF87C02006830F48020DFF839
:1001700074120860DFF87002006830F4FE00DFF8E7
:1001800068120860DFF86C02002101607047DFF838
:100190005412096831F48031DFF848221160DFF829
:1001A0004412096831F48021DFF838221160B0F57B
:1001B000803F03D0B0F5802F09D011E0DFF8240292
:1001C000006850F48030DFF81C12086008E0DFF8A7
:1001D0001402006850F4A020DFF808120860FFE75E
:1001E000704780B50020009000200021312000F0F1
:1001F000D6F801000098401C0090C9B2002903D134
:100200000098B0F5A06FF1D1312000F0C8F80028B7
:1002100001D0012000E00020C0B202BD0022724BDC
:100220001B681A0032F47C12084302436E480260D5
:1002300070477149C0B20860704700216A4A12686D
:1002400011008908890001436748016070476648CA
:10025000006810F00C0070470021634A126811001A
:1002600031F0F001014360480160704700215E4AAF
:100270001268110031F4E06101435B48016070478E
:100280000021594A1268110031F4605151EAC0014D
:1002900055480160704730B400220021002300243B
:1002A000514D2D6815F00C052A00002A04D0042AAF
:1002B00005D0082A06D021E05149016020E05049CC
:1002C00001601DE04849096811F47011890C891C0E
:1002D000454A126812F48033002B03D1494A514336
:1002E00001600AE0404A1268920303D5454A51432F
:1002F000016002E0424A5143016001E0404901606F
:100300003949096811F0F00212090FF20811545C22
:100310000168E14041603449096811F4E062120A61
:100320000FF2F001545C4168E14081602E49096898
:1003300011F46052D20A0FF2DC01545C4168E140D2
:10034000C1602949096811F44042920B0FF2D401AF
:10035000545CC168B1FBF4F1016130BC7047C9B2B3
:10036000002905D02849096808432749086005E0A5
:100370002549096831EA0000234908607047C9B27D
:10038000002905D02149096808432049086005E093
:100390001E49096831EA00001C490860704710B422
:1003A000002200230021C0B24409E4B22200012A45
:1003B00002D10C490B6806E0022A02D10F490B68F2
:1003C00001E013490B68C0B210F01F0201209040F9
:1003D000034201D0012100E000210800C0B210BC9E
:1003E0007047000000100240041002400000FFF8B7
:1003F000FFFFF6FE0810024060004242201002405B
:1004000000127A0000093D00181002401C10024042
:100410002410024000000000010203040102030452
:10042000060708090204060800B587B0102200215B
:10043000664800F0D2F801214FF48050FFF78FFF9B
:1004400001210420FFF78BFFA020ADF80000182049
:100450008DF8030003208DF8020000A95C4800F02D
:10046000D7F84020ADF8000004208DF803000320E9
:100470008DF8020000A9564800F0CAF81020ADF827
:10048000000010208DF8030000A9514800F0C0F8CA
:100490000020ADF804004FF48270ADF80600002093
:1004A000ADF808000020ADF80A000020ADF80C00FF
:1004B0004FF40070ADF80E001020ADF810000020D1
:1004C000ADF812000720ADF8140001A9414800F072
:1004D00035F901213F4800F051F907B000BDF8B5EA
:1004E000069E079C089D394F3860384800270771E1
:1004F0003648417135488271344883603348067309
:10050000324844733148857330480121C1732F4804
:10051000407B012819D110212D4800F0E2F814E0A9
:100520002C4800F03BF92949896808702748006881
:10053000401C2649086025480079401C2349087161
:1005400022484079401E21494871204840790128BD
:100550002FD31E480068017889B21E4800F01CF9AC
:1005600001211C4800F01CF90028F9D0012119488C
:1005700000F020F915488079002803D00228CFD058
:100580000BD3D3E711480079002805D1114800F0BA
:1005900005F90E4989680870C8E70E4800F0FEF8B2
:1005A0000A498968087009488068401C07498860C2
:1005B000BCE70648807B012803D11021044800F0E5
:1005C0008DF802480021C173F1BD00000000002039
:1005D0000008014000300140FEE710B504001000A3
:1005E0000A000100200000F0E9F8200010BD50F8DA
:1005F000041B61B150F8042BD30744BFA9F10103D8
:100600009A18002342F8043B091FFAD1EFE770471C
:10061000F0B400220026002400250023002791F8D2
:1006200003C01CF00F0C624691F803C05FEACC6C6B
:1006300001D58B781A430B781B0621D00368002460
:1006400006E0CD78482D02D10125A5400561641C46
:10065000082C14D20125A5400E882E40AE42F6D1BA
:10066000A5000F2616FA05F7BB4312FA05F52B4332
:10067000CD78282DE5D10125A5404561E7E7036048
:100680000B884FF48074A34226D34368002420E0F3
:10069000012514F10806B5400E882E40AE4217D150
:1006A000A5000F2616FA05F7BB4312FA05F52B43F2
:1006B000CD78282D04D1012514F10806B5404561F7
:1006C000CD78482D04D1012514F10806B540056107
:1006D000641C082CDCD34360F0BC704789B2016114
:1006E000704789B24161704710B400220F2311F0A6
:1006F0000304E4B2A400A3401A00C9B28B100E4C4C
:1007000054F8233033EA0202C9B28B100A4C44F881
:100710002320C9B28A10084B53F82220C0B211F02E
:100720000303DBB29B0098401043C9B28910024A10
:1007300042F8210010BC70470800014010B40022AC
:1007400003881A0012F441520B884C8823438C888A
:100750002343CC8823430C8923434C8923438C892E
:100760002343CC8923431A430280828B4FF2FF73C9
:100770001A408283098A018210BC7047C9B20029DD
:1007800004D0018851F04001018004E001884FF657
:10079000BF72114001807047818170478089704726
:1007A00000220089084201D0012200E0002210004E
:1007B000C0B2704789B2C9430181704762F30F220A
:1007C00062F31F42401810F0030308D0C91A1FD368
:1007D000DB0748BF00F8012D28BF20F8022D1300C9
:1007E00030B414461546103928BF20E93C00FAD829
:1007F000490728BF20E90C0048BF40F8042D8900B4
:1008000028BF20F8022D48BF00F8012D30BC7047EA
:10081000C91818BF00F8012DCB0728BF00F8012D1B
:100820007047000080B500F09AF802BD00B585B0B1
:1008300000F053F800F08CF801211020FFF78FFD35
:100840000220ADF8000010208DF8030003208DF881
:10085000020000A93C48FFF7DBFE0420ADF80000D1
:1008600010208DF8030003208DF8020000A93648FF
:10087000FFF7CEFE04213448FFF730FF00210220AD
:10088000FFF732FF0120029000208DF80C000820B5
:100890008DF80D0001208DF80E0002A800F068F818
:1008A00006208DF8040002208DF8050000208DF848
:1008B000060001208DF8070001A800F0ABF800F059
:1008C0000BF900F051F9FFF7AFFD00F0E7F900F088
:1008D0003DFA00F07FFA05B000BD80B5FFF728FCB7
:1008E0005FF48030FFF753FCFFF77BFC174908707B
:1008F00016480078012824D1102000F00BFB0220BC
:1009000000F0FCFA0020FFF7A7FC0020FFF7B8FC7E
:100910004FF48060FFF7AAFC5FF4E0115FF48030D1
:10092000FFF77CFC0120FFF784FC3920FFF737FD3F
:100930000028FAD00220FFF780FCFFF788FC082887
:10094000FBD101BD00000000001001403500002077
:1009500080B500215FF0006000F0ACF801BD80B50B
:10096000FFF764FF00F0A2F800F0CAF8002002BD13
:100970008179002938D02249096802689143204AC8
:10098000116020490968026891431E4A116001798B
:100990001B4A5158026811430279194B99501A4960
:1009A000096802689143184A116018490968026889
:1009B0009143164A1160417910290CD112490968F6
:1009C00002681143104A1160104909680068084321
:1009D0000E49086010E04179094A515802681143F4
:1009E0004079074A115007E00179054A51580268D9
:1009F00091430079024A11507047054908607047D9
:100A00000004014004040140080401400C040140BA
:100A10001404014070B400210022002300240F259B
:100A2000C678002E35D02949096811F4E061D1F566
:100A3000E061090AD1F10404CD404178A1408278F7
:100A40002A4011430901027812F00302D2B2D20007
:100A50009140027892101B4B53F82220FF23047818
:100A600014F00304E4B2E400A3409A4319400A439B
:100A700001788910134B43F8212001784911144A59
:100A80000123007810F01F0013FA00F042F8210053
:100A90000AE0017849110A4A0123007810F01F008A
:100AA00013FA00F042F8210070BC704780B500F0E6
:100AB00066FA01BD074A11400843034908607047C0
:100AC00080E100E000E400E008ED00E00CED00E073
:100AD00000E100E080FFFF1F80B501211020FFF73B
:100AE0003EFC4FF4E070ADF8000010208DF80300DC
:100AF00002208DF8020000A91948FFF789FD01BD09
:100B000080B540211648FFF7E9FD00F021F84021AB
:100B10001348FFF7E6FD00F01BF880211048FFF7AF
:100B2000DDFD00F015F880210D48FFF7DAFD00F03B
:100B30000FF84FF480710A48FFF7D0FD00F008F875
:100B40004FF480710648FFF7CCFD00F001F8D8E7BC
:100B5000002000E0401C03498842FBD3704700009E
:100B600000100140F8FF0F0000B587B008220021F7
:100B70004748FFF732FD01214FF48040FFF7EFFBBC
:100B80004FF4164002900020ADF80C000020ADF8A4
:100B90000E000020ADF810000020ADF814000C206D
:100BA000ADF8120002A93B4800F000FA00F035F859
:100BB0000121384800F048FA01210420FFF7CFFB5B
:100BC0004FF40070ADF8000002208DF802001820EC
:100BD0008DF8030000A93048FFF71AFD4FF480603C
:100BE000ADF8000002208DF8020004208DF803000B
:100BF00000A92948FFF70CFD25208DF804000320EB
:100C00008DF8050003208DF8060001208DF80700FF
:100C100001A8FFF7FFFE07B000BD80B5012240F23A
:100C200026611C4800F01EFA012240F225511948A5
:100C300000F018FA4021174800F049FA01BD80B5CC
:100C40002021144800F043FA01BD80B5402111482D
:100C500000F03DFA01BD80B5010089B20D4800F0F9
:100C600028FA80210B4800F028FA0028F9D001BDAD
:100C700080B5FFF7EAFF064800688047002002BD04
:100C800080B5FFF7DCFF024840688047002002BDC6
:100C90002C000020003801400008014000B589B058
:100CA000082200212848FFF798FC01210120FFF7C6
:100CB00066FB4FF6FF70ADF8080041F61F40ADF837
:100CC00004000020ADF80A000020ADF8060001A9DC
:100CD0005FF0804000F000FA3020ADF810000020F6
:100CE000ADF816000120ADF812000020ADF8180094
:100CF00004A95FF0804000F00AFA02215FF0804012
:100D000000F06CFA012202215FF0804000F04EFA00
:100D100001215FF0804000F03BFA1C208DF80000BC
:100D200002208DF8010001208DF8020001208DF8CD
:100D3000030000A8FFF76EFE09B000BD80B50248B1
:100D400000688047012002BD1C00002080B50822F9
:100D500000211A48FFF741FC01BD80B5184800F09A
:100D600031FA02BD80B50221154800F02DFA0028A5
:100D70000CD00221124800F031FA104840680028D7
:100D800018D00E4840688047012014E001210C482B
:100D900000F01AFA00280CD00121094800F01EFAD0
:100DA00006480068002805D00448006880470120F4
:100DB00001E0FEE7002002BD00000000240000204A
:100DC00000040040002000E0401CDFF828118842A9
:100DD000FAD3704780B50C220021DFF81C01FFF721
:100DE000FCFB4548002101720321022000F01AF8A3
:100DF0000C210E2000F016F80F2000F02AF8052133
:100E00000D2000F00FF82421042000F00BF8012041
:100E100000F01FF810F01F000828F8D13648012113
:100E2000017201BD00B585B050F0C0008DF80C0016
:100E30008DF80D10012002900120019002200090F9
:100E40000DF10E030122022103A8FFF748FB05B0B4
:100E500000BD00B585B050F080008DF80C0000207A
:100E60008DF80D00012002900120019002200090D9
:100E70000DF10E030122022103A8FFF730FB9DF8BC
:100E80000F0005B000BD10B5FFF767FF04000F208D
:100E9000FFF7DFFF410713D517480B2101721648F2
:100EA0000068002806D0200080B2134909688847EE
:100EB00001201CE02220FFF7CEFEFFF783FFFEE7B4
:100EC000000713D50C480C2101720B48406800281C
:100ED00006D0200080B2084949688847012006E012
:100EE0004420FFF7B8FEFFF76DFFFEE7002010BDBE
:100EF00000000000F8FF0F00100000200B490968F7
:100F000011F03801094A1160084909680843074986
:100F1000086070470549096831F01001034A116003
:100F200002490968084301490860704700200240EF
:100F300030BF704720BF704740BF7047BFF36F8F0F
:100F40007047BFF34F8F7047BFF35F8F704701DF6C
:100F50007047EFF31480704780F31488BFF36F8FEE
:100F60007047EFF30980704780F309887047EFF30B
:100F70000880704780F30888704762B6704772B681
:100F80007047EFF31080704761B6704771B67047D5
:100F9000EFF31380704780F311887047EFF31280EE
:100FA000704740BA704700BA704700002DE9F0431F
:100FB00085B004000D000020002600275FF0000827
:100FC0005FF00009A146218A08004CF6FF71084035
:100FD000E98808432082A0894EF6F3110840A988C9
:100FE0002A8911436A8911430843A081A08A4FF6D8
:100FF000FF410840A9890843A08200A8FFF74BF9E8
:101000001048814501D1039E00E0029E192000FB9B
:1010100006F029688900B0FBF1F76420B7FBF0F017
:1010200000010109642202FB11785FEA08113231E4
:101030006422B1FBF2F111F00F010843208105B0E9
:10104000BDE8F08300380140C9B2002904D081898D
:1010500051F40051818104E081894DF6FF72114005
:101060008181704770B4002400250026002303000E
:101070000800C0B24009C0B2040089B211F01F00DC
:1010800005000120A8400600012C01D10C3304E02A
:10109000022C01D1103300E01433D2B2002A03D065
:1010A00018683043186002E01868B043186070BCDC
:1010B0007047C905C90D8180704700220088084229
:1010C00001D0012200E000221000C0B2704789B2B6
:1010D000C94301807047000010B4028812F08F02EB
:1010E00002800288CB884C8823431A4302808A8876
:1010F00082850A88028501228282234A904202D098
:10110000224A904201D1097A018610BC704770B41E
:10111000002300240022058C4FF6FE76354005841E
:10112000058C2C0085882A00058B2B004FF68F75C7
:101130002B400D882B434FF6FD752C400D892C4319
:101140004D882C43CD8885860F4DA84202D00F4D87
:10115000A84213D14FF6F7752C404D892C434FF61A
:10116000FB752C408D882C4347F6FF652A4047F6D7
:10117000FF552A408D892A43C9890A438280038307
:10118000048470BC70470000002C01400034014012
:10119000C9B2002904D0018851F00101018004E0A6
:1011A000018840F2FE32114001807047D2B2002A1D
:1011B00003D082891143818103E0828932EA0101EF
:1011C00081817047808C70470022008A084201D0DC
:1011D000012200E000221000C0B2704789B2C9436A
:1011E000018270477047FEE7FEE7FEE7FEE77047C3
:1011F0007047704732480078401C314908703048C9
:101200000078012802D32E480021017070477047F2
:101210007047704770477047704780B50120FFF7EF
:10122000ECFBFFF730FE01BD704770477047704719
:1012300070477047704770477047704770477047F6
:1012400070477047704770477047704770477047E6
:10125000704780B502215FF08040FFF7B5FF00289E
:1012600006D002215FF08040FFF7B8FFFFF766FD70
:1012700001BD80B5FFF776FD01BD7047704770472F
:101280007047704780B501210E48FFF789FA0028A2
:1012900001D0FFF7A1F901BD704780B520210A48B0
:1012A000FFF70BFF002801D0FFF7EAFC40210648BA
:1012B000FFF703FF002801D0FFF7DAFC01BD0000B3
:1012C0003400002000300140003801407047704772
:1012D0007047704770477047704770477047704756
:1012E0007047704770477047704770477047704746
:1012F000704770477047704710B5084979441C31F2
:10130000074C7C441A34A14206D0081D0A685118C3
:1013100088470146A142F8D110BD00BF0800000077
:1013200014000000CBF2FFFF380000000000002096
:101330000000000000F009F8002801D0FFF7DCFFF2
:101340000020FFF76FFA00F002F80120704780B527
:1013500000F002B800BF00000746384600F002F86F
:10136000FBE7000080B5C046C046024A11001820C5
:10137000ABBEFBE726000200C046C046C046C046E2
:04138000FFF7D8FF9C
:040000050800137963
:00000001FF
