:020000040800F2
:1000000040040020351400081D1200081F120008CB
:100010002112000823120008251200080000000029
:10002000000000000000000000000000291200088D
:1000300027120008000000002B1200082D120008F3
:1000400047120008491200084B1200084D12000820
:100050004F120008511200085312000861120008E4
:100060006312000865120008671200086912000890
:100070006B1200086D1200086F1200087112000860
:100080007312000875120008771200087912000830
:100090007B1200087D1200087F1200088112000800
:1000A00083120008851200088712000889120008D0
:1000B0008B120008AB120008B3120008B51200083A
:1000C000B7120008B9120008BB120008BD120008E0
:1000D000D1120008D31200080D1300080F130008F6
:1000E0001113000813130008151300081713000854
:1000F000191300081B1300081D1300081F13000824
:1001000021130008231300082513000827130008F3
:10011000291300082B1300082D1300082F130008C3
:100120003113000833130008351300083713000893
:10013000DFF8B002006850F00100DFF8A812086094
:10014000DFF8A4020068DFF8A4120840DFF8981274
:100150000860DFF890020068DFF894120840DFF8CA
:1001600084120860DFF87C02006830F48020DFF839
:1001700074120860DFF87002006830F4FE00DFF8E7
:1001800068120860DFF86C02002101607047DFF838
:100190005412096831F48031DFF848221160DFF829
:1001A0004412096831F48021DFF838221160B0F57B
:1001B000803F03D0B0F5802F09D011E0DFF8240292
:1001C000006850F48030DFF81C12086008E0DFF8A7
:1001D0001402006850F4A020DFF808120860FFE75E
:1001E000704780B50020009000200021312000F0F1
:1001F000D6F801000098401C0090C9B2002903D134
:100200000098B0F5A06FF1D1312000F0C8F80028B7
:1002100001D0012000E00020C0B202BD0022724BDC
:100220001B681A0032F47C12084302436E480260D5
:1002300070477149C0B20860704700216A4A12686D
:1002400011008908890001436748016070476648CA
:10025000006810F00C0070470021634A126811001A
:1002600031F0F001014360480160704700215E4AAF
:100270001268110031F4E06101435B48016070478E
:100280000021594A1268110031F4605151EAC0014D
:1002900055480160704730B400220021002300243B
:1002A000514D2D6815F00C052A00002A04D0042AAF
:1002B00005D0082A06D021E05149016020E05049CC
:1002C00001601DE04849096811F47011890C891C0E
:1002D000454A126812F48033002B03D1494A514336
:1002E00001600AE0404A1268920303D5454A51432F
:1002F000016002E0424A5143016001E0404901606F
:100300003949096811F0F00212090FF20811545C22
:100310000168E14041603449096811F4E062120A61
:100320000FF2F001545C4168E14081602E49096898
:1003300011F46052D20A0FF2DC01545C4168E140D2
:10034000C1602949096811F44042920B0FF2D401AF
:10035000545CC168B1FBF4F1016130BC7047C9B2B3
:10036000002905D02849096808432749086005E0A5
:100370002549096831EA0000234908607047C9B27D
:10038000002905D02149096808432049086005E093
:100390001E49096831EA00001C490860704710B422
:1003A000002200230021C0B24409E4B22200012A45
:1003B00002D10C490B6806E0022A02D10F490B68F2
:1003C00001E013490B68C0B210F01F0201209040F9
:1003D000034201D0012100E000210800C0B210BC9E
:1003E0007047000000100240041002400000FFF8B7
:1003F000FFFFF6FE0810024060004242201002405B
:1004000000127A0000093D00181002401C10024042
:100410002410024000000000010203040102030452
:10042000060708090204060800B587B0102200215B
:10043000664800F0D2F801214FF48050FFF78FFF9B
:1004400001210420FFF78BFFA020ADF80000182049
:100450008DF8030003208DF8020000A95C4800F02D
:10046000D7F84020ADF8000004208DF803000320E9
:100470008DF8020000A9564800F0CAF81020ADF827
:10048000000010208DF8030000A9514800F0C0F8CA
:100490000020ADF804004FF48270ADF80600002093
:1004A000ADF808000020ADF80A000020ADF80C00FF
:1004B0004FF40070ADF80E001020ADF810000020D1
:1004C000ADF812000720ADF8140001A9414800F072
:1004D00035F901213F4800F051F907B000BDF8B5EA
:1004E000069E079C089D394F3860384800270771E1
:1004F0003648417135488271344883603348067309
:10050000324844733148857330480121C1732F4804
:10051000407B012819D110212D4800F0E2F814E0A9
:100520002C4800F03BF92949896808702748006881
:10053000401C2649086025480079401C2349087161
:1005400022484079401E21494871204840790128BD
:100550002FD31E480068017889B21E4800F01CF9AC
:1005600001211C4800F01CF90028F9D0012119488C
:1005700000F020F915488079002803D00228CFD058
:100580000BD3D3E711480079002805D1114800F0BA
:1005900005F90E4989680870C8E70E4800F0FEF8B2
:1005A0000A498968087009488068401C07498860C2
:1005B000BCE70648807B012803D11021044800F0E5
:1005C0008DF802480021C173F1BD00000000002039
:1005D0000008014000300140FEE710B504001000A3
:1005E0000A000100200000F0E9F8200010BD50F8DA
:1005F000041B61B150F8042BD30744BFA9F10103D8
:100600009A18002342F8043B091FFAD1EFE770471C
:10061000F0B400220026002400250023002791F8D2
:1006200003C01CF00F0C624691F803C05FEACC6C6B
:1006300001D58B781A430B781B0621D00368002460
:1006400006E0CD78482D02D10125A5400561641C46
:10065000082C14D20125A5400E882E40AE42F6D1BA
:10066000A5000F2616FA05F7BB4312FA05F52B4332
:10067000CD78282DE5D10125A5404561E7E7036048
:100680000B884FF48074A34226D34368002420E0F3
:10069000012514F10806B5400E882E40AE4217D150
:1006A000A5000F2616FA05F7BB4312FA05F52B43F2
:1006B000CD78282D04D1012514F10806B5404561F7
:1006C000CD78482D04D1012514F10806B540056107
:1006D000641C082CDCD34360F0BC704789B2016114
:1006E000704789B24161704710B400220F2311F0A6
:1006F0000304E4B2A400A3401A00C9B28B100E4C4C
:1007000054F8233033EA0202C9B28B100A4C44F881
:100710002320C9B28A10084B53F82220C0B211F02E
:100720000303DBB29B0098401043C9B28910024A10
:1007300042F8210010BC70470800014010B40022AC
:1007400003881A0012F441520B884C8823438C888A
:100750002343CC8823430C8923434C8923438C892E
:100760002343CC8923431A430280828B4FF2FF73C9
:100770001A408283098A018210BC7047C9B20029DD
:1007800004D0018851F04001018004E001884FF657
:10079000BF72114001807047818170478089704726
:1007A00000220089084201D0012200E0002210004E
:1007B000C0B2704789B2C9430181704762F30F220A
:1007C00062F31F42401810F0030308D0C91A1FD368
:1007D000DB0748BF00F8012D28BF20F8022D1300C9
:1007E00030B414461546103928BF20E93C00FAD829
:1007F000490728BF20E90C0048BF40F8042D8900B4
:1008000028BF20F8022D48BF00F8012D30BC7047EA
:10081000C91818BF00F8012DCB0728BF00F8012D1B
:100820007047000000B587B0082200214B48FFF751
:10083000D4FE01214FF48040FFF791FD4FF41640A4
:1008400002900020ADF80C000020ADF80E00002052
:10085000ADF810000020ADF814000C20ADF8120027
:1008600002A93F4800F080F800F03AF801213C4826
:1008700000F0C8F801210420FFF771FD4FF400706B
:10088000ADF8000002208DF8020018208DF803005A
:1008900000A93448FFF7BCFE4FF48060ADF80000BB
:1008A00002208DF8020004208DF8030000A92D48D5
:1008B000FFF7AEFE25208DF8040003208DF805001B
:1008C00003208DF8060001208DF8070001A800F034
:1008D000E5F807B000BD214A10602048416070472C
:1008E00080B5012240F226611D4800F099F80122EE
:1008F00040F225511A4800F093F84021184800F0C2
:10090000C8F801BD80B52021154800F0C2F801BD2E
:1009100080B54021124800F0BCF801BD80B501004F
:1009200089B20F4800F0A3F880210D4800F0A7F825
:100930000028F9D001BD80B5094800F09CF880B2CC
:1009400002BD80B5054800688047002002BD80B523
:10095000024840688047002002BD00002C000020B3
:1009600000380140000801402DE9F04385B0040043
:100970000D000020002600275FF000085FF000094E
:10098000A146218A08004CF6FF710840E988084317
:100990002082A0894EF6F3110840A9882A891143C4
:1009A0006A8911430843A081A08A4FF6FF4108409D
:1009B000A9890843A08200A8FFF76DFC1048814573
:1009C00001D1039E00E0029E192000FB06F0296879
:1009D0008900B0FBF1F76420B7FBF0F000010109DA
:1009E000642202FB11785FEA081132316422B1FB04
:1009F000F2F111F00F010843208105B0BDE8F0834A
:100A000000380140C9B2002904D0818951F4005155
:100A1000818104E081894DF6FF7211408181704728
:100A200070B4002400250026002303000800C0B293
:100A30004009C0B2040089B211F01F000500012076
:100A4000A8400600012C01D10C3304E0022C01D196
:100A5000103300E01433D2B2002A03D018683043B8
:100A6000186002E01868B043186070BC7047C90590
:100A7000C90D818070478088C005C00D7047002275
:100A80000088084201D0012200E000221000C0B21C
:100A9000704789B2C94301807047000070B40021DB
:100AA0000022002300240F25C678002E35D02749C8
:100AB000096811F4E061D1F5E061090AD1F104049B
:100AC000CD404178A14082782A4011430901027843
:100AD00012F00302D2B2D200914002789210194B68
:100AE00053F82220FF23047814F00304E4B2E40056
:100AF000A3409A4319400A4301788910114B43F8E7
:100B0000212001784911124A0123007810F01F00BA
:100B100013FA00F042F821000AE001784911084A6E
:100B20000123007810F01F0013FA00F042F82100B2
:100B300070BC7047074A114008430349086070477A
:100B400080E100E000E400E008ED00E00CED00E0F2
:100B500000E100E080FFFF1F80B500F09BF802BDC0
:100B600000B585B000F053F800F08CF8012110209A
:100B7000FFF7F5FB0220ADF8000010208DF8030010
:100B800003208DF8020000A93C48FFF741FD042036
:100B9000ADF8000010208DF8030003208DF802004E
:100BA00000A93648FFF734FD04213448FFF796FDCD
:100BB00000210220FFF798FD0120029000208DF80F
:100BC0000C0008208DF80D0001208DF80E0002A801
:100BD00000F0ACF806208DF8040002208DF8050026
:100BE00000208DF8060001208DF8070001A8FFF70E
:100BF00055FF00F0EDF8FFF715FEFFF715FC00F0CC
:100C000007F900F091F900F0D3F905B000BD80B507
:100C1000FFF78EFA5FF48030FFF7B9FAFFF7E1FAD9
:100C20001749087016480078012824D1102000F0D8
:100C30005FFA022000F050FA0020FFF70DFB0020C1
:100C4000FFF71EFB4FF48060FFF710FB5FF4E0112D
:100C50005FF48030FFF7E2FA0120FFF7EAFA39206B
:100C6000FFF79DFB0028FAD00220FFF7E6FAFFF716
:100C7000EEFA0828FBD101BD000000000010014081
:100C80003B00002080B500215FF00060FFF752FFBD
:100C900001BD000080B51948002101800222002119
:100CA0001748FFF79AFCFFF75BFF16491648FFF756
:100CB00012FE164800F0FCF842F2107000F0FBF84B
:100CC000FEE780B500F098F80D480088401C0C49FC
:100CD000088042F2107000F0EEF808480088411CCD
:100CE000064A118080B2FFF719FE002000E0401C88
:100CF00080B2B0F5FA6FFAD301BD000038000020D1
:100D000034000020190D0008110D0008C30C000864
:100D100080B5FFF7FDFD01BD80B5FFF7F3FDFFF7DF
:100D20000AFEC0B280B2FFF7F9FD01BD817900294A
:100D300038D02249096802689143204A116020494D
:100D40000968026891431E4A116001791B4A515893
:100D5000026811430279194B99501A4909680268CF
:100D60009143184A11601849096802689143164A6C
:100D70001160417910290CD11249096802681143A8
:100D8000104A116010490968006808430E4908605C
:100D900010E04179094A5158026811434079074AE5
:100DA000115007E00179054A5158026891430079D2
:100DB000024A11507047054908607047000401401D
:100DC00004040140080401400C04014014040140E3
:100DD00080B501211020FFF7C2FA4FF4E070ADF8A2
:100DE000000010208DF8030002208DF8020000A9F9
:100DF0000548FFF70DFC01BD044800684FF4807101
:100E00004840024908607047001001400C10014042
:100E100000B589B0082200214248FFF7DEFB01211E
:100E20000120FFF7ACFA4FF6FF70ADF8080041F66D
:100E30001F40ADF804000020ADF80A000020ADF816
:100E4000060001A95FF0804000F060F93020ADF8A5
:100E500010000020ADF816000120ADF812000020AF
:100E6000ADF8180004A95FF0804000F06AF9022193
:100E70005FF0804000F0CEF9012202215FF0804057
:100E800000F0AEF901215FF0804000F09BF91C20DA
:100E90008DF8000002208DF8010001208DF802007D
:100EA00001208DF8030000A8FFF7F8FD09B000BD90
:100EB0001C490860704770B504001A4886881948B4
:100EC00080882518174885805FF0804000F096F9EB
:100ED000B6B2801BA4B284420BDA02215FF08040DC
:100EE00000F098F9012202215FF0804000F078F9CB
:100EF00010E0290089B25FF0804000F07DF9022106
:100F00005FF0804000F086F9012202215FF080400E
:100F100000F066F970BD80B5024800688047012086
:100F200002BD00001C00002080B5082200211A48E4
:100F3000FFF753FB01BD80B5184800F05FF902BD13
:100F400080B50221154800F05BF900280CD0022181
:100F5000124800F05FF910484068002818D00E4889
:100F600040688047012014E001210C4800F048F956
:100F700000280CD00121094800F04CF9064800680F
:100F8000002805D0044800688047012001E0FEE702
:100F9000002002BD000000002400002000040040EA
:100FA000002000E0401CDFF828118842FAD3704787
:100FB00080B50C220021DFF81C01FFF70EFB45482D
:100FC000002101720321022000F01AF80C210E20EA
:100FD00000F016F80F2000F02AF805210D2000F08F
:100FE0000FF82421042000F00BF8012000F01FF876
:100FF00010F01F000828F8D136480121017201BD08
:1010000000B585B050F0C0008DF80C008DF80D10C3
:101010000120029001200190022000900DF10E03AA
:101020000122022103A8FFF75AFA05B000BD00B55E
:1010300085B050F080008DF80C0000208DF80D0078
:101040000120029001200190022000900DF10E037A
:101050000122022103A8FFF742FA9DF80F0005B014
:1010600000BD10B5FFF767FF04000F20FFF7DFFF9B
:10107000410713D517480B21017216480068002854
:1010800006D0200080B213490968884701201CE07F
:101090002220FFF743FCFFF783FFFEE7000713D58D
:1010A0000C480C2101720B484068002806D0200033
:1010B00080B2084949688847012006E04420FFF7CC
:1010C0002DFCFFF76DFFFEE7002010BD00000000C3
:1010D000F8FF0F00100000200B49096811F03801DB
:1010E000094A1160084909680843074908607047C0
:1010F0000549096831F01001034A11600249096885
:1011000008430149086070470020024010B402887B
:1011100012F08F0202800288CB884C8823431A4346
:1011200002808A8882850A88028501228282234A77
:10113000904202D0224A904201D1097A018610BC25
:10114000704770B4002300240022058C4FF6FE7611
:1011500035400584058C2C0085882A00058B2B00E2
:101160004FF68F752B400D882B434FF6FD752C40A5
:101170000D892C434D882C43CD8885860F4DA84280
:1011800002D00F4DA84213D14FF6F7752C404D8970
:101190002C434FF6FB752C408D882C4347F6FF659A
:1011A0002A4047F6FF552A408D892A43C9890A43B8
:1011B00082800383048470BC70470000002C0140CF
:1011C00000340140C9B2002904D0018851F0010166
:1011D000018004E0018840F2FE3211400180704736
:1011E000D2B2002A03D082891143818103E082892F
:1011F00032EA01018181704781867047808C704797
:101200000022008A084201D0012200E000221000E2
:10121000C0B2704789B2C943018270477047FEE788
:10122000FEE7FEE7FEE770477047704734480078F6
:10123000401C3349087032480078012802D33048F6
:1012400000210170704770477047704770477047C2
:10125000704780B50120FFF7AEFDFFF702FF01BD2B
:1012600070477047704770477047704770477047C6
:1012700070477047704770477047704770477047B6
:101280007047704770477047704780B502215FF024
:101290008040FFF7B5FF002806D002215FF08040B4
:1012A000FFF7B8FFFFF737FE01BD80B5FFF748FE37
:1012B00001BD7047704770477047704780B5012186
:1012C0001048FFF76DFA002801D0FFF785F901BD3E
:1012D000704780B520210C48FFF7D1FB002803D0D0
:1012E000FFF710FBFFF733FB40210748FFF7C7FB71
:1012F000002803D0FFF70CFBFFF723FB01BD000024
:101300003A0000200030014000380140704770472B
:101310007047704770477047704770477047704715
:101320007047704770477047704770477047704705
:10133000704770477047704730BF704720BF704795
:1013400040BF7047BFF36F8F7047BFF34F8F704739
:10135000BFF35F8F704701DF7047EFF31480704772
:1013600080F31488BFF36F8F7047EFF309807047E5
:1013700080F309887047EFF30880704780F308888E
:10138000704762B6704772B67047EFF310807047CF
:1013900061B6704771B67047EFF31380704780F302
:1013A00011887047EFF31280704740BA704700BA57
:1013B0007047000010B5084979441C31074C7C4443
:1013C0001A34A14206D0081D0A6851188847014600
:1013D000A142F8D110BD00BF0800000014000000B9
:1013E0000FF2FFFF3C0000000000002000000000A2
:1013F00000F009F8002801D0FFF7DCFF0020FFF71C
:10140000ABFB00F002F80120704780B500F002B895
:1014100000BF00000746384600F002F8FBE7000076
:1014200080B5C046C046024A11001820ABBEFBE79B
:1014300026000200C046C046C046C046FFF7D8FF9F
:0400000508001435A6
:00000001FF
