:020000040800F2
:10000000080500202D150008890F00088B0F000837
:100010008D0F00088F0F0008910F000800000000EE
:10002000000000000000000000000000950F000824
:10003000930F000800000000970F0008990F0008B8
:10004000B30F0008B50F0008B70F0008B90F00087C
:10005000BB0F0008BD0F0008BF0F0008CD0F000840
:10006000CF0F0008D10F0008D30F0008D50F0008EC
:10007000D70F0008D90F0008DB0F0008DD0F0008BC
:10008000DF0F0008E10F0008E30F0008E50F00088C
:10009000E70F0008E90F0008EB0F0008ED0F00085C
:1000A000EF0F0008F10F0008F30F0008F50F00082C
:1000B000F70F0008171000081F1000082110000893
:1000C0002310000825100008271000082910000838
:1000D0003D1000083F100008711000087310000860
:1000E0007510000877100008791000087B100008D0
:1000F0007D1000087F1000088110000883100008A0
:100100008510000887100008891000088B1000086F
:100110008D1000088F10000891100008931000083F
:100120009510000897100008991000089B1000080F
:1001300080B5DFF8F003002180F8C810002030E01F
:10014000C0B21421DFF8DC2301FB002100220A6089
:10015000C0B21421DFF8CC2301FB002100228A80E9
:10016000C0B21421DFF8BC2301FB002101220A7276
:10017000C0B21421DFF8AC2301FB002100224A7237
:10018000C0B21421DFF89C2301FB00210022CA60C9
:10019000C0B21421DFF88C2301FB002100220A7475
:1001A000401CC0B20A28CBD3DFF87C0300F00FFA62
:1001B00001BDF8B5002400E0641CE4B20A2C08D2AA
:1001C000E4B21425DFF85C6305FB04656D7A012D4C
:1001D000F2D0E4B20A2C80F0A980D2B2002A2DD14C
:1001E000E4B21425DFF83C6305FB04650A2606FB30
:1001F00000F62E600A2505FB00F54FF6FF76B5FBED
:10020000F6F5E4B21426DFF81C7306FB0476F580DD
:10021000E4B21425DFF80C6305FB0465ED88002DBE
:100220002FD1D2B2002A20D1E4B21422DFF8F45246
:1002300002FB04520A25684390802BE0D2B2012AC7
:1002400012D1E4B21425DFF8DC6205FB04652860F6
:100250004FF6FF75B0FBF5F5E4B21426DFF8C47273
:1002600006FB0476F580D3E7FEE7D2B2012A07D178
:10027000E4B21422DFF8AC5202FB0452908009E091
:10028000FEE7E4B21420DFF89C2200FB04204FF6C6
:10029000FF728280E4B21420DFF8882200FB042081
:1002A0000172E4B21420DFF87C1200FB041001217B
:1002B0004172E4B21420DFF86C1200FB0410C3603A
:1002C000E4B21420974900FB041000210174954802
:1002D00090F8C80000280AD0E4B21420914900FB2D
:1002E000041080888F49B1F8CA10884217D2E4B24E
:1002F00014208C4900FB041080888A49A1F8CA00A8
:10030000884890F8C800002801D100F063F9E4B2F1
:100310001420844900FB0410808800F075F981489E
:10032000012180F8C8102000C0B200E0FF20F2BD1B
:1003300038B500F0C6F9002510E0EDB21420794977
:1003400000FB051080887749B1F8CA10401AEDB259
:100350001421744A01FB052188806D1CEDB20A2D21
:1003600053D2EDB214206F4900FB0510407A0128EA
:10037000F3D16C48B0F8CA00EDB21421694A01FB10
:10038000052189888842D8D3EDB21420654900FB45
:100390000510C088002807D1EDB21420614900FB88
:1003A000051001210174D8E7EDB214205D4900FB6E
:1003B0000510C088401EEDB214215A4A01FB0521E8
:1003C000C880EDB21420574900FB0510C0880028F2
:1003D00012D1EDB21420534900FB051000684FF60E
:1003E000FF71B0FBF1F201FB1200EDB214214D4A96
:1003F00001FB05218880B0E7EDB21420494900FBDC
:1004000005104FF6FF718180A7E7002507E0EDB2E8
:100410001420444900FB0510002141726D1CEDB20F
:100420000A2D4BD2EDB214203E4900FB0510007C92
:100430000128F3D1EDB214203A4900FB0510C06841
:100440008047EDB21420374900FB051000210174EC
:10045000EDB21420334900FB0510007A0028D6D1F4
:10046000EDB214202F4900FB051000684FF6FF7114
:10047000B0FBF1F0EDB214212A4A01FB0521C8803E
:10048000EDB21420274900FB0510C08800280CD1CC
:10049000EDB21420234900FB0510EDB21421214ACE
:1004A00001FB052109688180B8E7EDB214201D49E0
:1004B00000FB05104FF6FF718180AFE7002000259B
:1004C0001BE0EDB21421174A01FB0521497A0129ED
:1004D00012D1C0B2002808D0EDB21421114A01FB9C
:1004E00005218988A4B2A14206D2EDB214200D499B
:1004F00000FB0510848801206D1CEDB20A2DE0D3AD
:10050000C0B2012808D10748A0F8CA400548B0F891
:10051000CA0000F079F803E00248002180F8C81012
:1005200031BD0000000000203103000800B589B093
:1005300008220021504800F0CFF80121012000F0EE
:10054000FCF94FF6FF70ADF8080041F61F40ADF81A
:1005500004000020ADF80A000020ADF8060001A953
:100560005FF0804000F03EFA3020ADF810004FF40C
:10057000FA60ADF816000120ADF812000020ADF8C9
:10058000180004A95FF0804000F047FA02215FF0F4
:10059000804000F0ADFA012202215FF0804000F0BF
:1005A0008BFA01215FF0804000F078FA1C208DF872
:1005B000000002208DF8010001208DF802000120CA
:1005C0008DF8030000A800F09EFA09B000BD2A498A
:1005D0000860704780B500215FF0804000F07AFA33
:1005E00002215FF0804000F083FA012202215FF0D7
:1005F000804000F061FA00215FF0804000F068FA6E
:100600001D480021818001BD70B504001A4886880C
:10061000194880882518184885805FF0804000F0D0
:100620005BFAB6B2801BA4B284420BDA02215FF0FF
:10063000804000F05DFA012202215FF0804000F06E
:100640003BFA10E0290089B25FF0804000F042FAE6
:1006500002215FF0804000F04BFA012202215FF09E
:10066000804000F029FA70BD80B5034800688047DB
:10067000012002BD00000000E800002080B501213B
:10068000102000F04AF94FF4E070ADF8000010209F
:100690008DF8030002208DF8020000A90C4800F03C
:1006A00093FA01BD0B4800684FF480714840094936
:1006B000086070470748006890F0400005490860EE
:1006C00070470448006890F0800002490860704755
:1006D000001001400C10014010B5040010000A0089
:1006E0000100200000F0DCFA200010BDDFF8B002AD
:1006F000006850F00100DFF8A8120860DFF8A402DB
:100700000068DFF8A4120840DFF898120860DFF8EC
:1007100090020068DFF894120840DFF88412086045
:10072000DFF87C02006830F48020DFF87412086083
:10073000DFF87002006830F4FE00DFF8681208602D
:10074000DFF86C02002101607047DFF8541209687D
:1007500031F48031DFF848221160DFF84412096873
:1007600031F48021DFF838221160B0F5803F03D0EA
:10077000B0F5802F09D011E0DFF82402006850F4B2
:100780008030DFF81C12086008E0DFF8140200680F
:1007900050F4A020DFF808120860FFE7704780B52A
:1007A0000020009000200021312000F0D6F8010048
:1007B0000098401C0090C9B2002903D10098B0F500
:1007C000A06FF1D1312000F0C8F8002801D001203D
:1007D00000E00020C0B202BD0022724B1B681A006C
:1007E00032F47C12084302436E480260704771493C
:1007F000C0B20860704700216A4A12681100890877
:10080000890001436748016070476648006810F03E
:100810000C0070470021634A1268110031F0F001AA
:10082000014360480160704700215E4A1268110070
:1008300031F4E06101435B48016070470021594A8F
:100840001268110031F4605151EAC001554801604D
:10085000704730B40022002100230024514D2D6840
:1008600015F00C052A00002A04D0042A05D0082A15
:1008700006D021E05149016020E0504901601DE0AF
:100880004849096811F47011890C891C454A12689D
:1008900012F48033002B03D1494A514301600AE02E
:1008A000404A1268920303D5454A5143016002E071
:1008B000424A5143016001E04049016039490968F9
:1008C00011F0F00212090FF20811545C0168E140C6
:1008D00041603449096811F4E062120A0FF2F00134
:1008E000545C4168E14081602E49096811F460520E
:1008F000D20A0FF2DC01545C4168E140C160294931
:10090000096811F44042920B0FF2D401545CC168A3
:10091000B1FBF4F1016130BC7047C9B2002905D0C8
:100920002849096808432749086005E025490968FE
:1009300031EA0000234908607047C9B2002905D098
:100940002149096808432049086005E01E490968F3
:1009500031EA00001C490860704710B400220023EF
:100960000021C0B24409E4B22200012A02D10C499C
:100970000B6806E0022A02D10F490B6801E0134917
:100980000B68C0B210F01F0201209040034201D05A
:10099000012100E000210800C0B210BC7047000037
:1009A00000100240041002400000FFF8FFFFF6FEB6
:1009B00008100240600042422010024000127A00FB
:1009C00000093D00181002401C1002402410024093
:1009D00000000000010203040102030406070809E5
:1009E0000204060810B4028812F08F020280028806
:1009F000CB884C8823431A4302808A8882850A88E0
:100A0000028501228282234A904202D0224A9042E9
:100A100001D1097A018610BC704770B4002300240C
:100A20000022058C4FF6FE7635400584058C2C009F
:100A300085882A00058B2B004FF68F752B400D887B
:100A40002B434FF6FD752C400D892C434D882C43CC
:100A5000CD8885860F4DA84202D00F4DA84213D1F4
:100A60004FF6F7752C404D892C434FF6FB752C4003
:100A70008D882C4347F6FF652A4047F6FF552A40EC
:100A80008D892A43C9890A4382800383048470BC08
:100A900070470000002C014000340140C9B2002919
:100AA00004D0018851F00101018004E0018840F286
:100AB000FE32114001807047D2B2002A03D08289F1
:100AC0001143818103E0828932EA0101818170470B
:100AD0008184704781867047808C70470022008A2D
:100AE000084201D0012200E000221000C0B270478D
:100AF00089B2C94301827047DFF8C0100843DFF8AC
:100B0000B8100860704770B4002100220023002450
:100B10000F25C678002E35D02749096811F4E06109
:100B2000D1F5E061090AD1F10404CD404178A1403A
:100B300082782A4011430901027812F00302D2B2EE
:100B4000D200914002789210194B53F82220FF23D3
:100B5000047814F00304E4B2E400A3409A4319407B
:100B60000A4301788910124B43F82120017849117A
:100B7000134A0123007810F01F0013FA00F042F826
:100B800021000AE001784911084A0123007810F099
:100B90001F0013FA00F042F8210070BC7047094AA8
:100BA00011400843034908607047000080E100E0FD
:100BB00000E400E008ED00E00CED00E00000FA05C4
:100BC00000E100E080FFFF1FF0B4002200260024B7
:100BD00000250023002791F803C01CF00F0C62468B
:100BE00091F803C05FEACC6C01D58B781A430B787F
:100BF0001B0621D00368002406E0CD78482D02D1E1
:100C00000125A5400561641C082C14D20125A540CE
:100C10000E882E40AE42F6D1A5000F2616FA05F733
:100C2000BB4312FA05F52B43CD78282DE5D10125DC
:100C3000A5404561E7E703600B884FF48074A34249
:100C400026D34368002420E0012514F10806B540AE
:100C50000E882E40AE4217D1A5000F2616FA05F7D2
:100C6000BB4312FA05F52B43CD78282D04D101257D
:100C700014F10806B5404561CD78482D04D1012511
:100C800014F10806B5400561641C082CDCD34360F0
:100C9000F0BC704789B20161704789B24161704709
:100CA00062F30F2262F31F42401810F0030308D0D2
:100CB000C91A1FD3DB0748BF00F8012D28BF20F851
:100CC000022D130030B414461546103928BF20E910
:100CD0003C00FAD8490728BF20E90C0048BF40F87B
:100CE000042D890028BF20F8022D48BF00F8012DEF
:100CF00030BC7047C91818BF00F8012DCB0728BFBA
:100D000000F8012D704750F8041B61B150F8042B16
:100D1000D30744BFA9F101039A18002342F8043B0A
:100D2000091FFAD1EFE7704700B587B0082200210C
:100D30004748FFF7D1FC01214FF48040FFF7EDFD5C
:100D40004FF4164002900020ADF80C000020ADF8E2
:100D50000E000020ADF810000020ADF814000C20AB
:100D6000ADF8120002A93B4800F078F800F035F821
:100D70000121384800F0C0F801210420FFF7CDFD23
:100D80004FF40070ADF8000002208DF8020018202A
:100D90008DF8030000A93048FFF716FF4FF480607C
:100DA000ADF8000002208DF8020004208DF8030049
:100DB00000A92948FFF708FF25208DF8040003202B
:100DC0008DF8050003208DF8060001208DF807003E
:100DD00001A8FFF798FE07B000BD80B5012240F2E0
:100DE00026611C4800F096F8012240F2255119486E
:100DF00000F090F84021174800F0C1F801BD80B51F
:100E00002021144800F0BBF801BD80B540211148F5
:100E100000F0B5F801BD80B5010089B20D4800F0C1
:100E2000A0F880210B4800F0A0F80028F9D001BDFF
:100E300080B5FFF7EAFF064800688047002002BD42
:100E400080B5FFF7DCFF024840688047002002BD04
:100E5000F800002000380140000801402DE9F0436F
:100E600085B004000D000020002600275FF0000878
:100E70005FF00009A146218A08004CF6FF71084086
:100E8000E98808432082A0894EF6F3110840A9881A
:100E90002A8911436A8911430843A081A08A4FF629
:100EA000FF410840A9890843A08200A8FFF7D1FCB0
:100EB0001048814501D1039E00E0029E192000FBED
:100EC00006F029688900B0FBF1F76420B7FBF0F069
:100ED00000010109642202FB11785FEA0811323136
:100EE0006422B1FBF2F111F00F010843208105B03B
:100EF000BDE8F08300380140C9B2002904D08189DF
:100F000051F40051818104E081894DF6FF72114056
:100F10008181704770B4002400250026002303005F
:100F20000800C0B24009C0B2040089B211F01F002D
:100F300005000120A8400600012C01D10C3304E07B
:100F4000022C01D1103300E01433D2B2002A03D0B6
:100F500018683043186002E01868B043186070BC2D
:100F60007047C905C90D818070470022008808427A
:100F700001D0012200E000221000C0B2704789B207
:100F8000C9430180704700007047FEE7FEE7FEE7B7
:100F9000FEE770477047704732480078401C31497F
:100FA000087030480078012802D32E4800210170D3
:100FB000704770477047704770477047704780B5FB
:100FC000012000F06BF800F091F801BD7047704708
:100FD0007047704770477047704770477047704759
:100FE0007047704770477047704770477047704749
:100FF00070477047704780B502215FF08040FFF76F
:101000006DFD002806D002215FF08040FFF770FDE3
:10101000FFF72AFB01BD80B500F0A7F801BD7047BE
:10102000704770477047704780B501210E4800F047
:10103000CFF8002801D000F057F901BD704780B506
:1010400020210A48FFF791FF002801D0FFF7F8FEA2
:1010500040210648FFF789FF002801D0FFF7E8FE8E
:1010600001BD0000000100200030014000380140B7
:1010700070477047704770477047704770477047B8
:1010800070477047704770477047704770477047A8
:101090007047704770477047704770470149086054
:1010A0007047000014040140002000E0401CDFF8FD
:1010B000A8108842FAD3704700B585B050F0800080
:1010C0008DF80C0000208DF80D0001200290012009
:1010D0000190022000900DF10E030122022103A8CD
:1010E00000F084F89DF80F0005B000BD10B500F0C9
:1010F00037F804000F20FFF7DFFF410713D517482B
:101100000B21017215480068002806D0200080B22B
:1011100012490968884701201CE02220FFF77BFE66
:10112000FFF7C2FFFEE7000713D50C480C21017240
:101130000A484068002806D0200080B20749496864
:101140008847012006E04420FFF765FEFFF7ACFF6B
:10115000FEE7002010BD0000F8FF0F00DC000020BB
:1011600080B51848FFF7B8FC02BD80B502211548CC
:10117000FFF7B4FC00280CD002211248FFF7B8FC9E
:101180000F484068002818D00D484068804701206B
:1011900014E001210B48FFF7A1FC00280CD001212D
:1011A0000848FFF7A5FC06480068002805D0044859
:1011B00000688047012001E0FEE7002002BD00003A
:1011C000F000002000040040818170478089704752
:1011D00000220089084201D0012200E00022100014
:1011E000C0B2704789B2C94301817047F8B5069E05
:1011F000079C089D394F38603848002707713748E9
:1012000041713648827135488360344806733348EB
:1012100044733248857331480121C1732F48407BA4
:10122000012819D110212E48FFF737FD14E02D4871
:10123000FFF7CCFF29498968087028480068401CDE
:101240002649086025480079401C24490871234834
:101250004079401E214948712048407901282FD308
:101260001E480068017889B21E48FFF7ADFF0121D2
:101270001C48FFF7ADFF0028F9D001211948FFF7FE
:10128000B1FF16488079002803D00228CFD00BD3B5
:10129000D3E712480079002805D11248FFF796FFDE
:1012A0000E4989680870C8E70E48FFF78FFF0B49A1
:1012B0008968087009488068401C08498860BCE754
:1012C0000648807B012803D110210548FFF7E2FC86
:1012D00002480021C173F1BD00000000CC000020D5
:1012E0000008014000300140FEE7000080B500F03A
:1012F0003EF800F031F8FFF7C1F9FFF715FDFFF7F1
:1013000015F9FEF715FF0B4B002200214FF4FA7080
:10131000FEF74FFF084B002200214FF47A70FEF7D2
:1013200048FF064B002200214FF4FA60FEF741FF10
:10133000FEE700004113000849130008511300089C
:1013400080B5FFF7AFF901BD80B5FFF7BAF901BD70
:1013500080B5FFF7AFF901BD80B500215FF00060F7
:10136000FFF71DFC4FF4A060FFF7C6FB01BD80B581
:10137000FFF7BCF95FF48030FFF7E7F9FFF70FFAEA
:10138000C0B2012824D1102000F044F8022000F05F
:1013900035F80020FFF73EFA0020FFF74FFA4FF430
:1013A0008060FFF741FA5FF4E0115FF48030FFF7EF
:1013B00013FA0120FFF71BFA3920FFF7CEFA0028B5
:1013C000FAD00220FFF717FAFFF71FFA0828FBD11F
:1013D00001210520FFF7A1FA01210820FFF79DFA5E
:1013E00001211020FFF799FA01212020FFF795FA3B
:1013F00001214020FFF791FA01BD00000B49096867
:1014000011F03801094A1160084909680843074981
:10141000086070470549096831F01001034A1160FE
:1014200002490968084301490860704700200240EA
:1014300030BF704720BF704740BF7047BFF36F8F0A
:101440007047BFF34F8F7047BFF35F8F704701DF67
:101450007047EFF31480704780F31488BFF36F8FE9
:101460007047EFF30980704780F309887047EFF306
:101470000880704780F30888704762B6704772B67C
:101480007047EFF31080704761B6704771B67047D0
:10149000EFF31380704780F311887047EFF31280E9
:1014A000704740BA704700BA7047000010B508494D
:1014B00079441C31074C7C441A34A14206D0081DE3
:1014C0000A68511888470146A142F8D110BD00BFF3
:1014D00008000000140000002FF8FFFF04010000C6
:1014E000000000200000000000F009F8002801D0F2
:1014F000FFF7DCFF0020FFF7F9FE00F002F8012003
:10150000704780B500F002B800BF000007463846BB
:1015100000F002F8FBE7000080B5C046C046024A72
:1015200011001820ABBEFBE726000200C046C046F3
:08153000C046C046FFF7D8FFDA
:040000050800152DAD
:00000001FF
