:020000040020DA
:100000009C4A00206519200049192000551920003C
:100010005D1920005D1920005D192000000000001E
:100020000000000000000000000000005D1920003A
:100030005D192000000000005D1920005D192000FE
:100040005D1920005D1920005D1920005D19200058
:10005000000000005D1920005D1920005D192000DE
:100060005D192000000000000000000000000000FA
:1000700000000000000000005D19200000000000EA
:1000800000000000000000005D1920005D19200044
:100090005D1920005D1920005D1920005D19200008
:1000A0005D1920005D1920005D1920005D192000F8
:1000B0005D1920005D1920005D1920005D192000E8
:1000C0005D1920005D1920005D1920005D192000D8
:1000D0005D1920000000000000000000000000008A
:1000E0000000000000000000000000000000000010
:1000F0005D192000000000005D1920005D1920003E
:1001000000000000000000000000000000000000EF
:1001100000000000000000000000000000000000DF
:1001200000000000000000000000000000000000CF
:1001300000000000000000000000000000000000BF
:1001400000000000000000000000000000000000AF
:10015000000000000000000000000000000000009F
:10016000000000000000000000000000000000008F
:10017000000000000000000000000000000000007F
:10018000000000000000000000000000000000006F
:10019000000000000000000000000000000000005F
:1001A000000000000000000000000000000000004F
:1001B000000000000000000000000000000000003F
:1001C000000000000000000000000000000000002F
:1001D000000000000000000000000000000000001F
:1001E000000000000000000000000000000000000F
:1001F00000000000000000000000000000000000FF
:1002000000000000000000000000000000000000EE
:1002100000000000000000000000000000000000DE
:1002200000000000000000000000000000000000CE
:1002300000000000000000000000000000000000BE
:1002400000000000000000000000000000000000AE
:10025000000000000000000000000000000000009E
:10026000000000000000000000000000000000008E
:100270005D1920005D1920005D1920005D19200026
:100280005D1920005D1920005D19200080B582B045
:1002900000AF82220021344804F0AEFF00F0B4F831
:1002A000324801F0EDFA324801F064F8314801F0CB
:1002B0006FF801F0C7F8102001F09EF801F0C8F8BF
:1002C00001F014FB034603F58063184601F0E6FADB
:1002D00001F014FB244B00221A7001E000F0E8F852
:1002E000214B1B78002BF9D0102001F085F801F08C
:1002F000AFF800F0C5FD1C4B93F881300133DAB242
:10030000194B83F88120184B7F2283F88020164BED
:1003100093F88120144B5A700123FB7107E0FB799D
:10032000114A1344FA795A70FB790133FB710E4B71
:1003300093F88030FA799A42F1D30B4B93F88030DE
:100340009BB219460C4801F097F801F0D1F801F082
:10035000DFF8054B93F88130642BBBD1024B0022B0
:1003600083F88120B6E700BFB04A00207D0320005B
:10037000B1032000D5032000B14A002080B500AFB2
:10038000094B1B780133DAB2074B1A70074B012275
:100390001A7001F0ABFA034603F58063184601F0CA
:1003A0007DFA00BF80BD00BF344B0020B04A002062
:1003B00080B582B000AF7860054B5B780133DAB26C
:1003C000034B5A7000F078FD00BF0837BD4680BD72
:1003D000344B002080B582B000AF7860054B9B782D
:1003E0000133DAB2034B9A7000F06EFD00BF08379C
:1003F000BD4680BD344B002080B500AFFFF746FFFF
:100400000346184680BD00BF80B500AF00F09EF8DF
:1004100000F0B8F800F014F800F054F800F010FD07
:1004200000F0C6FA00F0F0F801F016FA01F0D0FA88
:1004300000F002FF00F0BAFB00F098F900BF80BDA9
:1004400080B500AF1021094802F0D4FA082107480E
:1004500002F0D0FA00221021044802F09FFA08228C
:100460000821024802F09AFA00BF80BD00C00D408A
:1004700080B500AF00221021044802F08FFA082254
:100480000821024802F08AFA00BF80BD00C00D407A
:1004900080B500AF00220821044802F07FFA102244
:1004A0001021024802F07AFA00BF80BD00C00D4062
:1004B00080B500AF002004F083FA04F0AFF800BF6D
:1004C00080BD00BF80B500AF3221054802F0F2FCCC
:1004D0004FF6FF71024802F0BFFC00BF80BD00BFB5
:1004E0000020034080B582B000AFFF21054802F034
:1004F0006DFE03465B097B607B6818460837BD4686
:1005000080BD00BF0020034080B584B000AF78609C
:10051000FF210A4802F05AFE03465B09FB607A6835
:10052000FB68D31ABB60BB68002B01DD002300E031
:10053000012318461037BD4680BD00BF0020034090
:1005400080B500AF04F062F800BF80BD80B500AF99
:10055000FF21084802F038FAFF21074802F034FA78
:10056000FF21064802F030FAFF21054802F02CFA7C
:1005700000BF80BD00900D4000A00D4000B00D40B8
:1005800000C00D4080B582B000AF03F069F90346AA
:10059000FB71002240211A4802F078F800228021E5
:1005A000174802F073F801224021154803F0B6FC09
:1005B00001228021124803F0B1FC00220021012019
:1005C00003F000FF002003F0ADFF00BF0D4B1B68E0
:1005D00003F40023002BF9D000F030F800F05EF8AF
:1005E00000F08CF800F0BAF8FB7983F00103DBB27D
:1005F000002B01D003F028F900BF0837BD4680BDAD
:1006000000C00D4004200D4080B500AF20210A48F5
:1006100002F0DAF900222021074802F09FF80820B2
:1006200002F0F6FB2021044802F06EF92021024876
:1006300002F024F900BF80BD00C00D4080B500AFBE
:10064000002004F009F9012004F006F9032004F069
:1006500003F94FF4807004F0FFF840F2011004F049
:10066000FBF840F2012004F0F7F84FF4407004F07A
:10067000F3F84FF4806004F0EFF840F2014004F02A
:10068000EBF8022004F0C4F84FF4007004F0C0F856
:100690004FF4A06004F0BCF800BF80BD80B500AF8F
:1006A000002004F021F9012004F01EF9032004F0D9
:1006B0001BF94FF4807004F017F940F2011004F0B8
:1006C00013F940F2012004F00FF94FF4407004F0E8
:1006D0000BF94FF4806004F007F940F2014004F098
:1006E00003F9022004F0DCF84FF4007004F0D8F8AD
:1006F0004FF4A06004F0D4F800BF80BD80B500AF17
:10070000002004F039F9012004F036F9022004F049
:1007100033F9032004F030F94FF4807004F02CF921
:1007200040F2011004F028F94FF4007004F024F9AD
:1007300040F2012004F020F94FF4407004F01CF95D
:100740004FF4806004F018F940F2014004F014F90D
:100750004FF4A06004F010F900BF80BD80B500AF79
:10076000202002F055FB00BF80BD00BF80B500AF68
:1007700040F2014004F006F840F2014004F048F86D
:100780000023184680BD00BFF0B58FB008AFF860F9
:100790007A603B600B46FB723B681B78002B14BFF2
:1007A00001230023FB7507F116031946B86B00F00F
:1007B000D7F80346002B41D13B681B789BB2FA7AED
:1007C00092B2B97D3868007804467868204497F87A
:1007D0003C60FD7D0024069497F834400594049015
:1007E00003910292FA68019200937B683A6B31465A
:1007F000284601F08DFB0346002B1FD100BF01F0FE
:100800009BFC0346002BF9D03B681B7899B23B68F0
:100810001B781A467B681A4497F83C30184601F05A
:10082000AFFC0346002B09D13B681A7897F83C309F
:100830001344DAB23B681A70002300E00123184623
:100840001C37BD46F0BD00BFB0B592B008AFF86030
:100850007A603B600B46FB723B681B781A4697F840
:100860004430D31A002BCCBF0123002387F8273054
:1008700007F126031946386C00F072F80346002B86
:100880003DD13B681B789BB2FA7A92B297F826105A
:1008900097F8445097F827400020069097F83C00BE
:1008A000059007F11400049003910292FA680192F6
:1008B00000937B68BA6B2946204601F0EBFC0346A7
:1008C000002B1CD100BF01F0F3FD0346002BF9D033
:1008D0003B681B789AB207F1140397F844007968D3
:1008E00001F0EEFD0346002B09D13B681A7897F81A
:1008F0004430D31ADAB23B681A70002300E00123B7
:1009000018462837BD46B0BD80B586B002AF7860C6
:10091000396007F10F031946386800F021F80346E3
:10092000002B17D1FA7B00230093012379687868A4
:1009300001F0FCF90346002B0CD100BF01F07AFA5C
:100940000346002BF9D001F099FA0346002B01D1A0
:10095000002300E0012318461037BD4680BD00BFCC
:1009600090B583B000AF78603960102279680F4885
:1009700004F010FC0346002B10D00C4A7B68144690
:10098000186859689A68DB680FC40021074801F0AD
:100990000DF90346002B01D0012303E03B68002240
:1009A0001A70002318460C37BD4690BD8C420020BB
:1009B00080B500AF80210E4802F01CF808210D48D8
:1009C00002F018F80F210C4802F014F800228021E0
:1009D000074801F0E3FF00220821064801F0DEFF8E
:1009E00000220F21044801F0D9FF00BF80BD00BFE5
:1009F00000900D4000B00D4000A00D4080B500AF4C
:100A00008021024800F0B6F800BF80BD00900D4084
:100A100080B500AF00228021024801F0BFFF00BF77
:100A200080BD00BF00900D4080B500AF80228021C6
:100A3000024801F0B3FF00BF80BD00BF00900D4031
:100A400080B500AF0821024800F094F800BF80BDD7
:100A500000A00D4080B500AF00220821024801F03F
:100A60009DFF00BF80BD00BF00A00D4080B500AF5E
:100A700008220821024801F091FF00BF80BD00BF9D
:100A800000A00D4080B500AF0421024800F072F8CC
:100A900000BF80BD00A00D4080B500AF0022042142
:100AA000024801F07BFF00BF80BD00BF00A00D40E9
:100AB00080B500AF04220421024801F06FFF00BF9F
:100AC00080BD00BF00A00D4080B400AF00BFBD4698
:100AD00080BC704780B400AF00BFBD4680BC70478B
:100AE00080B400AF00BFBD4680BC704780B500AF8A
:100AF0000821024800F03EF800BF80BD00B00D4064
:100B000080B500AF00220821024801F047FF00BF76
:100B100080BD00BF00B00D4080B500AF08220821A5
:100B2000024801F03BFF00BF80BD00BF00B00D4098
:100B300080B500AF0121024800F01CF800BF80BD65
:100B400000A00D4080B500AF00220121024801F055
:100B500025FF00BF80BD00BF00A00D4080B500AFE5
:100B600001220121024801F019FF00BF80BD00BF32
:100B700000A00D4080B584B000AF78600B46FB70DC
:100B8000FB781946786801F0F7FEF860FB68DA43F5
:100B9000FB781340FB60FB68DAB2FB781946786893
:100BA00001F0FCFE00BF1037BD4680BD80B582B0AD
:100BB00000AF4FF4407003F02BFE4FF4407003F091
:100BC0006FFE4FF4407003F0D7FE4FF4407003F017
:100BD000D9FD2021154801F023FF154A2021134893
:100BE00003F0C2F80C222021104803F059F810211C
:100BF0000E4801F015FF0F4A10210C4803F0B4F81D
:100C00000B221021094803F04BF80123FB7103F07C
:100C100037FC0246FB791946104602F0F7FB02F05A
:100C200035FC00BF0837BD4680BD00BF00A00D40A9
:100C300030410D402C410D4080B584B000AF0346DB
:100C40003960FB71144BFB60FB790121184602F0FF
:100C500053FD072002F08AFDFFF744FC0246FB68C3
:100C60001344FB6007E0F868FFF74EFC0346002BD7
:100C700001D000230BE002F055FD0346002BF2D11A
:100C800002F0B0FD0346DAB23B681A700123184641
:100C90001037BD4680BD00BF801A060090B587B0F2
:100CA00000AF0346B9607A60FB731D4B7B61FB7B31
:100CB0000121184602F020FD0B2002F057FDFFF73E
:100CC00011FC02467B6913447B6121E07869FFF7E0
:100CD0001BFC0346002B01D07B681DE002F022FDC7
:100CE0000346002BF2D1BC68631CBB6002F07AFDA6
:100CF0000346DBB223707B68013B7B607B68012B82
:100D000003D1052002F032FD02E0092002F02EFDA1
:100D10007B68002BE2D17B6818461C37BD4690BD2E
:100D2000801A060080B584B000AF03460A46FB7106
:100D30001346BB71134BFB60FB790021184602F090
:100D4000DBFCBB79184602F03DFD072002F00EFDEA
:100D5000FFF7C8FB0246FB681344FB6007E0F86836
:100D6000FFF7D2FB0346002B01D0002305E002F081
:100D7000D9FC0346002BF2D1012318461037BD469B
:100D800080BD00BF801A060080B586B000AF034664
:100D9000B9607A60FB73294B7B61FB7B00211846AD
:100DA00002F0AAFCBB685A1CBA601B78184602F015
:100DB00009FD7B68013B7B60032002F0D7FCFFF755
:100DC00091FB02467B6913447B6107E07869FFF77A
:100DD0009BFB0346002B01D07B682BE002F0A2FCBA
:100DE0000346002BF2D121E0BB685A1CBA601B7885
:100DF000184602F0E7FC7B68012B03D1052002F0C6
:100E0000B5FC0BE0012002F0B1FC07E07869FFF7C8
:100E10007BFB0346002B01D07B680BE002F082FCD9
:100E20000346002BF2D17B68013B7B607B68002B83
:100E3000DAD17B6818461837BD4680BD801A060097
:100E400080B500AFF021054801F0D4FDF022F0217B
:100E5000024801F0A3FD00BF80BD00BF00B00D40FF
:100E600080B500AF102000F0A5F900BF80BD00BF25
:100E700080B500AF102000F0AFF900BF80BD00BF0B
:100E800080B500AF102000F0B9F900BF80BD00BFF1
:100E900080B582B000AF1021064801F06DFD78608A
:100EA0007B681B11DBB203F00103DBB21846083785
:100EB000BD4680BD00B00D4080B500AF802000F081
:100EC00079F900BF80BD00BF80B500AF802000F081
:100ED00083F900BF80BD00BF80B500AF802000F067
:100EE0008DF900BF80BD00BF80B582B000AF80210A
:100EF000064801F041FD78607B685B11DBB203F0CE
:100F00000403DBB218460837BD4680BD00B00D4073
:100F100080B500AF202000F04DF900BF80BD00BFBC
:100F200080B500AF202000F057F900BF80BD00BFA2
:100F300080B500AF202000F061F900BF80BD00BF88
:100F400080B582B000AF2021044801F015FD786023
:100F5000002318460837BD4680BD00BF00B00D40D5
:100F600080B500AF402000F025F900BF80BD00BF74
:100F700080B500AF402000F02FF900BF80BD00BF5A
:100F800080B500AF402000F039F900BF80BD00BF40
:100F900080B582B000AF4021064801F0EDFC7860DA
:100FA0007B689B11DBB203F00103DBB21846083704
:100FB000BD4680BD00B00D4080B500AFF02000F010
:100FC000F9F800BF80BD00BF80B500AFF02000F091
:100FD00003F900BF80BD00BF80B500AFF02000F076
:100FE0000DF900BF80BD00BF80B582B000AFF0201A
:100FF00000F0F2F80023FB711FE0102000F0FEF873
:101000004FF6FF73BB8004E0BB889BB2013B9BB2F1
:10101000BB80BB889BB2002BF6D14FF6FF73BB8021
:1010200004E0BB889BB2013B9BB2BB80BB889BB2F8
:10103000002BF6D1FB790133FB71FB794F2BDCD907
:1010400000BF0837BD4680BD80B582B000AFF0203C
:1010500000F0C2F80023FB714EE0102000F0AAF867
:101060004FF6FF73BB8007E0102000F0B5F8BB8897
:101070009BB2013B9BB2BB80BB889BB2002BF3D1E0
:10108000202000F097F84FF6FF73BB8004E0BB8888
:101090009BB2013B9BB2BB80BB889BB2002BF6D1BD
:1010A000202000F099F8402000F084F84FF6FF73FC
:1010B000BB8004E0BB889BB2013B9BB2BB80BB887A
:1010C0009BB2002BF6D1402000F086F8802000F083
:1010D00071F84FF6FF73BB8004E0BB889BB2013B05
:1010E0009BB2BB80BB889BB2002BF6D1F02000F0F6
:1010F00073F8FB790133FB71FB79092BADD900BF84
:101100000837BD4680BD00BF80B582B000AFF0207B
:1011100000F062F80023FB7145E0102000F04AF86F
:101120004FF6FF73BB8004E0BB889BB2013B9BB2D0
:10113000BB80BB889BB2002BF6D1202000F03AF890
:101140004FF6FF73BB8004E0BB889BB2013B9BB2B0
:10115000BB80BB889BB2002BF6D1402000F02AF860
:101160004FF6FF73BB8004E0BB889BB2013B9BB290
:10117000BB80BB889BB2002BF6D1802000F01AF810
:101180004FF6FF73BB8004E0BB889BB2013B9BB270
:10119000BB80BB889BB2002BF6D1F02000F01CF87E
:1011A000FB790133FB71FB79092BB6D900BF0837F6
:1011B000BD4680BD80B582B000AF0346FB71FB79B0
:1011C00000221946034801F0E9FB00BF0837BD467D
:1011D00080BD00BF00B00D4080B582B000AF0346B7
:1011E000FB71FA79FB791946034801F0D7FB00BF80
:1011F0000837BD4680BD00BF00B00D4080B584B04B
:1012000000AF0346FB71FB7919460A4801F0B4FBB5
:10121000F860FB68DA43FB791340FB60FB68DAB2E5
:10122000FB791946034801F0B9FB00BF1037BD46F2
:1012300080BD00BF00B00D4080B500AF0C22002182
:10124000354803F0D9FF344B00221A72334BED229C
:101250001A60324BED221A60304BEE221A602F4B8F
:10126000EE221A6000F03EFA00F020FA2C4B142215
:101270001A602C4B3F221A602B4B55221A602B4BC5
:1012800085221A602A4B01221A602A4B15221A6005
:10129000294B10221A60294B0E221A60284B032278
:1012A0001A60284BF8221A60274B09221A60214B3A
:1012B00015221A6004230B221A60244BFF221A60A5
:1012C000234B40221A60234A224B1B6823F0010360
:1012D0001360214B00221A60204B7F221A60204BA2
:1012E000D5221A601F4B0B221A601F499D2002F065
:1012F000C3FA1E499E2002F0BFFA9D2002F088FB2F
:101300001B4B7F221A609E2002F082FB024B0122BF
:101310001A7200BF80BD00BF384B002038880840DB
:10132000A4860840AC860840B0860840A0860840E5
:10133000B8860840C8860840D4860840D886084049
:10134000DC86084058860840E887084094870840B3
:1013500024860840008608400886084050860840D9
:10136000408608403C86084035172000251820009C
:101370009486084080B483B000AF7860034A7B68ED
:10138000136000BF0C37BD4680BC7047384B00204F
:1013900080B483B000AF7860034A7B68536000BFBD
:1013A0000C37BD4680BC7047384B002080B500AF7D
:1013B00000BF0E4B1B6803F00203002BF9D10C4B4E
:1013C000ED221A600A4BED221A60094BEE221A60D8
:1013D000074BEE221A60074B1B68002B02D0044B10
:1013E000EF221A60FFF728FF00BF80BD4C8608403F
:1013F000388808402C86084080B582B000AF03468C
:10140000FB710E4B02221A7200F06CF9FB790A2B69
:1014100002D9FB791A2B00D9FEE70949FB79A3F120
:101420000B0213469B0013440B330B60034B032248
:101430001A7200BF0837BD4680BD00BF384B002080
:101440003C86084080B400AF00BFBD4680BC7047FA
:1014500080B500AF074B0D221A7200F043F9FFF779
:1014600071FBFFF75DFD00F021F9024B01221A72BA
:1014700000BF80BD384B002080B485B000AF7860DD
:101480000B467B800023FB73154B04221A7200BFAE
:10149000144B1B6803F00203002BF9D1124BEE2210
:1014A0001A60114BEE221A60104A7B8813600023E9
:1014B000FB7308E00D49FB7B7A6813441B780B60D3
:1014C000FB7B0133FB73FB7B9BB27A889A42F1D89A
:1014D000034B05221A7200BF1437BD4680BC70470B
:1014E000384B00204C86084038880840288808403F
:1014F00080B500AF054B06221A72FFF72FFBFFF7EE
:1015000007FD024B07221A7200BF80BD384B002036
:1015100080B582B000AF0F4B08221A7200F0B0F80D
:1015200000BF0D4B1B6803F00203002BF9D10B4BDE
:10153000E9221A6000237B6002E07B6801337B6054
:10154000054B1B6803F00203002BF6D000BF0837E1
:10155000BD4680BD384B00204C8608403888084086
:1015600080B500AF054B09221A72FFF7F7FAFFF7B3
:10157000CFFC024B0A221A7200BF80BD384B0020FC
:1015800080B500AF094BED221A60084BED221A60BE
:1015900000F076F8054BE3221A6000BF044B1B688D
:1015A00003F00103002BF9D000BF80BD388808404C
:1015B0004C86084080B487B000AFF860B9603B60EB
:1015C0001346FB710023BB752B4B1B68BB75BB7DA2
:1015D0005BB2002B06DA294BED221A60274BED2275
:1015E0001A6044E0BB7D042B06D8244BED221A6020
:1015F000224BED221A603AE0BA7DFB799A4206D975
:101600001E4BED221A601D4BED221A602FE00023C5
:10161000FB7509E0FB7DFA681344174A1268D2B2E1
:101620001A70FB7D0133FB75FA7DBB7D023B9A424C
:10163000F0DB114B1B68DBB2493BDBB2DAB23B6833
:101640001A700D4B1B687B757B7D03F08003002BAC
:1016500014BF01230023DAB27B6A1A70BB68BA7D1B
:101660001A70064BED221A60044BED221A601C37EB
:10167000BD4680BC704700BF2888084038880840B5
:1016800080B400AF074A074B1B6843F007031360A1
:10169000054A054B1B6843F00203136000BFBD46BB
:1016A00080BC70478C8608409086084080B400AFAC
:1016B000044B00221A60044B00221A6000BFBD4692
:1016C00080BC70478C8608409086084080B400AF8C
:1016D000034BE3221A6000BFBD4680BC704700BFC9
:1016E0003888084080B400AF00BF0A4B1B6803F085
:1016F0000203002BF9D1084B1B68002B06D0074BC7
:10170000EF221A60064B6FF044021A6000BFBD461C
:1017100080BC70474C8608402C86084038880840BA
:101720003488084080B400AF00231846BD4680BC12
:10173000704700BF80B582B000AFFFF7EDF900F051
:10174000D5F803463B60344B1B68FB71334B1B6879
:10175000BB719D2002F02EFA2F4B00221A602F4BF6
:1017600000221A60FB7903F00203002B0FD02C4BF0
:101770000B221A722A4B1B68002B07D0284B1B68C0
:101780003A6810469847FFF7BBF942E0FEE7FB795D
:1017900003F04003002B0FD0214B0C221A72204B78
:1017A0005B68002B07D01E4B5B683A681046984771
:1017B000FFF7A6F92DE0FEE7FB7903F00403002B09
:1017C0000FD0174B0C221A72154B5B68002B07D0F9
:1017D000134B5B683A6810469847FFF791F918E099
:1017E000FEE7BB7903F00203002B0FD00C4B0C2259
:1017F0001A720B4B5B68002B07D0094B5B683A6889
:1018000010469847FFF77CF903E0FEE7FFF778F909
:1018100000BF0837BD4680BD348808403088084086
:10182000384B002080B483B000AF0A4B1B68FB71BB
:10183000084B1A68FB79134003F00203002B03D016
:10184000044B6FF002021A6000BF0C37BD4680BC2B
:10185000704700BF9486084080B500AF0422002185
:10186000054803F0C9FC0549A12002F005F8A120B4
:1018700002F018F900BF80BD444B00201D19200064
:1018800080B483B000AF7860034A7B68136000BF08
:101890000C37BD4680BC7047444B002080B582B0F9
:1018A00000AF7860A12002F0B3F802F0CFFC02464E
:1018B0007B68D31A0C4A934203D8A12002F03CF96A
:1018C0000DE002F0C3FC02467B689B1A092B03D88B
:1018D000A12002F031F902E0786802F0F9FC00BFC3
:1018E0000837BD4680BD00BFFEFFFF0080B500AFDA
:1018F00002F0ACFC0346184680BD00BF80B500AFC7
:10190000A12002F085F800BF80BD00BF80B500AF08
:10191000A12002F0C7F800BF80BD00BF80B500AFB6
:10192000FFF7FAF8074B1B68002B07D0A12002F045
:1019300041F9044B1B689847FFF7E2F8FFF7E0F81E
:1019400000BF80BD444B002080B500AF00F00AF816
:10195000FEE700BF80B400AFFEE700BF80B400AF79
:10196000FEE700BF80B582B000AF114BFF221A60C6
:10197000104B114A1A60114B7B60114B3B6007E022
:101980003B681A1D3A607A68111D796012681A6006
:101990003B680C4A9342F3D30B480C494FF00002CA
:1019A0008842B8BF40F8042BFADBFEF725FDFEE7BE
:1019B000B4200D4008ED00E000002000B4562000E7
:1019C000004000208C4200208C420020504B002020
:1019D00080B500AF082200211E4803F00DFC1E4810
:1019E00003F00AF941F6FF711B4803F09FFA012149
:1019F000194803F019FB00220221184802F050F99F
:101A00000221164801F064F8154A0121134802F03A
:101A1000ABF90121114801F045F802F09DFD0146A6
:101A200060234FF4E1320C4803F04EF80A4803F00B
:101A3000C5F8094803F018F91021074803F05AF9CE
:101A40000849054803F02CFA152001F0E1FF00BF1A
:101A500080BD00BF484B002000C0004000900D40FA
:101A600000410D401D1B200080B483B000AF7860A2
:101A70003960054A7B681360034A3B68536000BFC6
:101A80000C37BD4680BC7047484B002080B500AF86
:101A90007021024803F036FA00BF80BD00C000404C
:101AA00080B500AF7021024803F040FA00BF80BD4E
:101AB00000C0004080B500AF5021024803F060FA3A
:101AC00000BF80BD00C0004080B500AF20210248AB
:101AD00003F056FA00BF80BD00C0004080B582B060
:101AE00000AF0346FB71FB791946034803F090F9F8
:101AF00000BF0837BD4680BD00C0004080B582B041
:101B000000AF054803F058F978607B68DBB21846EF
:101B10000837BD4680BD00BF00C0004080B582B020
:101B200000AFFEF7F9FF01210F4803F013FA7860C8
:101B3000152002F03FF87B6803F02003002B01D052
:101B400000F014F87B6803F01003002B04D17B68CD
:101B500003F04003002B01D000F018F8FEF7D0FF8F
:101B600000BF0837BD4680BD00C0004080B500AF53
:101B7000FFF7AAFF044B1B68002B02D0024B1B6827
:101B800098470023184680BD484B002080B500AF21
:101B9000FFF790FF044B5B68002B02D0024B5B68A1
:101BA00098470023184680BD484B002080B584B07C
:101BB00000AF78600B46FB704F4BBB604F4B012270
:101BC0001A700023FB730AE0FB7BBA681344FA7BAC
:101BD00079680A4412781A70FB7B0133FB73FB7B34
:101BE0000F2BF1D99F2001F05DFF454A444B1B6844
:101BF00043F001031360434A424B1B6843F0030365
:101C00001360414A404B1B6823F0010313603E4AB6
:101C10003D4B1B6843F0010313603C4A3B4B1B6880
:101C200043F0030313603A4A394B1B6803F0030384
:101C30001360374A364B1B6843F001031360354A83
:101C4000FB78012101FA03F31360334A324B1B681E
:101C500043F001031360314ABB681360304B10221C
:101C60001A6000BF2F4B1B6803F00103002BF8D054
:101C70002C4B1B68002B07DA244A244B1B6843F0CB
:101C800000431360032333E0264B1B6803F08043BB
:101C9000002B07D01D4A1D4B1B6843F08043136087
:101CA000022325E0194A194B1B6843F00303136014
:101CB000154B00221A601C4B1B6803F00703012B15
:101CC00004D00E4B00221A70022311E00023FB7394
:101CD00007E0FB7BBA68134400221A70FB7B0133D8
:101CE000FB73FB7B0F2BF4D9044B00221A700023EB
:101CF00018461037BD4680BDA04A00209C4A0020EF
:101D000080B7084084B7084000B7084088B708404B
:101D100008B4084000B4084000B0084004B00840CF
:101D20000CB0084090B7084004B4084080B584B0B7
:101D300000AFF860B96011461A460B46FB711346B6
:101D4000BB712C4B02221A702B4B01221A602B4BB9
:101D500001221A603B7E002B05D09F2001F02AFF54
:101D60009F2001F055FE264B02221A60254A254B82
:101D70001B6843F003031360234AFB79136000BF21
:101D8000214B1B68002BFADB204B1B6803F0005330
:101D9000002B07D01B4A1B4B1B6843F000531360FA
:101DA000012322E0BB79002B03D0194B0C221A60CF
:101DB00002E0174B08221A60164B10221A60164BCD
:101DC00000221A60154B01221A60154AFB68136045
:101DD000144B10221A60144B01221A60134ABB687C
:101DE0001360134B10221A60002318461037BD46AB
:101DF00080BD00BF9C4A002080B7084084B70840DF
:101E000000B7084088B708400CB4084090B70840B5
:101E100050B5084054B5084058B5084000B00840D7
:101E200004B008400CB0084020B0084024B008407E
:101E30002CB0084080B400AF0F4B1B78DBB203F02E
:101E40000103002B0FD10C4B1B780B4B1B78DBB223
:101E500003F08043002B06D1074B1B78DBB203F065
:101E60000053002B01D0012300E00023DBB2184611
:101E7000BD4680BC704700BF90B7084080B500AF3A
:101E80001E4B1B68002B07DA1D4A1D4B1B6843F0D5
:101E90000043136003232EE0184B1B6803F08043BC
:101EA000002B07D0164A164B1B6843F08043136083
:101EB000022320E0114B1B6803F00053002B07D0D6
:101EC0000F4A0F4B1B6843F000531360012312E0CD
:101ED0009F2001F0E7FD0A4A094B1B6843F003030A
:101EE0001360084B00221A60074B00221A60074B50
:101EF00000221A700023184680BD00BF90B708402A
:101F000088B7084000B7084050B508409C4A0020F8
:101F100080B58AB000AFBA607B600346FB730B46A6
:101F2000BB73704B03221A709F2001F0BBFD6E4BF8
:101F300001221A606D4B03221A606D4B02221A6057
:101F40006C4A6C4B1B6843F0030313606A4A97F8B2
:101F50003C30136000BF684B1B68002BFADB674BFB
:101F60001B6803F00053002B07D0624A614B1B68CB
:101F700043F0005313600123AFE097F84430013B76
:101F8000DBB23B74002387F8233011E097F823304D
:101F9000013397F82320B9680A44127807F1280121
:101FA0000B4403F8182C97F82330013387F82330BB
:101FB00097F823300C2BE9D997F84430032B01D143
:101FC00000237B770023BB770023FB774C4A07F184
:101FD00010031B6813604B4A7B6913604A4ABB6954
:101FE00013604A4AFB69136097F84430013BDB04F5
:101FF0007B62BB7B012B07D9BB7B023B5B109B0544
:102000001A467B6A13437B627B6A43F480237B62BC
:102010007B6A43F008037B627B6A43F004037B62C4
:102020007B6A43F040037B627B6A43F000537B6230
:102030007B6A43F4C0737B62354A7B6A1360354A1E
:102040003B8E1360344B00221A60344A3B8F13607E
:102050003B8F002B1BD0324B01221A60314A7B6B25
:102060001360314A3B8F136000BF244B1B6803F0A1
:102070000203002BF8D0214B1B68002B07DA1D4A06
:102080001C4B1B6843F000431360032325E0194BEE
:1020900003221A6097F84830002B05D09F2001F0EA
:1020A00089FD9F2001F0B4FC104B01221A60FB7BDC
:1020B000002B11D01A4B01221A601A4A7B68136058
:1020C000194A3B8E1360194B01221A60184A7B682B
:1020D0001360184A3B8E1360002318462837BD460C
:1020E00080BD00BF9C4A002080B7084084B70840EC
:1020F00000B7084088B708400CB4084090B70840C3
:1021000040B5084044B5084048B508404CB50840C3
:1021100050B5084054B5084058B508405CB5084073
:1021200000B0084004B008400CB0084020B008409F
:1021300024B008402CB0084080B400AF0F4B1B788F
:10214000DBB203F00103002B0FD10C4B1B780B4BC0
:102150001B78DBB203F08043002B06D1074B1B78C2
:10216000DBB203F00053002B01D0012300E0002379
:10217000DBB21846BD4680BC704700BF90B7084030
:1021800080B588B000AF03463A60FB710B46BB8058
:10219000374B1B68002B07DA364A364B1B6843F077
:1021A0000043136003235EE0314B1B6803F0804360
:1021B000002B07D02F4A2F4B1B6843F0804313603E
:1021C000022350E02A4B1B6803F00053002B07D07A
:1021D000284A284B1B6843F000531360012342E058
:1021E0009F2001F05FFC244B00221A6000BF234BAC
:1021F0001B6803F08043002BF8D007F10C03204A42
:1022000012681A6007F10C0304331E4A12681A6040
:1022100007F10C0308331C4A12681A6007F10C031B
:102220000C331A4A12681A60124A124B1B6843F0A8
:10223000030313600023FB770DE0FB7F3A68134430
:10224000FA7F07F120010A4412F8142CD2B21A7056
:10225000FB7F0133FB77FA7FFB799A42EDD30C4B7E
:1022600000221A70002318462037BD4680BD00BFEB
:1022700090B7084088B7084000B7084050B50840FC
:1022800070B5084074B5084078B508407CB5084082
:102290009C4A002080B58AB000AFBA607B600346DC
:1022A000FB730B46BB73BB7B9BB23A8ED31A3B844A
:1022B0006A4B03221A706A4B01221A60694B03228F
:1022C0001A60694B02221A60684B03221A60684A3E
:1022D00097F83C30136000BF654B1B68002BFADB9E
:1022E000644B1B6803F00053002B07D05F4A5F4B21
:1022F0001B6843F0005313600123ABE097F84430B0
:10230000013BDBB23B74002387F8233011E097F8E0
:102310002330013397F82320B9680A44127807F173
:1023200028010B4403F8182C97F82330013387F861
:10233000233097F823300C2BE9D997F84430032B3E
:1023400001D100237B770023BB770023FB774A4A28
:1023500007F110031B681360484A7B691360484A01
:10236000BB691360474AFB69136097F84430013B2F
:10237000DB047B62BB7B012B07D9BB7B023B5B1081
:102380009B051A467B6A13437B627B6A43F4802376
:102390007B627B6A43F008037B627B6A43F0400305
:1023A0007B627B6A43F000537B627B6A43F4C073B9
:1023B0007B62354A7B6A1360344A3B8C1360344B32
:1023C00000221A60334A3B8F13603B8F002B1BD0D7
:1023D000314B01221A60314A7B6B1360304A3B8FCC
:1023E000136000BF234B1B6803F00203002BF8D0DF
:1023F000204B1B68002B07DA1C4A1C4B1B6843F060
:1024000000431360032325E0184B03221A6097F85A
:102410004830002B05D09F2001F0CCFB9F2001F01D
:10242000F7FA104B01221A60FB7B002B11D01A4BDC
:1024300001221A60194A7B681360194A3B8C1360A9
:10244000184B01221A60184A7B681360174A3B8CAC
:102450001360002318462837BD4680BD9C4A0020E3
:1024600080B7084084B7084000B7084088B70840E4
:102470000CB4084090B7084040B5084044B5084047
:1024800048B508404CB5084050B5084054B5084020
:1024900058B508405CB5084000B0084004B008409A
:1024A0000CB0084020B0084024B008402CB00840D0
:1024B00080B500AFFFF740FE0346184680BD00BF61
:1024C00080B58AB000AFB9607B600346FB731346EA
:1024D000BB81FB7B9BB2BA89D31ABB84494B1B6877
:1024E000002B07DA484A484B1B6843F0004313604F
:1024F000032383E0434B1B6803F08043002B07D08A
:10250000414A414B1B6843F080431360022375E04E
:102510003C4B1B6803F00053002B07D03A4A3A4B60
:102520001B6843F000531360012367E09F2001F014
:10253000B9FA364B00221A6000BF354B1B6803F016
:102540008043002BF8D007F11403324A12681A6056
:1025500007F114030433304A12681A6007F11403B8
:1025600008332E4A12681A6007F114030C332C4A00
:1025700012681A60244A244B1B6843F0030313605B
:10258000002387F8273011E097F827307A68134442
:1025900097F8272007F128010A4412F8142CD2B228
:1025A0001A7097F82730013387F8273097F82720DB
:1025B000FB7B9A42E8D3002387F8263015E097F892
:1025C00026307A6813441A78B98C97F826300B4471
:1025D0001946BB680B441B789A4201D004230DE0D6
:1025E00097F82630013387F8263097F82620FB7BB2
:1025F0009A42E4D30B4B00221A7000231846283766
:10260000BD4680BD90B7084088B7084000B7084075
:1026100050B5084070B5084074B5084078B508401A
:102620007CB508409C4A002080B485B000AF78603B
:102630007B68124A934210D0104A934203D8104A42
:10264000934207D012E00F4A934209D00E4A9342B8
:1026500009D00BE01023FB600AE01123FB6007E0C8
:102660001223FB6004E01323FB6001E0002300E081
:10267000FB6818461437BD4680BC704700A00D406B
:1026800000900D4000B00D4000C00D4080B485B0FA
:1026900000AFF8600B467A60FB72FB6803F580635D
:1026A00019467B6803F00103002B06D0FB6803F595
:1026B00080631A68FB7A134306E0FB6803F58063C6
:1026C0001B68FA7AD24313400B60FB6803F58463FE
:1026D00019467B6803F00203002B06D0FB6803F564
:1026E00084631A68FB7A134306E0FB6803F584638E
:1026F0001B68FA7AD24313400B6000BF1437BD4603
:1027000080BC704780B485B000AF78600B46FB702A
:10271000FB78012202FA03F3FB707B6803F5806308
:102720001B68FB607B6803F584631B68BB60FA78F9
:10273000FB681340002B14BF01230023DBB21946B2
:10274000FA78BB681340002B01D0022300E000237D
:102750000B4318461437BD4680BC704780B485B023
:1027600000AFF8600B467A60FB72FB6803F581638B
:1027700019467B6803F00103002B06D0FB6803F5C4
:1027800081631A68FB7A134306E0FB6803F58163F3
:102790001B68FA7AD24313400B60FB6803F20443D0
:1027A00019467B6803F00203002B06D0FB6803F296
:1027B00004431A68FB7A134306E0FB6803F2044300
:1027C0001B68FA7AD24313400B60FB6803F20C4398
:1027D00019467B6803F00403002B06D0FB6803F264
:1027E0000C431A68FB7A134306E0FB6803F20C43C0
:1027F0001B68FA7AD24313400B6000BF1437BD4602
:1028000080BC704780B487B000AF78600B46FB7027
:10281000FB78012202FA03F3FB707B6803F5816306
:102820001B687B617B6803F204431B683B617B6828
:1028300003F20C431B68FB60FA787B691340002BA2
:1028400014BF01230023DBB21946FA783B69134019
:10285000002B01D0022300E0002341EA0302F978B3
:10286000FB680B40002B01D0042300E0002313433E
:1028700018461C37BD4680BC704700BF80B483B08B
:1028800000AF78600B46FB707B6803F582631946E6
:102890007B6803F582631A68FB7813430B6000BF03
:1028A0000C37BD4680BC704780B483B000AF786001
:1028B0000B46FB707B6803F5826319467B6803F562
:1028C00082631B68FA78D24313400B6000BF0C3759
:1028D000BD4680BC704700BF80B483B000AF786055
:1028E0000B46FB70FB78002B04D07B6803F58363F9
:1028F0001B6803E07B6803F214431B6818460C371F
:10290000BD4680BC704700BF80B483B000AF786024
:102910000B46FB707B6803F21C431A46FB7813607E
:1029200000BF0C37BD4680BC704700BF80B582B089
:1029300000AF786039607868FFF776FE78603968B4
:10294000786800F099FF786801F062F800BF0837F6
:10295000BD4680BD80B582B000AF78607868FFF773
:1029600063FE7860786801F09DF8786800F0B6FF43
:1029700000BF0837BD4680BD80B483B000AF78602B
:102980000B46FB70FB789B001A467B6813441B6860
:1029900018460C37BD4680BC704700BF80B483B07A
:1029A00000AF78600B46FB701346BB70FB789B0052
:1029B0001A467B6813441A46BB78136000BF0C3775
:1029C000BD4680BC704700BF80B582B000AF786064
:1029D0000B46FB70FB78002219467868FFF756FE1D
:1029E000FB7800221946786801F098FA00BF083792
:1029F000BD4680BD80B582B000AF78600B46FB70ED
:102A0000FB78012219467868FFF740FEFB78002228
:102A10001946786801F082FA00BF0837BD4680BDCC
:102A200080B582B000AF78600B46FB70FB78022265
:102A300019467868FFF72AFEFB7800221946786865
:102A400001F06CFA00BF0837BD4680BD80B582B08A
:102A500000AF78600B46FB70FB780222194678685D
:102A6000FFF714FEFB7800221946786801F056FA49
:102A700000BF0837BD4680BD80B582B000AF78602A
:102A80000B46FB70FB78022219467868FFF7FEFDC3
:102A9000FB7800221946786801F040FA00BF083739
:102AA000BD4680BD80B582B000AF78600B46FB703C
:102AB000FB78022219467868FFF7E8FDFB780022D0
:102AC0001946786801F02AFA00BF0837BD4680BD74
:102AD00080B582B000AF78600B46FB70FB780222B5
:102AE00019467868FFF7D2FDFB7808221946786806
:102AF00001F014FA00BF0837BD4680BD80B487B02E
:102B000000AFF8600B467A60FB7200237B61FB68C4
:102B10001D4A934201D100237B61FB681B4A93420B
:102B200001D108237B61FB68194A934201D110232C
:102B30007B61FB68174A934201D118237B61FA7AC3
:102B40007B6902FA03F33B617B68012B0BD1FB68C5
:102B500003F204731946FB6803F204731A683B69B5
:102B600013430B600BE0FB6803F204731946FB6828
:102B700003F204731A683B69DB4313400B6000BF28
:102B80001C37BD4680BC704700900D4000A00D4032
:102B900000B00D4000C00D4080B485B000AF78603B
:102BA0000B46FB700023FB607B68174A934201D100
:102BB0000023FB607B68154A934201D10823FB6028
:102BC0007B68134A934201D11023FB607B68114A52
:102BD000934201D11823FB60FA78FB681344012269
:102BE00002FA03F3BB607B6803F204731A68BB68E4
:102BF0001340002B01D0012300E0002318461437B6
:102C0000BD4680BC704700BF00900D4000A00D4045
:102C100000B00D4000C00D4080B485B000AF7860BA
:102C20000B46FB700023FB607B68164A934201D180
:102C30000023FB607B68144A934201D10823FB60A8
:102C40007B68124A934201D11023FB607B68104AD3
:102C5000934201D11823FB60FA78FB6802FA03F370
:102C6000BB607B6803F5E26319467B6803F5E263AA
:102C70001A68BB6813430B6000BF1437BD4680BCA5
:102C8000704700BF00900D4000A00D4000B00D4007
:102C900000C00D4080B485B000AF78600B46FB707B
:102CA0000023FB607B68164A934201D10023FB603E
:102CB0007B68144A934201D10823FB607B68124A67
:102CC000934201D11023FB607B68104A934201D1EB
:102CD0001823FB60FA78FB6802FA03F3BB607B6899
:102CE00003F5E26319467B6803F5E2631A68BB6883
:102CF000DB4313400B6000BF1437BD4680BC7047F8
:102D000000900D4000A00D4000B00D4000C00D40EF
:102D100080B485B000AF78600B46FB700023FB6089
:102D20007B68184A934201D10023FB607B68164AF6
:102D3000934201D10823FB607B68144A934201D17E
:102D40001023FB607B68124A934201D11823FB6079
:102D5000FB78002B08D07B6803F5E3631A68FB68F7
:102D600022FA03F3DBB207E07B6803F5E4631A6839
:102D7000FB6822FA03F3DBB218461437BD4680BC69
:102D8000704700BF00900D4000A00D4000B00D4006
:102D900000C00D4080B485B000AF78600B46FB707A
:102DA0000023FB607B68164A934201D10023FB603D
:102DB0007B68144A934201D10823FB607B68124A66
:102DC000934201D11023FB607B68104A934201D1EA
:102DD0001823FB60FA78FB6802FA03F3BB607B6898
:102DE00003F5E36319467B6803F5E3631A68BB6880
:102DF00013430B6000BF1437BD4680BC704700BF53
:102E000000900D4000A00D4000B00D4000C00D40EE
:102E100080B483B000AF78600549054B1A687B68C1
:102E200013430B6000BF0C37BD4680BC704700BF2A
:102E300094200D4080B483B000AF78600549054B05
:102E40001A687B68DB4313400B6000BF0C37BD463C
:102E500080BC704794200D4080B483B000AF786090
:102E600039607B680C3318467B680C331A68396804
:102E700040F201130B401343036000BF0C37BD4603
:102E800080BC704780B483B000AF786039607B68E5
:102E90000C3318467B680C331A68396840F201130A
:102EA0000B40DB431340036000BF0C37BD4680BCC2
:102EB000704700BF80B483B000AF786039607B6832
:102EC0000C331A467B680C331B6823F4807323F0A1
:102ED000010313607B683A68120E1A607B68043342
:102EE0001A463B68DBB243F4007313607B68083317
:102EF0001A463B681B0ADBB243F40073136000BF41
:102F00000C37BD4680BC704780B485B000AFF86018
:102F1000B9601346FB71BA6844F240031340BB60CA
:102F2000FB680C331946FB79002B05D0FB680C338A
:102F30001A68BB68134305E0FB680C331A68BB686A
:102F4000DB4313400B6000BF1437BD4680BC7047A5
:102F500080B485B000AFF860B9601346FB71BA6801
:102F600042F220031340BB60FB680C331946FB7927
:102F7000002B05D0FB680C331A68BB68134305E0CF
:102F8000FB680C331A68BB68DB4313400B6000BF5F
:102F90001437BD4680BC704780B485B000AFF86080
:102FA000B9607A60BA6840F60C431340BB60FB68B6
:102FB0000C331846FB680C331A68BB68DB431A40B5
:102FC0007968BB680B401343036000BF1437BD46EC
:102FD00080BC704780B485B000AFF860B96013461C
:102FE000FB71BA6840F202231340BB60FB680C33EC
:102FF0001946FB79002B05D0FB680C331A68BB68B7
:10300000134305E0FB680C331A68BB68DB431340CD
:103010000B6000BF1437BD4680BC704780B485B0DC
:1030200000AFF860B9601346FB71BB68DBB2002BE0
:1030300015D0FB79002B09D0FB6804331A46FB68D6
:1030400004331B6843F04003136008E0FB6804335B
:103050001A46FB6804331B6823F040031360BB6807
:1030600003F47F43002B15D0FB79002B09D0FB68BC
:1030700008331A46FB6808331B6843F040031360AB
:1030800008E0FB6808331A46FB6808331B6823F026
:103090004003136000BF1437BD4680BC704700BFBB
:1030A00080B485B000AFF860B9607A60BB68DBB20D
:1030B000002B04D0FB6838331A467B681360BB686A
:1030C00003F47F43002B04D0FB683C331A467B6833
:1030D000136000BF1437BD4680BC704780B483B016
:1030E00000AF786039603B68FF2B03D17B683833D1
:1030F0001B6802E07B683C331B6818460C37BD46F2
:1031000080BC704780B485B000AFF860B9607A6069
:10311000BB68DBB2002B04D0FB6840331A467B68E7
:103120001360BB6803F47F43002B04D0FB68443377
:103130001A467B68136000BF1437BD4680BC7047D9
:1031400080B483B000AF786039603B68FF2B03D157
:103150007B6840331B6802E07B6844331B68184679
:103160000C37BD4680BC704780B485B000AFF860B6
:10317000B9607A60BB68DBB2002B04D0FB682833EF
:103180001A467B681360BB6803F47F43002B04D0AE
:10319000FB682C331A467B68136000BF1437BD46AA
:1031A00080BC704780B483B000AF786039603B6802
:1031B000FF2B03D17B6828331B6802E07B682C332C
:1031C0001B6818460C37BD4680BC704780B483B07E
:1031D00000AF786039603B68FF2B03D17B684833D0
:1031E0001B6802E07B684C331B6818460C37BD46F1
:1031F00080BC704780B485B000AFF860B9607A6079
:10320000BB68DBB2002B04D0FB6830331A467B6806
:103210001360BB6803F47F43002B04D0FB68343396
:103220001A467B68136000BF1437BD4680BC7047E8
:1032300080B483B000AF786039603B68FF2B03D166
:103240007B6830331B6802E07B6834331B681846A8
:103250000C37BD4680BC704780B584B000AFF860C5
:10326000B9607A60FB68194A93420DD0FB68184A2E
:10327000934207D0FB68174A934201D1272304E009
:10328000332302E0252300E02323FB60BB68DBB28D
:10329000002B06D07968F86800F0EEFAF86800F0C4
:1032A000B7FBBB6803F47F43002B0AD0FB680133F4
:1032B0007968184600F0E0FAFB680133184600F020
:1032C000A7FB00BF1037BD4680BD00BF0000034014
:1032D000001003400020034080B582B000AF78604A
:1032E00039607B68174A93420DD07B68164A934237
:1032F00007D07B68154A934201D1272304E033238A
:1033000002E0252300E023237B603B68DBB2002B37
:1033100005D0786800F0C6FB786800F0DFFA3B68FB
:1033200003F47F43002B09D07B680133184600F07B
:10333000B9FB7B680133184600F0D0FA00BF0837AC
:10334000BD4680BD00000340001003400020034044
:1033500080B483B000AF786039607B681833194659
:103360007B6818331A683B6813430B6000BF0C3747
:10337000BD4680BC704700BF80B483B000AF7860AA
:1033800039607B68183319467B6818331A683B68C4
:10339000DB4313400B6000BF0C37BD4680BC704759
:1033A00080B483B000AF78600B46FB70FB78002BD5
:1033B00003D07B6820331B6802E07B681C331B68EA
:1033C00018460C37BD4680BC704700BF80B483B040
:1033D00000AF786039607B6824331A463B6813601D
:1033E00000BF0C37BD4680BC704700BF80B483B0BF
:1033F00000AF786039607B6810331A463B68136011
:1034000000BF0C37BD4680BC704700BF80B584B09C
:1034100000AF78600B46FB7000F038F8FB78002BAB
:1034200002D00F4BFB6001E00E4BFB60FA681346C5
:103430009B0013449B001A467B681344591EFA688C
:1034400013469B0013449B00B1FBF3F3013BBB60AD
:10345000054ABB68136000BF1037BD4680BD00BF82
:10346000801A0600A08601000C00024080B582B0E0
:1034700000AF0346FB7100F017F8034AFB791360B5
:1034800000BF0837BD4680BD0008024080B400AFD1
:10349000044A044B1B6843F01003136000BFBD4691
:1034A00080BC70472000024080B400AF064A064B43
:1034B0001B6843F020031360044B01221A6000BF15
:1034C000BD4680BC704700BF200002400408024097
:1034D00080B400AF044A044B1B6823F01003136050
:1034E00000BFBD4680BC70472000024080B400AFE2
:1034F000064B00221A60064A054B1B6823F0200386
:10350000136000BFBD4680BC704700BF0408024086
:103510002000024080B582B000AF78607968182042
:1035200000F0AAF9182000F073FA00BF0837BD4672
:1035300080BD00BF80B500AF182000F0B3FA18209E
:1035400000F0CCF900BF80BD80B400AF034B012276
:103550001A6000BFBD4680BC704700BF100002402B
:1035600080B400AF044A044B1B6843F001031360AE
:1035700000BFBD4680BC70470C08024080B483B0D9
:1035800000AF78600549054B1A687B6813430B60F0
:1035900000BF0C37BD4680BC704700BF0C0802401E
:1035A00080B400AF034B00221A6000BFBD4680BC50
:1035B000704700BF1000024080B400AF044A044BC3
:1035C0001B6823F00103136000BFBD4680BC704739
:1035D0000C08024080B483B000AF78600549054B09
:1035E0001A687B68DB4313400B6000BF0C37BD4695
:1035F00080BC70470C08024080B483B000AF034623
:10360000FB71FB79002B07D0094B1B68002B14BF03
:1036100001230023DBB206E0064B1B68002B14BF1E
:1036200001230023DBB218460C37BD4680BC70472F
:10363000180002401400024080B483B000AF03467B
:10364000FB71FB79002B07D0094B1B68002B14BFC3
:1036500001230023DBB206E0064B1B68002B14BFDE
:1036600001230023DBB218460C37BD4680BC7047EF
:10367000140802401008024080B483B000AF034633
:10368000FB71FB79002B02D0044B1B6801E0044B5B
:103690001B6818460C37BD4680BC704714080240B2
:1036A0001008024080B400AF044B01221A60044BA2
:1036B00001221A6000BFBD4680BC70471C0002405A
:1036C0001800024080B400AF034B01221A6000BF13
:1036D000BD4680BC704700BF1808024080B483B06C
:1036E00000AF7860034A7B68136000BF0C37BD46AB
:1036F00080BC70471808024080B483B000AF034616
:103700000A46FB711346BB710549FB795A00BB7928
:1037100013430B6000BF0C37BD4680BC704700BF31
:103720000000024080B400AF064B1B6803F00103A9
:10373000002B01D0012300E000231846BD4680BCC9
:10374000704700BF0400024080B400AF064B1B6806
:1037500003F04003002B01D0012300E000231846B2
:10376000BD4680BC704700BF0400024080B483B0F7
:1037700000AF7860034A7B68136000BF0C37BD461A
:1037800080BC70470400024080B483B000AF0C4B93
:103790001B687B607B6803F00103002B01D00023D2
:1037A00009E07B6803F01203002B03D07B6803F071
:1037B0001C0300E0002318460C37BD4680BC704750
:1037C0000400024080B483B000AF0346FB71044A9A
:1037D000FB79136000BF0C37BD4680BC704700BF4B
:1037E0000800024080B400AF024B1B681846BD467B
:1037F00080BC70470800024080B400AF024B1B68D9
:103800001846BD4680BC70470408024080B483B0AF
:1038100000AF0346FB71044AFB79136000BF0C370D
:10382000BD4680BC704700BF0808024080B400AFAE
:10383000024B1B681846BD4680BC70470808024012
:1038400080B400AFFEE700BF80B500AF01F084FC9C
:103850000346002B14BF01230023DBB2184680BDB2
:1038600080B500AF01F06AFC0346002B14BF0123B2
:103870000023DBB2184680BD80B485B000AF78600D
:103880003960144B1B68144A934218D0114B1B68C3
:10389000BB600023FB600CE0FB689A00BB6813442C
:1038A0001B6819460C4AFB6842F82310FB68013379
:1038B000FB60FB68A22BEFD9064B074A1A6006494A
:1038C0007B683A6841F8232000BF1437BD4680BCAE
:1038D000704700BF08ED00E00040002080B483B0D6
:1038E00000AF7860044A7B68044942F8231000BFA7
:1038F0000C37BD4680BC7047004000204138200096
:1039000080B483B000AF7860074A08497B6851F8FB
:10391000233043F0BF6343F40033136000BF0C3720
:10392000BD4680BC704700BF0CED00E02C54200069
:1039300080B483B000AF0E4B1B6803F4E0633B60C0
:1039400000237B6009E00B4A7B6852F823203B6828
:103950009A4206D07B6801337B607B68072BF2D9E3
:1039600000E000BF7B6818460C37BD4680BC70473E
:103970000CED00E02C54200080B485B000AF7860DE
:103980000B46FB707B689B08144A52F823301B6877
:10399000FB607B6803F00303DB00FF2202FA03F302
:1039A000DB431A46FB681340FB60FA787B6803F040
:1039B0000303DB0002FA03F31A46FB681343FB60C0
:1039C0007B689B08054A52F823301A46FB6813604F
:1039D00000BF1437BD4680BC704700BF4C54200068
:1039E00080B483B000AF78607B689B08074A52F8C8
:1039F00023301A687B6803F00303DB0022FA03F329
:103A0000DBB218460C37BD4680BC70474C542000D2
:103A100080B483B000AF78607B68042B06D11E4A67
:103A20001D4B1B6843F4803313602FE07B68052B2C
:103A300006D1194A184B1B6843F40033136025E084
:103A40007B68062B06D1144A134B1B6843F4802372
:103A500013601BE07B680F2B06D1104A0F4B1B68CD
:103A600043F00203136011E07B680F2B0ED97B68D3
:103A7000103B5B090A4A52F8233019467B68103B19
:103A800003F01F03012202FA03F30B6000BF0C379F
:103A9000BD4680BC704700BF24ED00E010E000E0B0
:103AA000F054200080B483B000AF78607B68042BB2
:103AB00006D11E4A1D4B1B6823F4803313602FE090
:103AC0007B68052B06D1194A184B1B6823F4003379
:103AD000136025E07B68062B06D1144A134B1B6844
:103AE00023F4802313601BE07B680F2B06D1104A60
:103AF0000F4B1B6823F00203136011E07B680F2B50
:103B00000ED97B68103B5B090A4A52F823301946EC
:103B10007B68103B03F01F03012202FA03F30B60E2
:103B200000BF0C37BD4680BC704700BF24ED00E0ED
:103B300010E000E00455200080B483B000AF78604E
:103B40007B68022B06D1194A184B1B6843F00043CF
:103B5000136025E07B680E2B06D1144A134B1B68BB
:103B600043F0805313601BE07B680F2B06D10F4A94
:103B70000E4B1B6843F08063136011E07B680F2BD2
:103B80000ED97B68103B5B09094A52F8233019466D
:103B90007B68103B03F01F03012202FA03F30B6062
:103BA00000BF0C37BD4680BC704700BF04ED00E08D
:103BB0001855200080B483B000AF78607B680E2B6E
:103BC00006D1144A134B1B6843F0006313601BE0DB
:103BD0007B680F2B06D10F4A0E4B1B6843F0007316
:103BE000136011E07B680F2B0ED97B68103B5B09DB
:103BF000094A52F8233019467B68103B03F01F0333
:103C0000012202FA03F30B6000BF0C37BD4680BCF3
:103C1000704700BF04ED00E02C55200080B582B055
:103C200000AF7860786801F0ABFA00BF0837BD4696
:103C300080BD00BF80B500AF01F0A6FA034618466C
:103C400080BD00BF80B400AF044A044B1B6843F042
:103C50000103136000BFBD4680BC704798200D4033
:103C600080B400AF044A044B1B6823F001031360C7
:103C700000BFBD4680BC704798200D4080B400AFA7
:103C8000064B1B6803F00103002B01D0012300E069
:103C900000231846BD4680BC704700BF98200D40E9
:103CA00080B489B000AFF8600B467A60FB72254B98
:103CB000FB610023BB613CE0FA7ABB6942FA03F383
:103CC00003F001037B617B69002B2FD0FB681E4A48
:103CD000934213D01C4A934203D81C4A934207D004
:103CE0001EE01B4A93420FD01A4A934212D017E0AB
:103CF000194ABB6952F82330FB6114E0174ABB69CB
:103D000052F82330FB610EE0154ABB6952F82330AC
:103D1000FB6108E0134ABB6952F82330FB6102E003
:103D2000084BFB6100BFFB697A681A60BB6901330D
:103D3000BB61BB69072BBFD900BF2437BD4680BC20
:103D4000704700BF00400D4000A00D4000900D40A6
:103D500000B00D4000C00D40C0552000E0552000CF
:103D6000005620002056200080B487B000AFF860D5
:103D70000B467A60FB7200237B61FB68634A9342C7
:103D800037D0624A934203D8614A934207D0ABE0EE
:103D9000604A934256D0604A93427CD0A4E0FB7ABA
:103DA000012B01D100237B61FB7A022B01D101237E
:103DB0007B61FB7A042B01D102237B61FB7A082B08
:103DC00001D103237B61FB7A102B01D104237B619A
:103DD000FB7A202B01D105237B61FB7A402B01D19B
:103DE00006237B61FB7A802B40F0818007237B6177
:103DF0007DE0FB7A012B01D108237B61FB7A022B4A
:103E000001D109237B61FB7A042B01D10A237B6159
:103E1000FB7A082B01D10B237B61FB7A102B01D19C
:103E20000C237B61FB7A202B01D10D237B61FB7A74
:103E3000402B01D10E237B61FB7A802B59D10F23BC
:103E40007B6156E0FB7A012B01D110237B61FB7A69
:103E5000022B01D111237B61FB7A042B01D11223A8
:103E60007B61FB7A082B01D113237B61FB7A102B3A
:103E700001D114237B61FB7A202B01D115237B61B7
:103E8000FB7A402B01D116237B61FB7A802B32D148
:103E900017237B612FE0FB7A012B01D118237B6173
:103EA000FB7A022B01D119237B61FB7A042B01D110
:103EB0001A237B61FB7A082B01D11B237B61FB7AE0
:103EC000102B01D11C237B61FB7A202B01D11D23F8
:103ED0007B61FB7A402B01D11E237B61FB7A802B17
:103EE0000BD11F237B6108E000237B6106E000BF4C
:103EF00004E000BF02E000BF00E000BF7B687A6919
:103F00001A6000BF1C37BD4680BC704700A00D4042
:103F100000900D4000B00D4000C00D4080B489B04D
:103F200000AFF8600B467A60FB72254BFB61002303
:103F3000BB613CE0FA7ABB6942FA03F303F0010388
:103F40007B617B69002B2FD0FB681E4A934213D004
:103F50001C4A934203D81C4A934207D01EE01B4AD6
:103F600093420FD01A4A934212D017E0194ABB6904
:103F700052F82330FB6114E0174ABB6952F8233032
:103F8000FB610EE0154ABB6952F82330FB6108E083
:103F9000134ABB6952F82330FB6102E0114BFB610D
:103FA00000BFFB697A681A60BB690133BB61BB69FA
:103FB000072BBFD900BF2437BD4680BC704700BF68
:103FC00000400D4000A00D4000900D4000B00D409D
:103FD00000C00D4040552000605520008055200055
:103FE000A055200080400D4080B485B000AF7860BF
:103FF0000B46FB70644BFB607B68644A934237D08E
:10400000624A934203D8624A934207D0ABE0614AC6
:10401000934256D0604A93427CD0A4E0FB78012BB7
:1040200001D1594BFB60FB78022B01D15B4BFB604C
:10403000FB78042B01D15A4BFB60FB78082B01D194
:10404000584BFB60FB78102B01D1574BFB60FB7882
:10405000202B01D1554BFB60FB78402B01D1544BF9
:10406000FB60FB78802B40F08180524BFB607DE051
:10407000FB78012B01D1504BFB60FB78022B01D167
:104080004E4BFB60FB78042B01D14D4BFB60FB7862
:10409000082B01D14B4BFB60FB78102B01D14A4B15
:1040A000FB60FB78202B01D1484BFB60FB78402B59
:1040B00001D1474BFB60FB78802B59D1454BFB600E
:1040C00056E0FB78012B01D1434BFB60FB78022BC0
:1040D00001D1424BFB60FB78042B01D1404BFB60CC
:1040E000FB78082B01D13F4BFB60FB78102B01D1F3
:1040F0003D4BFB60FB78202B01D13C4BFB60FB78F8
:10410000402B01D13A4BFB60FB78802B32D1394BED
:10411000FB602FE0FB78012B01D1374BFB60FB7874
:10412000022B01D1354BFB60FB78042B01D1344BC2
:10413000FB60FB78082B01D1324BFB60FB78102B26
:1041400001D1314BFB60FB78202B01D12F4BFB6061
:10415000FB78402B01D12E4BFB60FB78802B0BD1E1
:104160002C4BFB6008E0084BFB6006E000BF04E05E
:1041700000BF02E000BF00E000BFFB681B681846FC
:104180001437BD4680BC704780400D4000A00D40F4
:1041900000900D4000B00D4000C00D4084400D4027
:1041A00088400D408C400D4090400D4094400D40A3
:1041B00098400D409C400D40A0400D40A4400D4053
:1041C000A8400D40AC400D40B0400D40B4400D4003
:1041D000B8400D40BC400D40C0400D40C4400D40B3
:1041E000C8400D40CC400D40D0400D40D4400D4063
:1041F000D8400D40DC400D40E0400D40E4400D4013
:10420000E8400D40EC400D40F0400D40F4400D40C2
:10421000F8400D40FC400D4080B582B000AF7860A2
:104220007968A120FFF728FBA120FFF7F1FB00BF71
:104230000837BD4680BD00BF80B500AFA120FFF7A5
:1042400031FCA120FFF74AFB00BF80BD80B483B0E2
:1042500000AF0D4B1B687B600C4B1B681B027A6820
:1042600013437B600A4B1B681B047A6813437B6013
:10427000084B1B681B067A6813437B607B681846F3
:104280000C37BD4680BC704740500D4044500D4037
:1042900048500D404C500D4080B485B000AF786060
:1042A00039600A4B1B68FB60FB6823F03F03FB602F
:1042B0007A683B681343FA681343FB60034AFB6860
:1042C000136000BF1437BD4680BC704754500D408A
:1042D00080B483B000AF786000BF0E4B1B6803F062
:1042E0000103002BF9D00C4A7B681B0E13600B4AAC
:1042F0007B681B0CDBB21360094A7B681B0ADBB2CC
:104300001360084A7B68DBB2136000BF0C37BD4600
:1043100080BC704750500D404C500D4048500D40EF
:1043200044500D4040500D4080B483B000AF0D4B61
:104330001B687B600C4B1B681B027A6813437B6015
:104340000A4B1B681B047A6813437B60084B1B688D
:104350001B067A6813437B607B6818460C37BD46A2
:1043600080BC70475C500D4060500D4064500D4063
:1043700068500D4080B483B000AF074B1B6803F05A
:104380000103002B14BF01230023FB71FB791846A6
:104390000C37BD4680BC704758500D4080B483B088
:1043A00000AF074B1B687B607B6823F001037B60D9
:1043B000034A7B68136000BF0C37BD4680BC704762
:1043C00058500D4080B586B000AF03463A60FB718F
:1043D0000B46BB71BB7983F00103DBB2002B07D026
:1043E000244B1B6843F400133B61224A3B69136072
:1043F000204B1B683B613A691F4B13403B61FB79C3
:1044000083F00103DBB2002B03D03B6943F08073E0
:104410003B61BB79002B02D04FF4803300E00023D6
:10442000BB603A69BB6813433B613A693B6813431D
:104430003B61104A3B691360104B1B687B61002392
:10444000FB6008E0102000F0DBF80C4B1B687B6180
:10445000FB680133FB607B6903F48032BB689A42DE
:1044600004D0FB684FF6FE729342EBD900BF1837B9
:10447000BD4680BD00200D40F8FFFEFE04200D402B
:1044800080B485B000AF1E4B1B68BB60BB6803F0F7
:1044900007037B600023FB607B68072B2AD801A2FF
:1044A00052F823F0C5442000CB442000D144200022
:1044B000D7442000DD442000E3442000E9442000EC
:1044C000EF4420000F4BFB6014E00F4BFB6011E04A
:1044D0000E4BFB600EE00E4BFB600BE00D4BFB60E8
:1044E00008E00D4BFB6005E00C4BFB6002E00C4B61
:1044F000FB6000BFFB6818461437BD4680BC7047A0
:1045000004200D400048E8010024F40000127A0065
:1045100000093D0080841E0040420F0020A10700DA
:1045200090D0030080B485B000AF7860094B1B6861
:10453000FB60FB6823F4E063FB607B681B02FA68A6
:104540001343FB60034AFB68136000BF1437BD468A
:1045500080BC704700200D4080B485B000AF1F4B79
:104560001B68BB60BB681B0A03F007037B6000236A
:10457000FB607B68072B2BD801A252F823F000BF09
:10458000A1452000A7452000AD452000B3452000EF
:10459000B9452000BF452000C5452000CB4520007F
:1045A0000F4BFB6014E00F4BFB6011E00E4BFB6008
:1045B0000EE00E4BFB600BE00D4BFB6008E00D4B7B
:1045C000FB6005E00C4BFB6002E00C4BFB6000BFA6
:1045D000FB6818461437BD4680BC704704200D4068
:1045E0000048E8010024F40000127A0000093D00B0
:1045F00080841E0040420F0020A1070090D00300DD
:1046000001387FF4FDAF704700BF00BF80B400AF3A
:10461000014B08221A60FEE774200D4080B500AF00
:1046200000F0A2FD00BF80BD80B582B000AF334B6B
:104630001B687B607B6803F00703002B0CBF012322
:104640000023FB707B6803F4E063002B0CBF0123A5
:104650000023BB70FB78002B02D1BB78002B18D055
:10466000274B1B687B60FB78002B01D0012300E007
:1046700000237A6813437B60BB78002B02D04FF491
:10468000807300E000237A6813437B601C4A7B68D8
:1046900013601C4A1B4B1B6843F00403136000F0BB
:1046A00063FD184A174B1B6823F004031360FB7863
:1046B000002B02D1BB78002B1BD0114B1B687B60F9
:1046C000FB78002B02D06FF0070301E04FF0FF33BF
:1046D0007A6813407B60BB78002B02D06FF4E063F4
:1046E00001E04FF0FF337A6813407B60044A7B6837
:1046F000136000BF0837BD4680BD00BF04200D40D9
:1047000000200D4010ED00E080B485B000AF78606F
:104710007B681B0A03F00F03042B0BD07B681B0A7A
:1047200003F00F03042B05D07B681B0A03F00F0373
:10473000052B03D1104B1B68FB6002E00F4B1B687D
:10474000FB607B681B0A03F00F030D4A52F823201D
:104750007B6803F00F0302FA03F3BB60FA68BB68DF
:104760001340002B01D0012300E00023184614372A
:10477000BD4680BC704700BF1C300D4018300D4056
:104780009C56200080B485B000AF78607B681B0A1F
:1047900003F00F031D4A52F8233018467B681B0AAA
:1047A00003F00F03194A52F823301B687A6802F0AD
:1047B0000F02012101FA02F2134303600023FB60A0
:1047C00002E0FB680133FB60FB680F2BF9D97B68C3
:1047D0001B0A03F00F030D4A52F8233018467B687A
:1047E0001B0A03F00F03094A52F823301B687A684A
:1047F00002F00F02012101FA02F2D24313400360DA
:1048000000BF1437BD4680BC704700BF88562000EB
:1048100080B483B000AF78607B681B0A03F00F039D
:104820000C4A52F8233018467B681B0A03F00F032A
:10483000084A52F823301B687A6802F00F020121FF
:1048400001FA02F21343036000BF0C37BD4680BC7F
:10485000704700BF4056200080B483B000AF78603E
:104860007B681B0A03F00F030C4A52F823301846EA
:104870007B681B0A03F00F03084A52F823301B68B9
:104880007A6802F00F02012101FA02F2D2431340CA
:10489000036000BF0C37BD4680BC70474056200007
:1048A00080B483B000AF78607B681B0A03F00F030D
:1048B0000C4A52F8233018467B681B0A03F00F039A
:1048C000084A52F823301B687A6802F00F0201216F
:1048D00001FA02F21343036000BF0C37BD4680BCEF
:1048E000704700BF5856200080B483B000AF786096
:1048F0007B681B0A03F00F030C4A52F8233018465A
:104900007B681B0A03F00F03084A52F823301B6828
:104910007A6802F00F02012101FA02F2D243134039
:10492000036000BF0C37BD4680BC7047585620005E
:1049300080B483B000AF78607B681B0A03F00F037C
:104940000C4A52F8233018467B681B0A03F00F0309
:10495000084A52F823301B687A6802F00F020121DE
:1049600001FA02F21343036000BF0C37BD4680BC5E
:10497000704700BF7056200080B483B000AF7860ED
:104980007B681B0A03F00F030C4A52F823301846C9
:104990007B681B0A03F00F03084A52F823301B6898
:1049A0007A6802F00F02012101FA02F2D2431340A9
:1049B000036000BF0C37BD4680BC704770562000B6
:1049C00080B483B000AF7860034A7B68136000BF97
:1049D0000C37BD4680BC704758200D4080B483B072
:1049E00000AF064B1B687B607B6803F003037B60B2
:1049F0007B6818460C37BD4680BC704758200D4078
:104A000080B483B000AF074B1B687B607B6843F0CA
:104A100001037B60034A7B68136000BF0C37BD460F
:104A200080BC704780200D4080B483B000AF7860B8
:104A300039607B682C3319467B682C331B6823F064
:104A400086023B6813430B6000BF0C37BD4680BC39
:104A5000704700BF80B483B000AF78607B682C33B0
:104A60001B6803F0860318460C37BD4680BC7047B0
:104A700080B485B000AFF860B9607A60FB68343309
:104A80001946BA687B6813430B6000BF1437BD46F4
:104A900080BC704780B487B000AFF860B9607A60BE
:104AA000FB6834331B687B617B6903F00702BB68DA
:104AB0001A607B6903F038027B681A6000BF1C37FC
:104AC000BD4680BC704700BF80B586B000AFF860BF
:104AD000B9607A603B60F86800F08EF87B681A0174
:104AE000BB689A420CD9FB6830331A46FB683033F6
:104AF0001B6843F0200313607B685B087B6008E061
:104B0000FB6830331A46FB6830331B6823F0200300
:104B10001360BB68DA007B68B2FBF3F301335B0818
:104B20007B61FB6824331A467B699B091360FB6831
:104B300028331A467B6903F03F031360FB682C336C
:104B40001A463B681360FB6818331A46002313604B
:104B500000BF1837BD4680BD80B487B000AFF86095
:104B6000B9607A603B60FB6824331B687B61FB683B
:104B700028331B683B61BB689A007B6999013B69DC
:104B80000B44B2FBF3F27B681A60FB6830331B689E
:104B900003F02003002B04D07B681B685A007B685D
:104BA0001A60FB682C331B6803F0EE023B681A6046
:104BB00000BF1C37BD4680BC704700BF80B483B0C7
:104BC00000AF78607B682C331A467B682C331B68F7
:104BD00043F0100313607B6830331A467B68303330
:104BE0001B6843F4407343F00103136000BF0C37AC
:104BF000BD4680BC704700BF80B483B000AF786012
:104C000000BF7B6818331B6803F00803002BF8D142
:104C10007B682C331A467B682C331B6823F0100307
:104C200013607B6830331A467B6830331B6823F48B
:104C3000407323F00103136000BF0C37BD4680BCF6
:104C4000704700BF80B483B000AF78607B682C33BE
:104C50001A467B682C331B6843F01003136000BFB7
:104C60000C37BD4680BC704780B483B000AF78601D
:104C70007B682C331A467B682C331B6823F01003A7
:104C8000136000BF0C37BD4680BC704780B483B052
:104C900000AF78600B46FB70FB78002B09D07B6877
:104CA00030331A467B6830331B6843F006031360C9
:104CB00008E07B6830331A467B6830331B6843F06A
:104CC0000203136000BF0C37BD4680BC704700BFB5
:104CD00080B483B000AF78607B6830331A467B685D
:104CE00030331B6823F00603136000BF0C37BD464A
:104CF00080BC704780B483B000AF786039607B6857
:104D0000303319467B6830331B6823F010023B6850
:104D100013430B6000BF0C37BD4680BC704700BF1B
:104D200080B483B000AF78607B6830331B6803F0D9
:104D3000100318460C37BD4680BC704780B483B062
:104D400000AF78607B6818331B6803F01003002BFA
:104D50000CBF01230023DBB218460C37BD4680BCD4
:104D6000704700BF80B483B000AF78607B681833B1
:104D70001B6803F02003002B0CBF01230023DBB2D0
:104D800018460C37BD4680BC704700BF80B483B066
:104D900000AF78607B6818331B6803F01003002BAA
:104DA00002D17B681B6801E04FF0FF3318460C37D7
:104DB000BD4680BC704700BF80B483B000AF786050
:104DC00000BF7B6818331B6803F01003002BF8D179
:104DD0007B681B6818460C37BD4680BC704700BF17
:104DE00080B483B000AF78600B46FB707B681833EB
:104DF0001B6803F02003002B04D17B68FA781A604B
:104E0000012300E0002318460C37BD4680BC7047E4
:104E100080B483B000AF78600B46FB7000BF7B6846
:104E200018331B6803F02003002BF8D17B68FA7855
:104E30001A6000BF0C37BD4680BC704780B483B099
:104E400000AF78600B46FB707B682C331A46FB780A
:104E5000002B05D07B682C331B6843F0010304E072
:104E60007B682C331B6823F00103136000BF0C37F1
:104E7000BD4680BC704700BF80B483B000AF78608F
:104E80007B6818331B6803F00803002B14BF012351
:104E90000023DBB218460C37BD4680BC704700BF0C
:104EA00080B584B000AF786039607B68084A93426F
:104EB00001D1152300E01623FB603968F868FEF77E
:104EC000DBFCF868FEF7A4FD00BF1037BD4680BDCF
:104ED00000C0004080B584B000AF78607B68084AAD
:104EE000934201D1152300E01623FB60F868FEF71A
:104EF000D9FDF868FEF7F2FC00BF1037BD4680BD53
:104F000000C0004080B483B000AF786039607B6837
:104F1000383319467B6838331A683B6813430B6093
:104F200000BF0C37BD4680BC704700BF80B483B063
:104F300000AF786039607B68383319467B68383356
:104F40001A683B68DB4313400B6000BF0C37BD465B
:104F500080BC704780B483B000AF78600B46FB70B4
:104F6000FB78002B03D07B6840331B6802E07B6832
:104F70003C331B6818460C37BD4680BC704700BFE9
:104F800080B483B000AF786039607B6844331A46E0
:104F90003B68136000BF0C37BD4680BC704700BF44
:104FA00080B483B000AF786039607B6848331946BD
:104FB0007B6848331A683B6813430B6000BF0C37AB
:104FC000BD4680BC704700BF80B483B000AF78603E
:104FD00039607B68483319467B6848331A683B68F8
:104FE000DB4313400B6000BF0C37BD4680BC7047ED
:104FF00080B483B000AF78607B6804331B6803F033
:105000000F0318460C37BD4680BC704780B483B090
:1050100000AF78607B6804331A460023136000BF3A
:105020000C37BD4680BC704780B483B000AF786059
:1050300039607B6803F6C8731A463B68136000BF8B
:105040000C37BD4680BC704780B483B000AF786039
:105050007B6803F6C8731B6818460C37BD4680BCD6
:10506000704700BF80B483B000AF78607B68A43322
:105070001A467B68A4331B6843F40043136000BFE7
:105080000C37BD4680BC704780B483B000AF7860F9
:105090007B68A4331A467B68A4331B6823F400435F
:1050A000136000BF0C37BD4680BC704780B483B02E
:1050B00000AF78600B46FB701346BB707B68A4336F
:1050C0001A46FB7813607B68A8331A46BB781360D6
:1050D00000BF0C37BD4680BC704700BF80B485B0B0
:1050E00000AF78600B46FB7000BF7B6818331B680D
:1050F00003F08803802BF8D17B682C331B68FB609E
:105100007B682C331A46FB6823F0860343F0820346
:1051100013607B68FA781A6000BF7B6818331B68DD
:1051200003F08803802BF8D17B682C331A46FB6888
:10513000136000BF1437BD4680BC7047EFF310808A
:1051400072B670471C462346184600BFEFF3108026
:1051500070471C4623461846EFF3108062B670472E
:105160001C462346184600BF30BF704700BF00BF33
:1051700020BF704700BF00BF40BF704700BF00BFE7
:1051800080F31188704700BFEFF3118070471C4611
:1051900023461846032A70B426D940EA01039B0728
:1051A00011D004780D78AC4222D10244431C05E0B2
:1051B00013F8014B11F8015FAC4219D19342F7D1BA
:1051C000002070BC70470C4603461E6825681846D0
:1051D000AE42214603F1040304F10404E1D1043A90
:1051E000032A18462146F0D8002ADAD11046E8E70B
:1051F000601B70BC704700BF70B4840746D0541E5B
:10520000002A41D0CDB2034602E0621EE4B3144648
:1052100003F8015B9A07F8D1032C2ED9CDB245EAE9
:1052200005250F2C45EA054519D9264603F110023C
:10523000103E0F2E42F8105C42F80C5C42F8085CFD
:1052400042F8045C02F11002F2D8A4F1100222F03C
:105250000F0204F00F041032032C13440DD91E4624
:105260002246043A032A46F8045BFAD8221F22F0A9
:1052700003020432134404F003042CB1C9B21C44E9
:1052800003F8011BA342FBD170BC704714460346D0
:10529000C2E700BF683D7563620000006F70656E15
:1052A0006D6F74652D622D323467687A00000000DE
:1052B00043433235333800004343323533382053CB
:1052C0006F430000683D7563620000006F70656E9B
:1052D0006D6F74652D622D323467687A00000000AE
:1052E000434332353338000043433235333820539B
:1052F0006F4300004F70656E57534E200000000052
:10530000683D7563620000006F70656E6D6F746557
:105310002D622D323467687A000000004343323535
:105320003338000043433235333820536F43000095
:105330004F70656E57534E2000000000683D756346
:10534000620000006F70656E6D6F74652D622D32A6
:105350003467687A00000000434332353338000078
:1053600043433235333820536F430000683D756343
:10537000620000006F70656E6D6F74652D622D3276
:105380003467687A00000000434332353338000048
:1053900043433235333820536F430000683D756313
:1053A000620000006F70656E6D6F74652D622D3246
:1053B0003467687A00000000434332353338000018
:1053C00043433235333820536F430000683D7563E3
:1053D000620000006F70656E6D6F74652D622D3216
:1053E0003467687A000000004343323533380000E8
:1053F00043433235333820536F430000683D7563B3
:10540000620000006F70656E6D6F74652D622D32E5
:105410003467687A000000004343323533380000B7
:1054200043433235333820536F43000000070000F8
:10543000000600000005000000040000000300005A
:105440000002000000010000000000000000000059
:1054500018ED00E01CED00E020ED00E000E400E0CD
:1054600004E400E008E400E00CE400E010E400E004
:1054700014E400E018E400E01CE400E020E400E0B4
:1054800024E400E028E400E02CE400E030E400E064
:1054900034E400E038E400E03CE400E040E400E014
:1054A00044E400E048E400E04CE400E050E400E0C4
:1054B00054E400E058E400E05CE400E060E400E074
:1054C00064E400E068E400E06CE400E070E400E024
:1054D00074E400E078E400E07CE400E080E400E0D4
:1054E00084E400E088E400E08CE400E090E400E084
:1054F00000E100E004E100E008E100E00CE100E090
:1055000010E100E080E100E084E100E088E100E0FB
:105510008CE100E090E100E000E200E004E200E065
:1055200008E200E00CE200E010E200E080E200E0CF
:1055300084E200E088E200E08CE200E090E200E03B
:1055400080400D4084400D4088400D408C400D400F
:1055500090400D4094400D4098400D409C400D40BF
:10556000A0400D40A4400D40A8400D40AC400D406F
:10557000B0400D40B4400D40B8400D40BC400D401F
:10558000C0400D40C4400D40C8400D40CC400D40CF
:10559000D0400D40D4400D40D8400D40DC400D407F
:1055A000E0400D40E4400D40E8400D40EC400D402F
:1055B000F0400D40F4400D40F8400D40FC400D40DF
:1055C00000400D4004400D4008400D400C400D408F
:1055D00010400D4014400D4018400D401C400D403F
:1055E00020400D4024400D4028400D402C400D40EF
:1055F00030400D4034400D4038400D403C400D409F
:1056000040400D4044400D4048400D404C400D404E
:1056100050400D4054400D4058400D405C400D40FE
:1056200060400D4064400D4068400D406C400D40AE
:1056300070400D4074400D4078400D407C400D405E
:1056400008200D4018200D4028200D4038200D4026
:1056500048200D40A8200D400C200D401C200D407E
:105660002C200D403C200D404C200D40AC200D4026
:1056700010200D4020200D4030200D4040200D40D6
:1056800050200D40B0200D4014200D4024200D402E
:1056900034200D4044200D4054200D4001000000F6
:1056A00000010000000001000000000101000000F6
:0456B00004000000F2
:1056B40000000000000000000000000000000000E6
:1056C40000000000000000000000000000000000D6
:1056D40000000000000000000000000000000000C6
:1056E40000000000000000000000000000000000B6
:020000040027D3
:0CFFD400FFFFFFF600000000000020000E
:040000050020196559
:00000001FF
