:020000040800F2
:1000000018040020950C00088108000883080008E7
:10001000850800088708000889080008000000001B
:100020000000000000000000000000008D08000833
:100030008B080008000000008F08000891080008E5
:10004000B1080008B3080008B5080008B7080008A0
:10005000B9080008BB080008BD080008BF08000870
:10006000C1080008C3080008C5080008C708000840
:10007000C9080008CB080008CD080008CF08000810
:10008000D1080008D3080008D5080008D7080008E0
:10009000D9080008DB080008DD080008DF080008B0
:1000A000E1080008E3080008E5080008E708000880
:1000B000E90800080D0900080F09000811090008E7
:1000C0001309000815090008170900081909000894
:1000D0001B0900081D090008490900084B09000810
:1000E0004D0900084F09000851090008530900088C
:1000F0005509000857090008590900085B0900085C
:100100005D0900085F09000861090008630900082B
:100110006509000867090008690900086B090008FB
:100120006D0900086F0900087109000873090008CB
:10013000DFF89002006850F00100DFF888120860D4
:10014000DFF884020068DFF884120840DFF87812D4
:100150000860DFF870020068DFF874120840DFF80A
:1001600064120860DFF85C02006830F48020DFF879
:1001700054120860DFF85002006830F4FE00DFF827
:1001800048120860DFF84C02002101607047DFF878
:100190003412096831F48031DFF828221160DFF869
:1001A0002412096831F48021DFF818221160B0F5BB
:1001B000803F03D0B0F5802F09D011E0DFF80402B2
:1001C000006850F48030DFF8FC11086008E0DFF8C8
:1001D000F401006850F4A020DFF8E8110860FFE7A0
:1001E000704780B50020009000200021312000F0F1
:1001F000C6F801000098401C0090C9B2002903D144
:100200000098B0F5A06FF1D1312000F0B8F80028C7
:1002100001D0012000E00020C0B202BD00226A4BE4
:100220001B681A0032F47C120843024366480260DD
:1002300070476949C0B2086070470021624A12687D
:1002400011008908890001435F48016070475E48DA
:10025000006810F00C00704700215B4A1268110022
:1002600031F0F00101435848016070470021564ABF
:100270001268110031F4E061014353480160704796
:100280000021514A1268110031F4605151EAC00155
:100290004D480160704730B4002200210023002443
:1002A000494D2D6815F00C052A00002A04D0042AB7
:1002B00005D0082A06D021E04949016020E04849DC
:1002C00001601DE04049096811F47011890C891C16
:1002D0003D4A126812F48033002B03D1414A514346
:1002E00001600AE0384A1268920303D53D4A51433F
:1002F000016002E03A4A5143016001E0384901607F
:100300003149096811F0F00212090FF2E401545C5E
:100310000168E14041602C49096811F4E062120A69
:100320000FF2CC01545C4168E140816026490968C4
:1003300011F46052D20A0FF2B801545C4168E140F6
:10034000C1602149096811F44042920B0FF2B001DB
:10035000545CC168B1FBF4F1016130BC7047C9B2B3
:10036000002905D02049096808431F49086005E0B5
:100370001D49096831EA00001B490860704710B444
:10038000002200230021C0B24409E4B22200012A65
:1003900002D10C490B6806E0022A02D10F490B6812
:1003A00001E012490B68C0B210F01F02012090401A
:1003B000034201D0012100E000210800C0B210BCBE
:1003C0007047000000100240041002400000FFF8D7
:1003D000FFFFF6FE0810024060004242201002407B
:1003E00000127A0000093D0018100240241002405B
:1003F00000000000010203040102030406070809CB
:10040000020406082DE9F04385B004000D00002029
:10041000002600275FF000085FF00009A146218A4E
:1004200008004CF6FF710840E98808432082A08943
:100430004EF6F3110840A9882A8911436A891143AD
:100440000843A081A08A4FF6FF410840A9890843CC
:10045000A08200A8FFF71FFF1048814501D1039E2D
:1004600000E0029E192000FB06F029688900B0FB1D
:10047000F1F76420B7FBF0F000010109642202FBF0
:1004800011785FEA081132316422B1FBF2F111F008
:100490000F010843208105B0BDE8F083003801401A
:1004A000C9B2002904D0818951F40051818104E04E
:1004B00081894DF6FF7211408181704770B400242C
:1004C00000250026002303000800C0B24009C0B286
:1004D000040089B211F01F0005000120A8400600A9
:1004E000012C01D10C3304E0022C01D1103300E0C7
:1004F0001433D2B2002A03D018683043186002E0E7
:100500001868B043186070BC704700220088084229
:1005100001D0012200E000221000C0B2704789B271
:10052000C9430180704750F8041B61B150F8042B97
:10053000D30744BFA9F101039A18002342F8043BF2
:10054000091FFAD1EFE7704700B587B008220021F4
:10055000424800F089F801214FF48040FFF7FFFE88
:100560004FF4164002900020ADF80C000020ADF8CA
:100570000E000020ADF810000020ADF814000C2093
:10058000ADF8120002A93648FFF73CFF00F036F83C
:1005900001213348FFF784FF01210420FFF7DFFE2C
:1005A0004FF40070ADF8000003208DF80200182011
:1005B0008DF8030000A92B4800F060F84FF480602C
:1005C000ADF8000004208DF8030000A9254800F0D4
:1005D00055F84FF4A06000F0B7F825208DF804001E
:1005E00001208DF8050001208DF8060001208DF80E
:1005F000070001A800F0AFF807B000BD80B50122E8
:1006000040F226611648FFF759FF012240F22551BA
:100610001348FFF753FF40211148FFF780FF01BD4A
:1006200080B520210E48FFF77AFF01BD80B540213B
:100630000B48FFF774FF01BD80B5FFF7F7FF0748D0
:1006400000688047002002BD80B5FFF7E9FF03483E
:1006500040688047002002BD000000000800002024
:10066000003801400008014010B5040010000A00E5
:100670000100200000F0D0F8200010BDF0B40022EE
:100680000026002400250023002791F803C01CF059
:100690000F0C624691F803C05FEACC6C01D58B78F1
:1006A0001A430B781B0621D00368002406E0CD789E
:1006B000482D02D10125A5400561641C082C14D2E7
:1006C0000125A5400E882E40AE42F6D1A5000F268A
:1006D00016FA05F7BB4312FA05F52B43CD78282D02
:1006E000E5D10125A5404561E7E703600B884FF49C
:1006F0008074A34226D34368002420E0012514F12E
:100700000806B5400E882E40AE4217D1A5000F2630
:1007100016FA05F7BB4312FA05F52B43CD78282DC1
:1007200004D1012514F10806B5404561CD78482D66
:1007300004D1012514F10806B5400561641C082C9C
:10074000DCD34360F0BC7047DFF8C0100843DFF82B
:10075000B8100860704770B4002100220023002404
:100760000F25C678002E35D02749096811F4E061BD
:10077000D1F5E061090AD1F10404CD404178A140EE
:1007800082782A4011430901027812F00302D2B2A2
:10079000D200914002789210194B53F82220FF2387
:1007A000047814F00304E4B2E400A3409A4319402F
:1007B0000A4301788910124B43F82120017849112E
:1007C000134A0123007810F01F0013FA00F042F8DA
:1007D00021000AE001784911084A0123007810F04D
:1007E0001F0013FA00F042F8210070BC7047094A5C
:1007F00011400843034908607047000080E100E0B1
:1008000000E400E008ED00E00CED00E00000FA0577
:1008100000E100E080FFFF1F62F30F2262F31F423E
:10082000401810F0030308D0C91A1FD3DB0748BFD4
:1008300000F8012D28BF20F8022D130030B4144613
:100840001546103928BF20E93C00FAD8490728BFCF
:1008500020E90C0048BF40F8042D890028BF20F88B
:10086000022D48BF00F8012D30BC7047C91818BFD1
:1008700000F8012DCB0728BF00F8012D70470000BC
:100880007047FEE7FEE7FEE7FEE7704770477047F8
:1008900080B52B480078401C29490870284800780A
:1008A000012804D326480021017000F077F801BD2B
:1008B0007047704770477047704770477047704780
:1008C0007047704770477047704770477047704770
:1008D0007047704770477047704770477047704760
:1008E000704770477047704780B502215FF08040C5
:1008F00000F068F8002808D002215FF0804000F086
:100900006BF800F053F800F06BF801BD70477047CA
:1009100070477047704770477047704780B5202117
:100920000848FFF7F2FD002801D0FFF78DFE4021B7
:100930000448FFF7EAFD002801D0FFF77DFE01BD66
:100940001000002000380140704770477047704722
:1009500070477047704770477047704770477047DF
:1009600070477047704770477047704770477047CF
:100970007047704780B501211020FFF7F0FC4FF45D
:10098000E070ADF8000010208DF8030003208DF812
:10099000020000A90948FFF771FE01BD0848006880
:1009A0004FF4807148400649086070470448006869
:1009B00090F04000024908607047000000100140BC
:1009C0000C1001400022008A084201D0012200E000
:1009D00000221000C0B2704789B2C943018270473B
:1009E00080B5034800688047012002BD0000000078
:1009F0000000002080B500F014F800F007F800F0C7
:100A000057F8FFF7A1FDFFF7B5FFFEE780B500211E
:100A10005FF00060FFF7EBFE4FF4A060FFF794FE7D
:100A200001BD80B5FFF784FB5FF48030FFF7AFFBBB
:100A3000FFF7D7FBC0B2012825D1102000F05CF8E9
:100A4000022000F04DF80020FFF706FC4FF4806014
:100A5000FFF716FC4FF48060FFF708FC5FF4E0112D
:100A60005FF48030FFF7DAFB0120FFF7E2FB39206B
:100A7000FFF785FC0028FAD00220FFF7DEFBFFF726
:100A8000E6FB0828FBD101210520FFF768FC0121C6
:100A90000820FFF764FC01211020FFF760FC012112
:100AA0002020FFF75CFC01214020FFF758FC01BD2E
:100AB00080B57FF0010000F040F8002000F054F80D
:100AC0007FF0040000F026F8044800F033F801201D
:100AD00000F04AF8012000F030F801BD40548900D0
:100AE0000B49096811F03801094A11600849096881
:100AF00008430749086070470549096831F010014B
:100B0000034A1160024909680843014908607047B7
:100B100000200240042806D11C48006850F0040060
:100B20001A49086005E01948006830F004001749C8
:100B300008607047164908607047012806D11348BD
:100B4000006850F00100114908600CE010F1020F3C
:100B500006D10E480068400840000C49086002E0D9
:100B60000C48002101607047C0B2002806D0074839
:100B7000006850F002000549086005E0034800687D
:100B800030F00200014908607047000010E000E00A
:100B900014E000E018E000E030BF704720BF70476D
:100BA00040BF7047BFF36F8F7047BFF34F8F7047E1
:100BB000BFF35F8F704701DF7047EFF3148070471A
:100BC00080F31488BFF36F8F7047EFF3098070478D
:100BD00080F309887047EFF30880704780F3088836
:100BE000704762B6704772B67047EFF31080704777
:100BF00061B6704771B67047EFF31380704780F3AA
:100C000011887047EFF31280704740BA704700BAFE
:100C10007047000010B5084979441C31074C7C44EA
:100C20001A34A14206D0081D0A68511888470146A7
:100C3000A142F8D110BD00BF080000001400000060
:100C4000E7F8FFFF14000000000000200000000093
:100C500000F009F8002801D0FFF7DCFF0020FFF7C3
:100C6000C9FE00F002F80120704780B500F002B81C
:100C700000BF00000746384600F002F8FBE700001E
:100C800080B5C046C046024A11001820ABBEFBE743
:100C900026000200C046C046C046C046FFF7D8FF47
:0400000508000C954E
:00000001FF
