:020000040800F2
:1000000050040020F1130008C5110008C7110008B2
:10001000C9110008CB110008CD1100080000000034
:10002000000000000000000000000000D1110008E6
:10003000CF11000800000000D3110008D5110008FE
:10004000EF110008F1110008F3110008F511000884
:10005000F7110008F9110008FB1100080912000847
:100060000B1200080D1200080F12000811120008F0
:1000700013120008151200081712000819120008C0
:100080001B1200081D1200081F1200082112000890
:100090002312000825120008271200082912000860
:1000A0002B1200082D1200082F1200083112000830
:1000B00033120008531200085B1200085D1200089A
:1000C0005F12000861120008631200086512000840
:1000D000791200087B120008B5120008B712000858
:1000E000B9120008BB120008BD120008BF120008B8
:1000F000C1120008C3120008C5120008C712000888
:10010000C9120008CB120008CD120008CF12000857
:10011000D1120008D3120008D5120008D712000827
:10012000D9120008DB120008DD120008DF120008F7
:10013000DFF8B002006850F00100DFF8A812086094
:10014000DFF8A4020068DFF8A4120840DFF8981274
:100150000860DFF890020068DFF894120840DFF8CA
:1001600084120860DFF87C02006830F48020DFF839
:1001700074120860DFF87002006830F4FE00DFF8E7
:1001800068120860DFF86C02002101607047DFF838
:100190005412096831F48031DFF848221160DFF829
:1001A0004412096831F48021DFF838221160B0F57B
:1001B000803F03D0B0F5802F09D011E0DFF8240292
:1001C000006850F48030DFF81C12086008E0DFF8A7
:1001D0001402006850F4A020DFF808120860FFE75E
:1001E000704780B50020009000200021312000F0F1
:1001F000D6F801000098401C0090C9B2002903D134
:100200000098B0F5A06FF1D1312000F0C8F80028B7
:1002100001D0012000E00020C0B202BD0022724BDC
:100220001B681A0032F47C12084302436E480260D5
:1002300070477149C0B20860704700216A4A12686D
:1002400011008908890001436748016070476648CA
:10025000006810F00C0070470021634A126811001A
:1002600031F0F001014360480160704700215E4AAF
:100270001268110031F4E06101435B48016070478E
:100280000021594A1268110031F4605151EAC0014D
:1002900055480160704730B400220021002300243B
:1002A000514D2D6815F00C052A00002A04D0042AAF
:1002B00005D0082A06D021E05149016020E05049CC
:1002C00001601DE04849096811F47011890C891C0E
:1002D000454A126812F48033002B03D1494A514336
:1002E00001600AE0404A1268920303D5454A51432F
:1002F000016002E0424A5143016001E0404901606F
:100300003949096811F0F00212090FF20811545C22
:100310000168E14041603449096811F4E062120A61
:100320000FF2F001545C4168E14081602E49096898
:1003300011F46052D20A0FF2DC01545C4168E140D2
:10034000C1602949096811F44042920B0FF2D401AF
:10035000545CC168B1FBF4F1016130BC7047C9B2B3
:10036000002905D02849096808432749086005E0A5
:100370002549096831EA0000234908607047C9B27D
:10038000002905D02149096808432049086005E093
:100390001E49096831EA00001C490860704710B422
:1003A000002200230021C0B24409E4B22200012A45
:1003B00002D10C490B6806E0022A02D10F490B68F2
:1003C00001E013490B68C0B210F01F0201209040F9
:1003D000034201D0012100E000210800C0B210BC9E
:1003E0007047000000100240041002400000FFF8B7
:1003F000FFFFF6FE0810024060004242201002405B
:1004000000127A0000093D00181002401C10024042
:100410002410024000000000010203040102030452
:10042000060708090204060800B587B0102200215B
:10043000664800F0D2F801214FF48050FFF78FFF9B
:1004400001210420FFF78BFFA020ADF80000182049
:100450008DF8030003208DF8020000A95C4800F02D
:10046000DDF84020ADF8000004208DF803000320E3
:100470008DF8020000A9564800F0D0F81020ADF821
:10048000000010208DF8030000A9514800F0C6F8C4
:100490000020ADF804004FF48270ADF80600002093
:1004A000ADF808000020ADF80A000020ADF80C00FF
:1004B0004FF40070ADF80E001020ADF810000020D1
:1004C000ADF812000720ADF8140001A9414800F072
:1004D0003BF901213F4800F057F907B000BDF8B5DE
:1004E000069E079C089D394F3860384800270771E1
:1004F0003648417135488271344883603348067309
:10050000324844733148857330480121C1732F4804
:10051000407B012819D110212D4800F0E8F814E0A3
:100520002C4800F041F9294989680870274800687B
:10053000401C2649086025480079401C2349087161
:1005400022484079401E21494871204840790128BD
:100550002FD31E480068017889B21E4800F022F9A6
:1005600001211C4800F022F90028F9D00121194886
:1005700000F026F915488079002803D00228CFD052
:100580000BD3D3E711480079002805D1114800F0BA
:100590000BF90E4989680870C8E70E4800F004F9A5
:1005A0000A498968087009488068401C07498860C2
:1005B000BCE70648807B012803D11021044800F0E5
:1005C00093F802480021C173F1BD00001000002023
:1005D0000008014000300140FEE710B504001000A3
:1005E0000A000100200000F0EFF8200010BD10B458
:1005F00050F8041B81B102681218001D50F8043B2A
:10060000DC0744BFA9F10104E31852F8044B43F896
:10061000044B091FF9D1EBE710BC7047F0B400227E
:100620000026002400250023002791F803C01CF0B9
:100630000F0C624691F803C05FEACC6C01D58B7851
:100640001A430B781B0621D00368002406E0CD78FE
:10065000482D02D10125A5400561641C082C14D247
:100660000125A5400E882E40AE42F6D1A5000F26EA
:1006700016FA05F7BB4312FA05F52B43CD78282D62
:10068000E5D10125A5404561E7E703600B884FF4FC
:100690008074A34226D34368002420E0012514F18E
:1006A0000806B5400E882E40AE4217D1A5000F2691
:1006B00016FA05F7BB4312FA05F52B43CD78282D22
:1006C00004D1012514F10806B5404561CD78482DC7
:1006D00004D1012514F10806B5400561641C082CFD
:1006E000DCD34360F0BC704789B20161704789B2C6
:1006F0004161704710B400220F2311F00304E4B2EB
:10070000A400A3401A00C9B28B100E4C54F8233039
:1007100033EA0202C9B28B100A4C44F82320C9B252
:100720008A10084B53F82220C0B211F00303DBB249
:100730009B0098401043C9B28910024A42F8210038
:1007400010BC70470800014010B4002203881A0052
:1007500012F441520B884C8823438C882343CC8865
:1007600023430C8923434C8923438C892343CC891D
:1007700023431A430280828B4FF2FF731A40828315
:10078000098A018210BC7047C9B2002904D00188CF
:1007900051F04001018004E001884FF6BF72114022
:1007A00001807047818170478089704700220089ED
:1007B000084201D0012200E000221000C0B27047C0
:1007C00089B2C9430181704762F30F2262F31F426D
:1007D000401810F0030308D0C91A1FD3DB0748BF25
:1007E00000F8012D28BF20F8022D130030B4144664
:1007F0001546103928BF20E93C00FAD8490728BF20
:1008000020E90C0048BF40F8042D890028BF20F8DB
:10081000022D48BF00F8012D30BC7047C91818BF21
:1008200000F8012DCB0728BF00F8012D704750F8C4
:10083000041B61B150F8042BD30744BFA9F1010395
:100840009A18002342F8043B091FFAD1EFE77047DA
:1008500000B587B0082200214B48FFF7BEFE0121FA
:100860004FF48040FFF77BFD4FF4164002900020CC
:10087000ADF80C000020ADF80E000020ADF810001F
:100880000020ADF814000C20ADF8120002A93F487A
:1008900000F080F800F03AF801213C4800F0C8F878
:1008A00001210420FFF75BFD4FF40070ADF800005C
:1008B00002208DF8020018208DF8030000A93448AA
:1008C000FFF7ACFE4FF48060ADF8000002208DF819
:1008D000020004208DF8030000A92D48FFF79EFEBA
:1008E00025208DF8040003208DF8050003208DF8E5
:1008F000060001208DF8070001A800F0E5F807B018
:1009000000BD214A106020484160704780B5012237
:1009100040F226611D4800F099F8012240F225516D
:100920001A4800F093F84021184800F0C8F801BDBB
:1009300080B52021154800F0C2F801BD80B54021E6
:10094000124800F0BCF801BD80B5010089B20F4823
:1009500000F0A3F880210D4800F0A7F80028F9D096
:1009600001BD80B5094800F09CF880B202BD80B599
:10097000054800688047002002BD80B502484068F5
:100980008047002002BD00003C00002000380140EC
:10099000000801402DE9F04385B004000D0000205F
:1009A000002600275FF000085FF00009A146218AB9
:1009B00008004CF6FF710840E98808432082A089AE
:1009C0004EF6F3110840A9882A8911436A89114318
:1009D0000843A081A08A4FF6FF410840A989084337
:1009E000A08200A8FFF757FC1048814501D1039E63
:1009F00000E0029E192000FB06F029688900B0FB88
:100A0000F1F76420B7FBF0F000010109642202FB5A
:100A100011785FEA081132316422B1FBF2F111F072
:100A20000F010843208105B0BDE8F0830038014084
:100A3000C9B2002904D0818951F40051818104E0B8
:100A400081894DF6FF7211408181704770B4002496
:100A500000250026002303000800C0B24009C0B2F0
:100A6000040089B211F01F0005000120A840060013
:100A7000012C01D10C3304E0022C01D1103300E031
:100A80001433D2B2002A03D018683043186002E051
:100A90001868B043186070BC7047C905C90D8180E3
:100AA00070478088C005C00D70470022008808424A
:100AB00001D0012200E000221000C0B2704789B2CC
:100AC000C94301807047000070B400210022002358
:100AD00000240F25C678002E35D02749096811F467
:100AE000E061D1F5E061090AD1F10404CD4041781B
:100AF000A14082782A4011430901027812F00302D2
:100B0000D2B2D200914002789210194B53F82220B1
:100B1000FF23047814F00304E4B2E400A3409A43F2
:100B200019400A4301788910114B43F821200178BC
:100B30004911124A0123007810F01F0013FA00F047
:100B400042F821000AE001784911084A012300789F
:100B500010F01F0013FA00F042F8210070BC70473B
:100B6000074A1140084303490860704780E100E0EC
:100B700000E400E008ED00E00CED00E000E100E042
:100B800080FFFF1F80B500F09BF802BD00B585B067
:100B900000F053F800F08CF801211020FFF7DFFB84
:100BA0000220ADF8000010208DF8030003208DF81E
:100BB000020000A93C48FFF731FD0420ADF8000019
:100BC00010208DF8030003208DF8020000A936489C
:100BD000FFF724FD04213448FFF786FD00210220A1
:100BE000FFF788FD0120029000208DF80C000820FE
:100BF0008DF80D0001208DF80E0002A800F0A0F87D
:100C000006208DF8040002208DF8050000208DF8E4
:100C1000060001208DF8070001A8FFF755FF00F03E
:100C2000E1F8FFF715FEFFF7FFFB00F0FBF800F01F
:100C300051F900F093F905B000BD80B5FFF778FADF
:100C40005FF48030FFF7A3FAFFF7CBFA174908707B
:100C500016480078012824D1102000F01FFA022045
:100C600000F010FA0020FFF7F7FA0020FFF708FB6A
:100C70004FF48060FFF7FAFA5FF4E0115FF4803020
:100C8000FFF7CCFA0120FFF7D4FA3920FFF787FBF2
:100C90000028FAD00220FFF7D0FAFFF7D8FA082888
:100CA000FBD101BD00000000001001404900002000
:100CB00080B500215FF00060FFF752FF01BD00002A
:100CC00080B5FFF763FF012200211348FFF785FC81
:100CD00012491348FFF715FE0F48002101700E4816
:100CE00000781049405C80B2FFF72EFEFEE780B529
:100CF000FFF724FE08480078401C074908700648A2
:100D000000780D2806D2044800780649405C80B27D
:100D1000FFF71AFE01BD000044000020290D000865
:100D2000EF0C00080000002080B5FFF701FE00F086
:100D30006DF8FFF716FEC0B280B2FFF705FE01BDE9
:100D40008179002938D02249096802689143204AF4
:100D5000116020490968026891431E4A11600179B7
:100D60001B4A5158026811430279194B99501A498C
:100D7000096802689143184A1160184909680268B5
:100D80009143164A1160417910290CD11249096822
:100D900002681143104A116010490968006808434D
:100DA0000E49086010E04179094A51580268114320
:100DB0004079074A115007E00179054A5158026805
:100DC00091430079024A1150704705490860704705
:100DD0000004014004040140080401400C040140E7
:100DE0001404014080B501211020FFF7B8FA4FF438
:100DF000E070ADF8000010208DF8030002208DF89F
:100E0000020000A90548FFF709FC01BD044800687D
:100E10004FF480714840024908607047001001405B
:100E20000C10014000B589B0082200212848FFF7C6
:100E3000D4FB01210120FFF7A2FA4FF6FF70ADF8B5
:100E4000080041F61F40ADF804000020ADF80A008C
:100E50000020ADF8060001A95FF0804000F02CF9F9
:100E60003020ADF810000020ADF816000120ADF8DC
:100E700012000020ADF8180004A95FF0804000F0D7
:100E800036F902215FF0804000F098F9012202213A
:100E90005FF0804000F07AF901215FF0804000F0BF
:100EA00067F91C208DF8000002208DF80100012058
:100EB0008DF8020001208DF8030000A8FFF704FE62
:100EC00009B000BD80B5024800688047012002BD1E
:100ED0002C00002080B5082200211A48FFF77DFB76
:100EE00001BD80B5184800F05DF902BD80B5022152
:100EF000154800F059F900280CD00221124800F0E2
:100F00005DF910484068002818D00E4840688047B6
:100F1000012014E001210C4800F046F900280CD013
:100F20000121094800F04AF906480068002805D068
:100F3000044800688047012001E0FEE7002002BD70
:100F4000000000003400002000040040002000E009
:100F5000401CDFF828118842FAD3704780B50C2274
:100F60000021DFF81C01FFF738FB45480021017222
:100F70000321022000F01AF80C210E2000F016F8D0
:100F80000F2000F02AF805210D2000F00FF8242191
:100F9000042000F00BF8012000F01FF810F01F00F3
:100FA0000828F8D136480121017201BD00B585B08D
:100FB00050F0C0008DF80C008DF80D10012002904B
:100FC00001200190022000900DF10E030122022168
:100FD00003A8FFF784FA05B000BD00B585B050F056
:100FE00080008DF80C0000208DF80D00012002908B
:100FF00001200190022000900DF10E030122022138
:1010000003A8FFF76CFA9DF80F0005B000BD10B5FE
:10101000FFF767FF04000F20FFF7DFFF410713D53D
:1010200017480B21017216480068002806D02000DE
:1010300080B213490968884701201CE02220FFF78D
:1010400083FCFFF783FFFEE7000713D50C480C2154
:1010500001720B484068002806D0200080B2084981
:1010600049688847012006E04420FFF76DFCFFF740
:101070006DFFFEE7002010BD00000000F8FF0F002C
:10108000200000200B49096811F03801094A11605D
:101090000849096808430749086070470549096815
:1010A00031F01001034A11600249096808430149FF
:1010B000086070470020024010B4028812F08F02CE
:1010C00002800288CB884C8823431A4302808A8896
:1010D00082850A88028501228282234A904202D0B8
:1010E000224A904201D1097A018610BC704770B43F
:1010F000002300240022058C4FF6FE76354005843F
:10110000058C2C0085882A00058B2B004FF68F75E7
:101110002B400D882B434FF6FD752C400D892C4339
:101120004D882C43CD8885860F4DA84202D00F4DA7
:10113000A84213D14FF6F7752C404D892C434FF63A
:10114000FB752C408D882C4347F6FF652A4047F6F7
:10115000FF552A408D892A43C9890A438280038327
:10116000048470BC70470000002C01400034014032
:10117000C9B2002904D0018851F00101018004E0C6
:10118000018840F2FE32114001807047D2B2002A3D
:1011900003D082891143818103E0828932EA01010F
:1011A00081817047808C70470022008A084201D0FC
:1011B000012200E000221000C0B2704789B2C9438A
:1011C000018270477047FEE7FEE7FEE7FEE77047E3
:1011D0007047704734480078401C334908703248E3
:1011E0000078012802D33048002101707047704711
:1011F0007047704770477047704780B50120FFF710
:10120000E4FDFFF704FF01BD70477047704770476A
:101210007047704770477047704770477047704716
:101220007047704770477047704770477047704706
:10123000704780B502215FF08040FFF7B5FF0028BE
:1012400006D002215FF08040FFF7B8FFFFF73AFEBB
:1012500001BD80B5FFF74AFE01BD7047704770477A
:101260007047704780B501211048FFF79FFA0028AA
:1012700001D0FFF7B1F901BD704780B520210C48BE
:10128000FFF713FC002803D0FFF752FBFFF775FBB5
:1012900040210748FFF709FC002803D0FFF74EFB69
:1012A000FFF765FB01BD0000480000200030014051
:1012B000003801407047704770477047704770476B
:1012C0007047704770477047704770477047704766
:1012D0007047704770477047704770477047704756
:1012E00030BF704720BF704740BF7047BFF36F8F5C
:1012F0007047BFF34F8F7047BFF35F8F704701DFB9
:101300007047EFF31480704780F31488BFF36F8F3A
:101310007047EFF30980704780F309887047EFF357
:101320000880704780F30888704762B6704772B6CD
:101330007047EFF31080704761B6704771B6704721
:10134000EFF31380704780F311887047EFF312803A
:10135000704740BA704700BA7047000010B508499E
:1013600079441C31074C7C441A34A14206D0081D34
:101370000A68511888470146A142F8D110BD00BF44
:101380000800000028000000A7F4FFFF3C00000058
:10139000100000200000000057F2FFFF10000000C6
:1013A0005C000000000000200000000000F009F8D0
:1013B000002801D0FFF7D2FF0020FFF7E3FB00F089
:1013C00002F80120704780B500F002B800BF0000AD
:1013D0000746384600F002F8FBE7000080B5C0463B
:1013E000C046024A11001820ABBEFBE726000200EF
:1013F000C046C046C046C046FFF7D8FF48656C6C83
:0C1400006F20576F726C64210000000028
:04000005080013F1EB
:00000001FF
