:020000040800F2
:10000000C804002095180008751600087716000827
:10001000791600087B1600087D1600080000000015
:100020000000000000000000000000008116000831
:100030007F160008000000008316000885160008DF
:100040009F160008A1160008A3160008A5160008B0
:10005000A7160008A9160008AB160008B916000874
:10006000BB160008BD160008BF160008C116000820
:10007000C3160008C5160008C7160008C9160008F0
:10008000CB160008CD160008CF160008D1160008C0
:10009000D3160008D5160008D7160008D916000890
:1000A000DB160008DD160008DF160008E116000860
:1000B000E3160008031700080B1700080D170008C7
:1000C0000F1700081117000813170008151700086C
:1000D000291700082B1700086D1700086F17000874
:1000E00071170008731700087517000877170008C4
:1000F000791700087B1700087D1700087F17000894
:100100008117000883170008851700088717000863
:10011000891700088B1700088D1700088F17000833
:100120009117000893170008951700089717000803
:10013000002000E0401CDFF898138842FAD3704793
:1001400010B500240C220021DFF8880300F0C6F966
:10015000DFF8800300210172200080B200F044FA31
:10016000641C0321022000F0D8F8200080B200F0C7
:100170003BFA641C0C210E2000F0CFF8200080B266
:1001800000F032FA641C0F2000F0E8F8200080B282
:1001900000F02AFA641C05210D2000F0BEF82000B2
:1001A00080B200F021FA641C2421042000F0B5F88C
:1001B000200080B200F018FA641C012000F0CEF894
:1001C00010F01F000828F8D1200080B200F00CFACF
:1001D000641CC0480121017210BD80B500F031FAE5
:1001E00001BD80B500F030FA01BDBA490860704722
:1001F000B8494860704780B5B64902220A7210F1CA
:100200002001C9B2082000F088F8B2480321017229
:1002100001BD704780B5AF480D210172012000F08B
:100220009DF80321022000F078F8012000F096F8F4
:1002300010F01F000828F8D100F070FAA54801213D
:10024000017201BD80B5A34A04231372C9B200F044
:100250009FF8A0480521017201BD80B59D48062187
:1002600001720921022000F058F8012000F076F810
:1002700010F01F000928F8D196480721017201BD2E
:1002800080B59448082101720221934800F0BEFA1B
:100290000221914800F0BDFA8E480068002805D080
:1002A00000F0D5F980B28B490968884701BD80B557
:1002B0008848092101720621022000F02EF800F082
:1002C000D5FA00F025FA012000F048F810F01F00E0
:1002D0000628F8D17F480A21017201BD2DE9F843B3
:1002E00004000D0016001F00DDF82080DDF82490CA
:1002F000062000F033F8C0B2C00989F800000720DA
:1003000000F02CF85B38387043463200D2B2290036
:10031000200000F061F8BDE8F18300B585B050F031
:10032000C0008DF80E008DF80F1001200290012002
:1003300001900220009003AB012202210DF10E007A
:1003400000F001FB9DF80C0080B200F04DF99DF823
:100350000D0080B200F048F905B000BD00B585B0D1
:1003600050F080008DF80C0000208DF80D00012069
:10037000029001200190022000900DF10E03012255
:10038000022103A800F0DFFA9DF80F0005B000BDC0
:1003900030B5A5B004000D0060208DF80C008DF87C
:1003A0000D5000200290012001908120009004ABAC
:1003B0000122022103A800F0C6FA012002900020C9
:1003C00001908120009004AB01222900C9B22000D5
:1003D00000F0B9FA25B030BD70B5A4B004000D002E
:1003E0001E0020208DF810000020029001200190B6
:1003F0000320009003AB0122022104A800F0A3FA1D
:100400009DF80D0028702878C01EC0B27D281BD230
:1004100000200290002001907D2000902300012206
:10042000297804A800F08FFA0120029000200190A2
:100430000320009003AB0122032104A800F083FAFB
:100440009DF80E0030700BE001200290002001901A
:100450000320009003AB0122012104A800F073FAED
:1004600024B070BD10B500F0F2F804000F20FFF7C3
:1004700075FF410713D517480B2101721548006815
:10048000002806D0200080B2124909688847012060
:100490001CE0222000F0A8F8FFF74AFEFEE7000764
:1004A00013D50C480C2101720A484068002806D078
:1004B000200080B2074949688847012006E04420AF
:1004C00000F092F8FFF734FEFEE7002010BD0000B8
:1004D000F8FF0F00980000200010014010B5040044
:1004E00010000A000100200000F0ACFA200010BD4E
:1004F00000B587B0082200214B48FFF7EFFF01212C
:100500004FF4804000F0E9FB4FF4164002900020C9
:10051000ADF80C000020ADF80E000020ADF8100082
:100520000020ADF814000C20ADF8120002A93F48DD
:1005300000F038FC00F03AF801213C4800F080FC63
:100540000121042000F0C9FB4FF40070ADF8000059
:1005500002208DF8020018208DF8030000A934480D
:1005600000F0EEF84FF48060ADF8000002208DF846
:10057000020004208DF8030000A92D4800F0E0F8E7
:1005800025208DF8040003208DF8050003208DF848
:10059000060001208DF8070001A800F09DFC07B0BF
:1005A00000BD214A106020484160704780B501229B
:1005B00040F226611D4800F051FC012240F2255115
:1005C0001A4800F04BFC4021184800F080FC01BDA7
:1005D00080B52021154800F07AFC01BD80B540218E
:1005E000124800F074FC01BD80B5010089B20F48CB
:1005F00000F05BFC80210D4800F05FFC0028F9D082
:1006000001BD80B5094800F054FC80B202BD80B540
:10061000054800688047002002BD80B50248406858
:100620008047002002BD0000BC00002000380140CF
:100630000008014080B5082200211C48FFF74EFF4A
:1006400001BD1A490860704718494860704780B575
:10065000174800F017FD02BD80B50221144800F0D4
:1006600013FD00280CD00221114800F017FD0F489F
:100670004068002818D00D4840688047012014E0E9
:1006800001210B4800F000FD00280CD00121084892
:1006900000F004FD05480068002805D00348006804
:1006A0008047012001E0FEE7002002BDB4000020E9
:1006B0000004004080B50121102000F00EFB4FF433
:1006C000E070ADF8000010208DF8030002208DF8D6
:1006D000020000A9184800F033F801BD80B54FF4BE
:1006E0008071154800F092F801BD80B54FF480711B
:1006F000114800F08EF801BD80B540210E4800F091
:1007000085F801BD80B540210B4800F082F801BD9D
:1007100080B58021084800F079F801BD80B58021BE
:10072000054800F076F801BD0448006830F4E07038
:100730000249086070470000001001400C100140A1
:10074000F0B400220026002400250023002791F8A1
:1007500003C01CF00F0C624691F803C05FEACC6C3A
:1007600001D58B781A430B781B0621D0036800242F
:1007700006E0CD78482D02D10125A5400561641C15
:10078000082C14D20125A5400E882E40AE42F6D189
:10079000A5000F2616FA05F7BB4312FA05F52B4301
:1007A000CD78282DE5D10125A5404561E7E7036017
:1007B0000B884FF48074A34226D34368002420E0C2
:1007C000012514F10806B5400E882E40AE4217D11F
:1007D000A5000F2616FA05F7BB4312FA05F52B43C1
:1007E000CD78282D04D1012514F10806B5404561C6
:1007F000CD78482D04D1012514F10806B5400561D6
:10080000641C082CDCD34360F0BC704789B20161E2
:10081000704789B24161704710B400220F2311F074
:100820000304E4B2A400A3401A00C9B28B100E4C1A
:1008300054F8233033EA0202C9B28B100A4C44F850
:100840002320C9B28A10084B53F82220C0B211F0FD
:100850000303DBB29B0098401043C9B28910024ADF
:1008600042F8210010BC704708000140704750F862
:10087000041B61B150F8042BD30744BFA9F1010355
:100880009A18002342F8043B091FFAD1EFE770479A
:1008900000B587B0102200216648FFF71FFE012136
:1008A0004FF4805000F019FA0121042000F015FAED
:1008B000A020ADF8000018208DF8030003208DF86B
:1008C000020000A95C48FFF73BFF4020ADF80000A4
:1008D00004208DF8030003208DF8020000A956487B
:1008E000FFF72EFF1020ADF8000010208DF8030058
:1008F00000A95148FFF724FF0020ADF804004FF491
:100900008270ADF806000020ADF808000020ADF8B8
:100910000A000020ADF80C004FF40070ADF80E0096
:100920001020ADF810000020ADF812000720ADF83F
:10093000140001A9414800F0B5FB01213F4800F037
:10094000D1FB07B000BDF8B5069E079C089D394F46
:100950003860384800270771364841713548827140
:100960003448836033480673324844733148857392
:1009700030480121C1732F48407B012819D1102133
:100980002D48FFF746FF14E02C4800F0BBFB294937
:100990008968087027480068401C26490860254877
:1009A0000079401C2349087122484079401E2149A2
:1009B00048712048407901282FD31E4800680178EB
:1009C00089B21E4800F09CFB01211C4800F09CFBF2
:1009D0000028F9D00121194800F0A0FB15488079C2
:1009E000002803D00228CFD00BD3D3E711480079D9
:1009F000002805D1114800F085FB0E498968087070
:100A0000C8E70E4800F07EFB0A498968087009486B
:100A10008068401C07498860BCE70648807B012845
:100A200003D110210448FFF7F1FE02480021C173F1
:100A3000F1BD0000880000200008014000300140A6
:100A4000FEE7000062F30F2262F31F42401810F02D
:100A5000030308D0C91A1FD3DB0748BF00F8012DD4
:100A600028BF20F8022D130030B414461546103963
:100A700028BF20E93C00FAD8490728BF20E90C002C
:100A800048BF40F8042D890028BF20F8022D48BF38
:100A900000F8012D30BC7047C91818BF00F8012DAF
:100AA000CB0728BF00F8012D70470000DFF8B00227
:100AB000006850F00100DFF8A8120860DFF8A40217
:100AC0000068DFF8A4120840DFF898120860DFF829
:100AD00090020068DFF894120840DFF88412086082
:100AE000DFF87C02006830F48020DFF874120860C0
:100AF000DFF87002006830F4FE00DFF8681208606A
:100B0000DFF86C02002101607047DFF854120968B9
:100B100031F48031DFF848221160DFF844120968AF
:100B200031F48021DFF838221160B0F5803F03D026
:100B3000B0F5802F09D011E0DFF82402006850F4EE
:100B40008030DFF81C12086008E0DFF8140200684B
:100B500050F4A020DFF808120860FFE7704780B566
:100B60000020009000200021312000F0D6F8010084
:100B70000098401C0090C9B2002903D10098B0F53C
:100B8000A06FF1D1312000F0C8F8002801D0012079
:100B900000E00020C0B202BD0022724B1B681A00A8
:100BA00032F47C12084302436E4802607047714978
:100BB000C0B20860704700216A4A126811008908B3
:100BC000890001436748016070476648006810F07B
:100BD0000C0070470021634A1268110031F0F001E7
:100BE000014360480160704700215E4A12681100AD
:100BF00031F4E06101435B48016070470021594ACC
:100C00001268110031F4605151EAC0015548016089
:100C1000704730B40022002100230024514D2D687C
:100C200015F00C052A00002A04D0042A05D0082A51
:100C300006D021E05149016020E0504901601DE0EB
:100C40004849096811F47011890C891C454A1268D9
:100C500012F48033002B03D1494A514301600AE06A
:100C6000404A1268920303D5454A5143016002E0AD
:100C7000424A5143016001E0404901603949096835
:100C800011F0F00212090FF20811545C0168E14002
:100C900041603449096811F4E062120A0FF2F00170
:100CA000545C4168E14081602E49096811F460524A
:100CB000D20A0FF2DC01545C4168E140C16029496D
:100CC000096811F44042920B0FF2D401545CC168E0
:100CD000B1FBF4F1016130BC7047C9B2002905D005
:100CE0002849096808432749086005E0254909683B
:100CF00031EA0000234908607047C9B2002905D0D5
:100D00002149096808432049086005E01E4909682F
:100D100031EA00001C490860704710B4002200232B
:100D20000021C0B24409E4B22200012A02D10C49D8
:100D30000B6806E0022A02D10F490B6801E0134953
:100D40000B68C0B210F01F0201209040034201D096
:100D5000012100E000210800C0B210BC7047000073
:100D600000100240041002400000FFF8FFFFF6FEF2
:100D700008100240600042422010024000127A0037
:100D800000093D00181002401C10024024100240CF
:100D90000000000001020304010203040607080921
:100DA000020406082DE9F04385B004000D00002080
:100DB000002600275FF000085FF00009A146218AA5
:100DC00008004CF6FF710840E98808432082A0899A
:100DD0004EF6F3110840A9882A8911436A89114304
:100DE0000843A081A08A4FF6FF410840A989084323
:100DF000A08200A8FFF70DFF1048814501D1039E96
:100E000000E0029E192000FB06F029688900B0FB73
:100E1000F1F76420B7FBF0F000010109642202FB46
:100E200011785FEA081132316422B1FBF2F111F05E
:100E30000F010843208105B0BDE8F0830038014070
:100E4000C9B2002904D0818951F40051818104E0A4
:100E500081894DF6FF7211408181704770B4002482
:100E600000250026002303000800C0B24009C0B2DC
:100E7000040089B211F01F0005000120A8400600FF
:100E8000012C01D10C3304E0022C01D1103300E01D
:100E90001433D2B2002A03D018683043186002E03D
:100EA0001868B043186070BC7047C905C90D8180CF
:100EB00070478088C005C00D704700220088084236
:100EC00001D0012200E000221000C0B2704789B2B8
:100ED000C94301807047000070B400210022002344
:100EE00000240F25C678002E35D02749096811F453
:100EF000E061D1F5E061090AD1F10404CD40417807
:100F0000A14082782A4011430901027812F00302BD
:100F1000D2B2D200914002789210194B53F822209D
:100F2000FF23047814F00304E4B2E400A3409A43DE
:100F300019400A4301788910114B43F821200178A8
:100F40004911124A0123007810F01F0013FA00F033
:100F500042F821000AE001784911084A012300788B
:100F600010F01F0013FA00F042F8210070BC704727
:100F7000074A1140084303490860704780E100E0D8
:100F800000E400E008ED00E00CED00E000E100E02E
:100F900080FFFF1F10B4028812F08F0202800288C7
:100FA000CB884C8823431A4302808A8882850A882A
:100FB000028501228282234A904202D0224A904234
:100FC00001D1097A018610BC704770B40023002457
:100FD0000022058C4FF6FE7635400584058C2C00EA
:100FE00085882A00058B2B004FF68F752B400D88C6
:100FF0002B434FF6FD752C400D892C434D882C4317
:10100000CD8885860F4DA84202D00F4DA84213D13E
:101010004FF6F7752C404D892C434FF6FB752C404D
:101020008D882C4347F6FF652A4047F6FF552A4036
:101030008D892A43C9890A4382800383048470BC52
:1010400070470000002C014000340140C9B2002963
:1010500004D0018851F00101018004E0018840F2D0
:10106000FE32114001807047D2B2002A03D082893B
:101070001143818103E0828932EA01018181704755
:1010800081867047808C70470022008A084201D018
:10109000012200E000221000C0B2704789B2C943AB
:1010A0000182704710B4002203881A0012F44152E2
:1010B0000B884C8823438C882343CC8823430C899A
:1010C00023434C8923438C892343CC8923431A43EC
:1010D0000280828B4FF2FF731A408283098A018259
:1010E00010BC7047C9B2002904D0018851F04001FA
:1010F000018004E001884FF6BF7211400180704703
:10110000818170478089704700220089084201D0A0
:10111000012200E000221000C0B2704789B2C9432A
:10112000018170471CB5852200217448FFF7D6F96C
:1011300000F012F972497348FFF733FA724800F071
:10114000F0F942F2107000F0EFF97048FFF745F83F
:101150006F48FFF746F86F48FFF747F86E48FFF70C
:1011600047F866487F2180F88110002004E0C0B273
:10117000624941188870401C604991F88110C0B2E2
:101180008842F4D3604800F0CCF942F2107000F0CD
:10119000CBF9FFF73EF81A20FFF72DF8FFF787F895
:1011A0005648022141705548007850F004005349D8
:1011B0000870524800780028FBD05048007800287A
:1011C000F7D04E480078C00710D54C484078012829
:1011D00004D0022804D1FFF781FA01E0FFF78CFA6E
:1011E0004648007810F0FE004449087043480078F3
:1011F00080072FD54148407801281ED0022823D1EE
:101200004648019046480090464B7F224649474851
:10121000FFF764F8002407E0E4B23848201880782B
:1012200080B2FFF7E1F9641C344890F88100E4B221
:101230008442F1D3FFF759FA06E0FFF738F82F4858
:1012400002214170FFF75EFA2C48007810F0FD0093
:101250002A490870294800784007AED527484078C9
:1012600002280ED1FEF7D6FF244890F881102F48AF
:10127000FEF7E8FFFEF7F1FFFFF702F81F48012134
:1012800041701E48007810F0FB001C49087094E77C
:1012900027480078401C2649087070472448407849
:1012A000401C2349487070471448007850F00100F2
:1012B000124908701E488078401C1D49887070478C
:1012C0000E48007850F002000C4908701848C078A9
:1012D000401C1749C870704780B50848007850F026
:1012E00004000649087012480079401C1049087132
:1012F00042F2107000F018F901BD0000000000205B
:101300003D13000835130008D91200089112000897
:101310009D120008A9120008C112000884000020D4
:1013200083000020820000208100002002000020B5
:10133000AC00002080B5FFF751F901BD80B5FFF783
:1013400047F9FFF75EF9C0B280B2FFF74DF901BD72
:1013500080B5FFF7E7FE02BD00B585B000F059F893
:1013600000F092F801211020FFF7B7FC0220ADF841
:10137000000010208DF8030003208DF8020000A962
:101380003F48FFF7DDF90420ADF8000010208DF88C
:10139000030003208DF8020000A93948FFF7D0F9B7
:1013A00004213748FFF732FA00210220FFF734FA10
:1013B0000120029000208DF80C0008208DF80D000F
:1013C00001208DF80E0002A800F0E8F806208DF844
:1013D000040002208DF8050000208DF80600012091
:1013E0008DF8070001A8FFF777FDFFF763F9FFF716
:1013F0007FF8FFF74DFA00F04FF8FFF71BF9FFF702
:101400006DF9FEF79DFEFFF770F9FFF78DF905B056
:1014100000BD80B5FFF74AFB5FF48030FFF775FB36
:10142000FFF79DFB1749087016480078012824D162
:10143000102000F011F9022000F002F90020FFF75F
:10144000C9FB0020FFF7DAFB4FF48060FFF7CCFB0D
:101450005FF4E0115FF48030FFF79EFB0120FFF79F
:10146000A6FB3920FFF759FC0028FAD00220FFF72D
:10147000A2FBFFF7AAFB0828FBD101BD000000007A
:1014800000100140C500002080B500215FF0006021
:10149000FFF76EFD01BD000000B589B008220021F4
:1014A0003D48FFF71BF801210120FFF726FC4FF60E
:1014B000FF70ADF8080041F61F40ADF804000020B1
:1014C000ADF80A000020ADF8060001A95FF08040E9
:1014D000FFF760FD3020ADF810000020ADF81600D9
:1014E0000120ADF812000020ADF8180004A95FF04B
:1014F0008040FFF76AFD01215FF08040FFF7A6FD05
:101500001C208DF8000002208DF8010001208DF8CC
:10151000020001208DF8030000A8FFF7DDFC09B0F0
:1015200000BD1D490860704770B504001A488688E0
:10153000194880882518184885805FF08040FFF79B
:10154000A1FDB6B2801BA4B284420BDA02215FF087
:101550008040FFF7A3FD012202215FF08040FFF7EA
:1015600083FD10E0290089B25FF08040FFF788FD1D
:1015700002215FF08040FFF791FD012202215FF020
:101580008040FFF771FD70BD80B50348006880475B
:10159000012002BD00000000A40000208179002984
:1015A00038D02249096802689143204A11602049D5
:1015B0000968026891431E4A116001791B4A51581B
:1015C000026811430279194B99501A490968026857
:1015D0009143184A11601849096802689143164AF4
:1015E0001160417910290CD1124909680268114330
:1015F000104A116010490968006808430E490860E4
:1016000010E04179094A5158026811434079074A6C
:10161000115007E00179054A515802689143007959
:10162000024A1150704705490860704700040140A4
:1016300004040140080401400C040140140401406A
:101640000B49096811F03801094A11600849096815
:1016500008430749086070470549096831F01001DF
:10166000034A11600249096808430149086070474C
:10167000002002407047FEE7FEE7FEE7FEE7704706
:101680007047704736480078401C35490870344828
:101690000078012802D3324800210170704770475A
:1016A0007047704770477047704780B50120FFF75B
:1016B000BAFFFEF7D7FE01BD70477047704770470D
:1016C0007047704770477047704770477047704762
:1016D0007047704770477047704770477047704752
:1016E000704780B502215FF08040FFF7CDFC0028F5
:1016F00006D002215FF08040FFF7D0FCFFF744FFE7
:1017000001BD80B5FEF7A8FF01BD70477047704767
:101710007047704780B501211248FFF7F5FC00289B
:1017200001D0FFF78DF901BD704780B520210E482B
:10173000FFF7C3FB002805D020210B48FFF7C7FBAC
:10174000FEF76BFF40210848FFF7B7FB002805D0E4
:1017500040210548FFF7BBFBFEF759FF01BD000024
:10176000C40000200030014000380140704770473D
:1017700070477047704770477047704770477047B1
:1017800070477047704770477047704770477047A1
:10179000704770477047704730BF704720BF704731
:1017A00040BF7047BFF36F8F7047BFF34F8F7047D5
:1017B000BFF35F8F704701DF7047EFF3148070470E
:1017C00080F31488BFF36F8F7047EFF30980704781
:1017D00080F309887047EFF30880704780F308882A
:1017E000704762B6704772B67047EFF3108070476B
:1017F00061B6704771B67047EFF31380704780F39E
:1018000011887047EFF31280704740BA704700BAF2
:101810007047000010B5084979441C31074C7C44DE
:101820001A34A14206D0081D0A685118884701469B
:10183000A142F8D110BD00BF080000001400000054
:101840002FF0FFFFC8000000000000200000000093
:1018500000F009F8002801D0FFF7DCFF0020FFF7B7
:1018600077FD00F002F80120704780B500F002B863
:1018700000BF00000746384600F002F8FBE7000012
:1018800080B5C046C046024A11001820ABBEFBE737
:1018900026000200C046C046C046C046FFF7D8FF3B
:040000050800189542
:00000001FF
