:020000040800F2
:10000000380400207D0D00088503000887030008E0
:10001000890300088B0300088D030008000000001E
:100020000000000000000000000000009103000834
:100030008F030008000000009303000895030008E8
:10004000AF030008B1030008B3030008B5030008BC
:1000500021040008230400082504000833040008D4
:100060003504000837040008390400083B04000880
:100070003D0400083F040008410400084304000850
:100080004504000847040008490400084B04000820
:100090004D0400084F0400085104000853040008F0
:1000A0005504000857040008590400085B040008C0
:1000B0005D0400087D04000885040008870400082A
:1000C000890400088B0400088D0400088F040008D0
:1000D000A3040008A5040008E9040008EB040008D4
:1000E000ED040008EF040008F1040008F304000820
:1000F000F5040008F7040008F9040008FB040008F0
:10010000FD040008FF0400080105000803050008BD
:100110000505000807050008090500080B0500088B
:100120000D0500080F05000811050008130500085B
:10013000DFF82402006850F00100DFF81C120860AC
:10014000DFF818020068DFF818120840DFF80C1218
:100150000860DFF804020068DFF808120840DFF8E2
:10016000F8110860DFF8F001006830F48020DFF853
:10017000E8110860DFF8E401006830F4FE00DFF801
:10018000DC110860DFF8E001002101607047DFF852
:10019000C811096831F48031DFF8BC211160DFF843
:1001A000B811096831F48021DFF8AC211160B0F595
:1001B000803F03D0B0F5802F09D011E0DFF898011F
:1001C000006850F48030DFF89011086008E0DFF834
:1001D0008801006850F4A020DFF87C110860FFE778
:1001E000704780B50020009000200021312000F0F1
:1001F00091F801000098401C0090C9B2002903D179
:100200000098B0F5A06FF1D1312000F083F80028FC
:1002100001D0012000E00020C0B202BD00224F4BFF
:100220001B681A0032F47C12084302434B480260F8
:1002300070474E49C0B2086070470021474A1268B3
:100240001100890889000143444801607047434810
:10025000006810F00C0070470021404A126811003D
:1002600031F0F00101433D480160704700213B4AF5
:100270001268110031F4E0610143384801607047B1
:100280000021364A1268110031F4605151EAC00170
:10029000324801607047364900220A703449002212
:1002A0000A70C0B2012802D0042804D007E0304808
:1002B0000121017003E02E4805210170FFE770471E
:1002C0002B49096808432A49086070472949C0B288
:1002D00008607047C9B2002905D02749096808435A
:1002E0002549086005E02449096831EA00002249EF
:1002F00008607047C9B2002905D020490968084341
:100300001E49086005E01D49096831EA00001B49E3
:100310000860704710B4002200230021C0B24409D5
:10032000E4B22200012A02D10B490B6806E0022A3E
:1003300002D10F490B6801E011490B68C0B210F0FF
:100340001F0201209040034201D0012100E0002162
:100350000800C0B210BC70470010024004100240F8
:100360000000FFF8FFFFF6FE081002406000424266
:10037000201002403C044242181002401C1002406F
:10038000241002407047FEE7FEE7FEE7FEE77047F5
:100390007047704750480078401C4F4908704E48DD
:1003A0000078012802D34C48002101707047704743
:1003B0007047704710B5012000F00DF9002805D0F6
:1003C000012000F014F900F045F928E0022000F0C7
:1003D00002F900280ED0022000F009F900F041F9DE
:1003E00000F0DDF8040000F0E5F804F2901000F0F1
:1003F000CAF814E0042000F0EEF800280FD0042022
:1004000000F0F5F800F01EF900F0D4F8334800F0E1
:10041000A0F800F0CFF87FF4E57000F0B4F810BD5C
:100420007047704780B5012000F026F900F04CF9C4
:1004300001BD7047704770477047704770477047FD
:1004400070477047704770477047704770477047F4
:1004500070477047704770477047704780B50221FA
:100460005FF0804000F06CF9002806D002215FF0B8
:10047000804000F06FF900F071F901BD80B500F027
:100480007CF901BD7047704770477047704780B571
:100490000121134800F0A4F9002801D000F02CFA43
:1004A00001BD704780B520210E4800F03BFA0028BE
:1004B00005D020210B4800F03FFA00F054FA40210B
:1004C000084800F02FFA002805D04021054800F028
:1004D00033FA00F042FA01BD3500002014FEFFFFA0
:1004E0000030014000380140704770477047704746
:1004F0007047704770477047704770477047704744
:100500007047704770477047704770477047704733
:1005100070477047C9B2002905D038490988084397
:100520003649088005E03549098831EA0000334939
:10053000088070473248008850F010003049088029
:1005400070472F4800884FF6EF7108402C4908800B
:10055000704710B50400FFF7EDFF200C2A49088012
:1005600028480480FFF7EDFF10BD10B50400FFF729
:10057000E1FF200C10F00F0024490880244804807B
:10058000FFF7DFFF10BD10B50400FFF7D3FF200C0D
:100590002049088020480480FFF7D3FF10BD0020C9
:1005A0001D49098808001B49098889B280B250EAB0
:1005B00001407047124800888006FBD570471048FC
:1005C00000884FF6F77108400D4908800C480088F4
:1005D0000007FBD570470021094A128892B20242F7
:1005E00001D0012100E000210800C0B27047044999
:1005F000098831EA0000024908807047002800405D
:10060000042800401C28004018280040082800400A
:100610000C280040202800402428004080B50121FB
:100620001020FFF757FE4FF4E070ADF800001020E7
:100630008DF8030002208DF8020000A90C4800F09C
:100640009DF901BD0B4800684FF48071484009498D
:10065000086070470748006890F04000054908604E
:1006600070470448006890F08000024908607047B5
:10067000001001400C100140014908607047000063
:1006800014040140002000E0401CDFF8A81088425C
:10069000FAD3704700B585B050F080008DF80C009B
:1006A00000208DF80D000120029001200190022011
:1006B00000900DF10E030122022103A800F09EF824
:1006C0009DF80F0005B000BD10B500F051F8040012
:1006D0000F20FFF7DFFF410713D517480B210172E9
:1006E00015480068002806D0200080B21249096829
:1006F000884701201CE0222000F022F9FFF7C2FF0A
:10070000FEE7000713D50C480C2101720A48406827
:10071000002806D0200080B2074949688847012098
:1007200006E0442000F00CF9FFF7ACFFFEE70020E4
:1007300010BD0000F8FF0F0010000020808C7047F3
:100740000022008A084201D0012200E000221000AD
:10075000C0B2704789B2C9430182704780B503486F
:1007600000688047012002BD000000001C0000203E
:1007700080B51848FFF7E2FF02BD80B50221154899
:10078000FFF7DEFF00280CD002211248FFF7E2FF3E
:100790000F484068002818D00D4840688047012065
:1007A00014E001210B48FFF7CBFF00280CD00121FA
:1007B0000848FFF7CFFF06480068002805D0044826
:1007C00000688047012001E0FEE7002002BD000034
:1007D0002400002000040040818170478089704718
:1007E00000220089084201D0012200E0002210000E
:1007F000C0B2704789B2C94301817047F8B5069EFF
:10080000079C089D394F38603848002707713748E2
:1008100041713648827135488360344806733348E5
:1008200044733248857331480121C1732F48407B9E
:10083000012819D110212E4800F009F914E02D48A3
:10084000FFF7CCFF29498968087028480068401CD8
:100850002649086025480079401C2449087123482E
:100860004079401E214948712048407901282FD302
:100870001E480068017889B21E48FFF7ADFF0121CC
:100880001C48FFF7ADFF0028F9D001211948FFF7F8
:10089000B1FF16488079002803D00228CFD00BD3AF
:1008A000D3E712480079002805D11248FFF796FFD8
:1008B0000E4989680870C8E70E48FFF78FFF0B499B
:1008C0008968087009488068401C08498860BCE74E
:1008D0000648807B012803D11021054800F0B4F8B8
:1008E00002480021C173F1BD00000000000000209B
:1008F0000008014000300140FEE750F8041B61B1E0
:1009000050F8042BD30744BFA9F101039A18002320
:1009100042F8043B091FFAD1EFE77047C905C90D3A
:100920008180704700220088084201D0012200E047
:1009300000221000C0B2704789B2C94301807047DD
:1009400080B5010089B20C48FFF7E8FF80210A4812
:10095000FFF7E8FF0028F9D001BD80B50548006821
:100960008047002002BD80B50248406880470020D3
:1009700002BD00002C00002000380140F0B400222D
:100980000026002400250023002791F803C01CF056
:100990000F0C624691F803C05FEACC6C01D58B78EE
:1009A0001A430B781B0621D00368002406E0CD789B
:1009B000482D02D10125A5400561641C082C14D2E4
:1009C0000125A5400E882E40AE42F6D1A5000F2687
:1009D00016FA05F7BB4312FA05F52B43CD78282DFF
:1009E000E5D10125A5404561E7E703600B884FF499
:1009F0008074A34226D34368002420E0012514F12B
:100A00000806B5400E882E40AE4217D1A5000F262D
:100A100016FA05F7BB4312FA05F52B43CD78282DBE
:100A200004D1012514F10806B5404561CD78482D63
:100A300004D1012514F10806B5400561641C082C99
:100A4000DCD34360F0BC704789B20161704789B262
:100A50004161704780B500F053F800F08BF8012138
:100A60005FF0C050FFF746FC012000F08BF801203A
:100A7000FFF711FC4120FFF74DFC0028FAD04FF49E
:100A80008070FFF71DFC0120FFF720FCFFF797FDAA
:100A9000FFF790FD0220FFF7AAFD01210220FFF7DA
:100AA00039FDFFF787FD0420FFF7A1FD0121042098
:100AB000FFF730FDFFF77EFDFFF77CFD0020FFF71D
:100AC00054FDFFF777FD2948FFF743FDFFF772FD5F
:100AD0007FF4E570FFF757FDFFF76CFD03208DF8FD
:100AE000000000208DF8010000208DF80200012098
:100AF0008DF8030000A800F04BF8FFF78FFDFEE72C
:100B000080B5FFF715FB5FF48030FFF740FBFFF780
:100B100068FB1749087016480078012824D1102076
:100B200000F0A0F8022000F091F80020FFF794FBFD
:100B30000020FFF7A5FB4FF48060FFF797FB5FF401
:100B4000E0115FF48030FFF769FB0120FFF771FBD4
:100B50003920FFF7DFFB0028FAD00220FFF76DFBFA
:100B6000FFF775FB0828FBD101BD000014FEFFFF55
:100B70003400002080B500215FF0006000F054F8E0
:100B800001BD00000149C0B20860704720000E425C
:100B900070B400210022002300240F25C678002E07
:100BA00035D02749096811F4E061D1F5E061090AFF
:100BB000D1F10404CD404178A14082782A4011430C
:100BC0000901027812F00302D2B2D20091400278F9
:100BD0009210194B53F82220FF23047814F00304D9
:100BE000E4B2E400A3409A4319400A430178891013
:100BF000114B43F8212001784911124A0123007852
:100C000010F01F0013FA00F042F821000AE001780A
:100C10004911084A0123007810F01F0013FA00F070
:100C200042F8210070BC7047074A1140084303494D
:100C30000860704780E100E000E400E008ED00E0BB
:100C40000CED00E000E100E080FFFF1F0B490968A8
:100C500011F03801094A1160084909680843074939
:100C6000086070470549096831F01001034A1160B6
:100C700002490968084301490860704700200240A2
:100C800030BF704720BF704740BF7047BFF36F8FC2
:100C90007047BFF34F8F7047BFF35F8F704701DF1F
:100CA0007047EFF31480704780F31488BFF36F8FA1
:100CB0007047EFF30980704780F309887047EFF3BE
:100CC0000880704780F30888704762B6704772B634
:100CD0007047EFF31080704761B6704771B6704788
:100CE000EFF31380704780F311887047EFF31280A1
:100CF000704740BA704700BA7047000010B5084905
:100D000079441C31074C7C441A34A14206D0081D9A
:100D10000A68511888470146A142F8D110BD00BFAA
:100D20000800000014000000D3FBFFFF38000000A3
:100D3000000000200000000000F009F8002801D0A9
:100D4000FFF7DCFF0020FFF785FE00F002F801202E
:100D5000704780B500F002B800BF00000746384673
:100D600000F002F8FBE7000080B5C046C046024A2A
:100D700011001820ABBEFBE726000200C046C046AB
:080D8000C046C046FFF7D8FF92
:0400000508000D7D65
:00000001FF
