:020000040800F2
:10000000D8120020A97A00080179000803790008B5
:100010000579000807790008097900080000000048
:100020000000000000000000000000000D79000842
:100030000B790008000000000F7900081179000812
:100040002B7900082D7900082F79000831790008F4
:10005000397900083B7900083D7900084B790008A0
:100060004D7900084F79000851790008537900084C
:100070005579000857790008597900085B7900081C
:100080005D7900085F7900086179000863790008EC
:100090006579000867790008697900086B790008BC
:1000A0006D7900086F79000871790008737900088C
:1000B00075790008957900089D7900089F790008F6
:1000C000A1790008A3790008A5790008A77900089C
:1000D000BB790008BD790008FD790008FF790008A8
:1000E000017A0008037A0008057A0008077A0008F8
:1000F000097A00080B7A00080D7A00080F7A0008C8
:10010000117A0008137A0008157A0008177A000897
:10011000197A00081B7A00081D7A00081F7A000867
:10012000217A0008237A0008257A0008277A000837
:1001300030B583B0040015206070DFF81C0B007828
:1001400001281AD0032811D005281DD007283CD03B
:1001500009283ED00A2864D00C2869D00F286ED018
:10016000112875D0132800F0A480A9E0200000F029
:10017000D1FD042000F042FDABE0200000F0CAFDFC
:10018000022000F03BFDA4E0200000F0C3FD0620AB
:1001900000F034FDDFF8C00A0089072809D00928DB
:1001A00009D0502804D040F68C01884202D003E0E8
:1001B0000AE009E008E007E00223DFF89C0A028970
:1001C0000921152000F0A2FF83E0082000F016FDB1
:1001D0007FE0200000F09EFD062000F00FFDDFF81C
:1001E000780A0089072809D0092809D0502804D0A6
:1001F00040F68C01884202D003E011E010E00FE0ED
:100200000EE00023DFF8500A02890921152000F0D2
:100210007DFF200000F07EFDDFF83C0A00218162B6
:1002200057E0200000F076FD0B2000F0E7FC50E0E6
:10023000200000F06FFD0D2000F0E0FC49E0200000
:1002400000F068FD102000F0D9FC00F0BDFC40E09B
:10025000200000F05FFD122000F0D0FC00F038FD1F
:100260000500002D09D1002300222521152000F0D2
:100270004DFF200000F04EFD2BE0152028701520CA
:1002800068701122DFF8D41915F1150001F03EFA5B
:10029000012001900020009000230022012128006D
:1002A00000F0D0FB280001F038FA132000F0A6FC83
:1002B0000FE0200000F02EFD142000F09FFC08E06D
:1002C0000323DFF89409027892B20721152000F089
:1002D0001DFF37BD30B583B00400152060700620C7
:1002E000607260682061207A2075606801F043FDCB
:1002F000A0816068801C01F03EFDE081DFF85809B4
:100300000078002817D0E089DFF84C190989884265
:100310000DD1A089DFF84019098A884207D1DFF89A
:100320003C1914F1150001F092FB002803D12000C4
:1003300000F0F0FC81E30220009002230122022160
:10034000200000F0F7FB002804D000F03DFC200066
:1003500000F0E0FCDFF800090078002818D002283F
:1003600000F02281042800F08F80062800F03981F7
:10037000082800F0CA810B2800F05F820D2800F0E9
:1003800031830E2800F0F082142800F03E834CE305
:10039000E089072809D0092809D0502804D040F660
:1003A0008C01884202D003E009E008E007E006E0A3
:1003B0000323A2890921152000F0A8FE00250020B2
:1003C0000090012300220021200000F0B3FB002850
:1003D0004BD0EDB2012D48D1DFF87C08E1890181D5
:1003E0006068001D01F0D5FC401CDFF86C18C86087
:1003F000DFF86408A1890182112214F11501DFF8E8
:100400005C0801F083F900F063FC0500002D09D1C0
:10041000002300222521152000F078FE200000F0A6
:1004200079FC0AE315202870152068701122DFF886
:100430002C1815F1150001F069F900200190012038
:100440000090002300220121280000F0FBFADFF8D1
:1004500008084068401CDFF800184860012000F0E0
:10046000CDFB280001F059F90AE000F0ADFB0023B4
:10047000DFF8E407027892B20821152000F046FE6A
:10048000200000F047FCD8E2002000900123002269
:100490000121200000F04EFB002832D06068001DD2
:1004A00001F077FC401CDFF8B017C86000F010FCCA
:1004B0000500002D09D1002300222521152000F080
:1004C00025FE200000F026FCB7E21520287015203C
:1004D00068701122DFF8841715F1150001F016F984
:1004E000002001900020009000230022012128001C
:1004F00000F0A8FA052000F081FB280001F00DF9BA
:100500004EE000200090012300220021200000F096
:1005100011FB002839D06068001D01F03AFC401C36
:10052000DFF83417C86000F0D3FB0500002D09D1B7
:10053000002300222521152000F0E8FD200000F016
:10054000E9FB7AE215202870152068701122DFF887
:100550000C1715F1150001F0D9F8002001900120C9
:100560000090002300220121280000F06BFADFF840
:10057000E8064068401CDFF8E0164860012000F003
:100580003DFB280001F0C9F80AE000F01DFB012343
:10059000DFF8C406027892B20821152000F0B6FDFB
:1005A000200000F0B7FB48E200200090002300226A
:1005B0000121200000F0BEFA002803D0062000F040
:1005C0001DFB0AE000F000FB0223DFF88C06027836
:1005D00092B20821152000F099FD200000F09AFB4E
:1005E0002BE201200090002300220221200000F0D5
:1005F000A1FA002834D06068001D01F0CAFB217AFE
:1006000008181338DFF85016C86000F061FB0500C9
:10061000002D09D1002300222521152000F076FDB0
:10062000200000F077FB08E2152028701520687084
:100630001122DFF8281615F1150001F067F80020E7
:10064000019000200090002300220121280000F0EA
:10065000F9F9280001F061F8112000F0CFFA53E019
:1006600000200090002300220221200000F062FA06
:1006700000283BD06068001D01F08BFB217A081830
:100680001438DFF8D415C86000F022FB0500002DF7
:1006900009D1002300222521152000F037FD20007C
:1006A00000F038FBC9E11520287015206870112270
:1006B000DFF8A81515F1150001F028F800200190C9
:1006C00000200090002300220121280000F0BAF948
:1006D000280001F022F81421200001F06FFADFF861
:1006E00078058462092000F089FA0DE000F06CFAC8
:1006F0000323DFF86405027892B20821152000F088
:1007000005FD200000F006FB97E10020009000238B
:1007100000220121200000F00DFA002821D0DFF88E
:1007200038050089072809D0092809D0502804D0A5
:1007300040F68C01884202D003E00AE009E008E0BC
:1007400007E00023DFF8100502890921152000F0D9
:10075000DDFCDFF8040500214162062000F04EFABE
:1007600067E001200090002300220221200000F019
:10077000E1F9002852D0DFF8E0040089072809D009
:10078000092809D0502804D040F68C01884202D0B4
:1007900003E00AE009E008E007E00023DFF8B8041E
:1007A00002890921152000F0B1FCDFF8AC0400211A
:1007B00041626068001D01F0ECFA217A08181338D4
:1007C000DFF89414C86000F083FA0500002D09D109
:1007D000002300222521152000F098FC200000F0C5
:1007E00099FA2AE115202870152068701122DFF887
:1007F0006C1415F1150000F089FF00200190002015
:100800000090002300220121280000F01BF928009D
:1008100000F083FF112000F0F1F90AE000F0D4F9B4
:100820000423DFF83404027892B20821152000F086
:100830006DFC200000F06EFAFFE001200090002324
:1008400000220021200000F075F9002832D06068F5
:10085000001D01F09EFA401CDFF8FC13C86000F098
:1008600037FA0500002D09D100230022252115208B
:1008700000F04CFC200000F04DFADEE0152028705E
:10088000152068701122DFF8D41315F1150000F05F
:100890003DFF002001900020009000230022012154
:1008A000280000F0CFF8280000F037FF0C2000F0FF
:1008B000A5F955E00120009000230022012120002D
:1008C00000F038F9002832D06068001D01F061FAAC
:1008D000401CDFF88413C86000F0FAF90500002D11
:1008E00009D1002300222521152000F00FFC200053
:1008F00000F010FAA1E01520287015206870112270
:10090000DFF8581315F1150000F000FF00200190EA
:1009100000200090002300220121280000F092F81E
:10092000280000F0FAFE0F2000F068F918E000201F
:100930000090002300220121200000F0FBF8002895
:1009400003D00E2000F05AF90AE000F03DF905232B
:10095000DFF80403027892B20821152000F0D6FBDC
:10096000200000F0D7F968E0012000900023002269
:100970000221200000F0DEF800282FD06068001D62
:1009800001F007FA401CB449C86000F0A1F9050065
:10099000002D09D1002300222521152000F0B6FBEF
:1009A000200000F0B7F948E0152028701520687085
:1009B0001122AA4915F1150000F0A8FE00200190AF
:1009C00000200090002300220121280000F03AF8C6
:1009D000280000F0A2FE0F2000F010F9200000F027
:1009E00099F92AE000200090002300220121200034
:1009F00000F0A0F8002804D0102000F0FFF800F06C
:100A0000E3F8200000F086F917E0002000900023B2
:100A100000220121200000F08DF8002801D000F014
:100A2000D3F8200000F076F907E004238A48027822
:100A300092B20721152000F069FB37BD80B500F0A8
:100A4000C3F801BD2DE9F84306000F009046994612
:100A5000089C099D062070721421300001F098F85E
:100A600071687D48008901F081F97068811C7A48BD
:100A7000008A01F07BF97068011D7748406801F039
:100A800080F9706810F108017348C06801F079F9C5
:100A9000706850210173706800214173FFB2012F0B
:100AA00006D17068407B50F010007168487305E013
:100AB000706810F10801002001F063F95FFA88F80E
:100AC000B8F1010F05D17068407B50F008007168E3
:100AD00048735FFA89F9B9F1010F05D17068407B5D
:100AE00050F0040071684873E4B2012C05D17068BD
:100AF000407B50F0020071684873EDB2012D05D1C2
:100B00007068407B50F0010071684873706810F1A4
:100B10000E01302001F02AF9706810F11201002056
:100B200001F024F9706810F11001300001F079F83B
:100B3000BDE8F18330B4029D0124C9B202290DD071
:100B4000E4B2002C09D04468647BC4F30014E4B21E
:100B5000C9B28C4201D1012400E00024D2B2022AA1
:100B60000DD0E4B2002C09D04168497BC1F380016B
:100B7000C9B2D2B2914201D1012400E00024DBB21B
:100B8000022B0DD0E4B2002C09D04168497BC1F39F
:100B90004001C9B2DBB2994201D1012400E0002436
:100BA000EDB2022D0CD0E4B2002C08D04068407B9E
:100BB00010F00100EDB2A84201D1012400E00024B0
:100BC0002000C0B230BC704780B5002000F016F89D
:100BD00021486421416020480021C1601E48002155
:100BE00001821D48002181741B48002141621A487E
:100BF00000218162152000F0C1F801BD80B51649C1
:100C000008701548007800280AD1134890F82C0085
:100C1000012818D1104890F82D0001F01DFA12E0BB
:100C20000D4890F82C0000280DD10D4B0022012119
:100C300040F2DC5001F0F9F8074981F82D00064830
:100C4000012180F82C1001BD80B50521054801F077
:100C500033FB01BD00000000D40D0020E60D002094
:100C6000490C00083D0A000810B5002407E0E4B272
:100C7000D020BD4900FB041000F078F9641CE4B2F8
:100C80000A2CF4D310BD00B585B0002015E0C0B229
:100C900000A9C0B2D022B44B02FB0032127801F896
:100CA0001020C0B200A911EB4001C0B2D022AE4B5F
:100CB00002FB003252784A70401CC0B20A28E6D3C8
:100CC000142200A9072000F0BDF9012005B000BDE5
:100CD00080B501F084FB002000E0401CC0B20A286F
:100CE00014D2C0B2D021A04A01FB002149780029CA
:100CF000F3D1C0B2D0219C4A01FB002102224A70EC
:100D0000C0B2D021984A01FB002002E001F06BFB49
:100D1000002002BD38B5050001F061FB002400E0B1
:100D2000641CE4B20A2C1FD2E4B2D0208E4900FB2E
:100D30000410A842F4D1E4B2D0208B4900FB041087
:100D40004078002805D1002300222621022000F04F
:100D5000DDF9E4B2D020844900FB041000F006F96C
:100D600001F041FB002008E000230022272102209F
:100D700000F0CCF901F037FB012032BD38B504009A
:100D800001F02DFB002510E0EDB2D020764900FBEC
:100D900005104078E4B2A04206D1EDB2D0207249ED
:100DA00000FB051000F0E2F86D1CEDB20A2DEBD34C
:100DB00001F019FB31BD10B501F011FB002400E07A
:100DC000641CE4B20A2C17D2E4B2D020664900FBBE
:100DD000041040780A28F3D1E4B2D020624900FB25
:100DE000041000780828EBD001F0FDFAE4B2D0201E
:100DF0005D4900FB041002E001F0F5FA002010BD8F
:100E000010B501F0ECFA002400E0641CE4B20A2CF6
:100E100017D2E4B2D020544900FB041040780A28CD
:100E2000F3D1E4B2D020504900FB04100078082828
:100E3000EBD101F0D8FAE4B2D0204B4900FB04100A
:100E400002E001F0D0FA002010BD38B5040001F036
:100E5000C6FA2078022821D1002500E06D1CEDB2F1
:100E60000A2D4ED2EDB2D0203F4900FB051040784C
:100E70000928F3D1EDB2D0203B4900FB051010F159
:100E80002701200000F0E3FD0028E7D001F0ABFAD5
:100E9000EDB2D020344900FB051035E0207806285B
:100EA0002FD1002500E06D1CEDB20A2D29D2EDB244
:100EB000D0202D4900FB051040780928F3D1EDB270
:100EC000D020294900FB051000780B2811D1EDB284
:100ED000D020254900FB051000780B28E3D1EDB2A6
:100EE000D020214900FB0510273000F04CFD0028E0
:100EF000D9D101F078FAEDB2D0201B4900FB0510E2
:100F000002E001F070FA002032BD10B501F067FA7E
:100F1000002400E0641CE4B20A2C21D2E4B2D02008
:100F2000114900FB041040780928F3D1E4B2D02025
:100F30000D4900FB041000780B28EBD1E4B2D0205F
:100F4000094900FB0410273000F01DFD0028E1D006
:100F500001F049FAE4B2D020034900FB041002E09A
:100F600001F041FA002010BD0000002000210170B6
:100F70000021417000F2CB0141600021017200218B
:100F8000417200214175002180F82710052180F869
:100F90003810002180F83A10704750F8041B61B1F6
:100FA00050F8042BD30744BFA9F101039A1800237A
:100FB00042F8043B091FFAD1EFE7704780B5DFF82C
:100FC0003C075E2180F80012DFF830075E2180F8D0
:100FD0000112DFF828075E2180F80212DFF81C07F3
:100FE000522180F80312DFF81407002180F8041260
:100FF000DFF80807242180F80512DFF80007242114
:1010000080F80612DFF8F406242180F80712DFF8D2
:10101000EC060021A0F82E11DFF8E0060021A0F870
:101020002C11DFF8D806002180F83011DFF8CC064B
:10103000002180F80912DFF8C816DFF8C80601F0B1
:1010400044FA01BDF8B506000C00150001F0C7F91F
:10105000DFF8A806012180F8301100F089FADFF8E6
:101060009C165E22425400F083FADFF890165E224E
:10107000425400F07DFADFF884165E22425400F0FC
:1010800077FADFF878165322425400F071FA07001D
:10109000012001F008FB8078BFB2DFF860167854B9
:1010A00000F066FA0700012001F0FDFA4078BFB2B7
:1010B000DFF84816785400F05BFADFF84016465423
:1010C000002607E000F054FADFF83016F6B2325D81
:1010D0004254761C3000C0B280B2ADB2A842F1D307
:1010E00000F046FADFF814162422425400F040FAC9
:1010F000DFF808162422425400F03AFADFF8FC1513
:101100002422425401F06FF90020F2BD2DE9F04194
:1011100004000D0016001F0001F02CFC01F05FF927
:10112000DFF8D805012180F8301100F021FADFF84E
:10113000CC155E22425400F01BFADFF8C0155E2287
:10114000425400F015FADFF8B4155E22425400F064
:101150000FFADFF8A8154522425400F009FA80463C
:10116000012001F0A0FA80781FFA88F8DFF88C15CA
:1011700008F8010000F0FCF98046012001F093FA24
:1011800040781FFA88F8DFF8741508F8010000F0BD
:10119000EFF9DFF86815445400F0EAF9DFF85C1560
:1011A000455400F0E5F9DFF85415B6B2320A42545E
:1011B00000F0DEF9DFF84415465400F0D9F9DFF805
:1011C0003C15BFB23A0A425400F0D2F9DFF82C15B0
:1011D000475400F0CDF9DFF824152422425400F0E2
:1011E000C7F9DFF818152422425400F0C1F9DFF8DE
:1011F0000C152422425401F0F6F80020BDE8F081DD
:1012000070B504000D0001F0EAF8DFF8F0040121E8
:1012100080F8301100F0ACF9DFF8E0145E2242549F
:1012200000F0A6F9DFF8D4145E22425400F0A0F9D1
:10123000DFF8C8145E22425400F09AF9DFF8BC14BB
:101240004422425400F094F90600012001F02BFAE8
:101250008078B6B2DFF8A414705400F089F9060063
:10126000012001F020FA4078B6B2DFF890147054F3
:10127000002607E000F07CF9DFF88014F6B2325D5A
:101280004254761CF6B2EDB2AE42F3D300F070F9E0
:10129000DFF868142422425400F06AF9DFF85C1485
:1012A0002422425400F064F9DFF8501424224254FE
:1012B00001F099F8002070BD10B501F090F8DFF84A
:1012C0003C04B0F8FA4101F08EF82000C0B210BD25
:1012D00070B504000D0001F082F8DFF82004B0F8CA
:1012E000FA6101F080F82800C0B280B2B6B2B04214
:1012F0000AD233009BB2EDB22A0092B2042103203D
:10130000FFF704FF002606E0F6B23200DFF8F8131C
:10131000200000F0FBF901F062F8DFF8E0030021A3
:10132000A0F8FA1101F05FF83000C0B270BD80B5CE
:10133000DFF8C803B0F8FA0101280DD30023DFF865
:10134000BC03B0F8FA212D210320FFF7DFFEDFF800
:10135000AC030021A0F8FA11DFF8A003C82180F83F
:10136000041201F0DDF801F0D5F801F0B3F801F056
:1013700036F8DFF88803012180F80912DFF87C03D2
:10138000002180F80812DFF87403002180F8FE11B4
:10139000DFF86803002180F8FF11DFF8600390F8A0
:1013A0000802DFF85813401890F8000280B201F0EC
:1013B000BDF801F018F801BD10B501F010F8DFF824
:1013C0003C0390F80A02401C092190FBF1F201FB5A
:1013D0001200DFF8281381F80A02DFF8200390F8E2
:1013E0000A4201F000F8E4B2002C0CD0022C12D01A
:1013F0000DD3042C17D012D3062C1CD017D3082CD5
:1014000021D01CD323E001F06AFC012827D001F091
:1014100065FA012823D001F097FD01281FD000F0C4
:1014200091F801281BD001F035FC012817D001F0FC
:1014300065FC012813D001F0EBFE01280FD0FFF767
:1014400022FC01280BD002F001FB012807D000F09C
:10145000C6FFAA48002180F80A1200F0C4FF01F07C
:101460005FF801F057F801F035F800F0B8FFA34835
:10147000022180F80912A14890F83001002808D014
:1014800000F08CF880B29D49405C80B201F04EF8CB
:1014900001E000F003F800F0A6FF10BD10B500F069
:1014A0009EFF9648B0F8FA4100F09DFF01F024F845
:1014B00000F095FF9148002180F8091200F093FF99
:1014C000A4B2012C3DD300F08AFF8C4890F8FD4176
:1014D00000F089FFE4B22000422811D044281DD03A
:1014E000452812D04F2813D0502814D0522804D0A9
:1014F000542808D0552807D013E001F0C2F920E0A5
:1015000001F086F91DE01CE01BE002F0FFFB18E093
:1015100002F0F4FC15E002F0C5FD12E002F054FE0A
:101520000FE00023E4B2220092B228210320FFF74B
:10153000EDFD00F054FF71480021A0F8FA1100F011
:1015400052FF10BD80B500F04AFF6C48B0F82C0186
:10155000ADF800006948B0F82E01ADF8020000F0C7
:1015600042FF042200A90320FFF76CFD012002BD09
:1015700080B500F034FF6148B0F82C01401C4FF4F6
:10158000967190FBF1F201FB12005C49A1F82C016D
:1015900000F029FF5948B0F82C0102BD10B500F049
:1015A0001EFF5648B0F82E01401C4FF4967190FB78
:1015B000F1F201FB12005149A1F82E014F48B0F899
:1015C0002E4100F010FF200080B210BD80B54B48C6
:1015D00090F80902012802D002281CD035E04748C3
:1015E00090F80802401C454981F80802434890F8E9
:1015F000080208280AD2414890F808023F494018DA
:1016000090F8000280B200F091FF03E03B48012116
:1016100080F8FE1119E03948B0F82C013749B1F8CB
:101620002E11884203D13548002180F8301133480B
:1016300090F83001002807D0FFF7B0FF80B22F49A3
:10164000405C80B200F072FFFFE701BD10B52B488F
:1016500090F8090201284FD1284890F8FE0101288E
:101660000DD12648002180F8FE1100F06CFF2349BF
:1016700081F8FD012148012180F8FF113CE01F485D
:1016800090F8FF01012809D11C48002180F8FF11C2
:1016900000F059FF194981F8FC012DE01748B0F816
:1016A000FA411648611CA0F8FA1100F04CFFA4B2F0
:1016B0001249611881F831011048B0F8FA01401C54
:1016C000C9280BDB0023002205210320FFF71EFDA4
:1016D0000A480021A0F8FA11FFF7E0FE074890F849
:1016E000FC01401E054981F8FC01044890F8FC010A
:1016F000002801D1FFF7D2FE10BD00002008002015
:101700004D160008CD1500085109002010B5040041
:10171000200002F0B5FD200010BD80B51021417001
:1017200000F079F802BD10B5040010206070207838
:10173000062803D12000FFF7EDFA20E0607A0628A2
:1017400004D0112807D03A280AD00EE0C9B22000F0
:10175000FEF7EEFC13E0C9B2200002F0EFFD0EE050
:10176000C9B2200002F0ABFE09E00023627A92B217
:1017700006211020FFF7CAFC2000FFF7CBFA10BDAE
:101780000EB418B50400102060709DF8150060724A
:101790009DF81400A0720AA800F0DDFF002804D113
:1017A0000AA800F0F0F8002822D011220DF117014C
:1017B00014F11500FFF7AAFF607A062804D011285B
:1017C00006D03A2808D00BE02000FEF783FD1FE08A
:1017D000200002F0D6FD1BE0200002F097FE17E08B
:1017E0000123627A92B206211020FFF78FFC0FE0EE
:1017F00011220AA914F11500FFF788FF10202070AC
:10180000200000F008F8012802D12000FFF782FA3A
:1018100011BC5DF810FB10B5040014F1270114F1A0
:10182000150000F010F894F82700002807D10023D5
:1018300000220C211020FFF769FC012002E02000AB
:1018400002F08BFE10BD30B585B004000D00200005
:1018500000F099F800280BD0022028700020C0B2B8
:10186000082814D2C0B24119FF224A70401CF6E782
:10187000200002F06AF8002805D02A0000A9200004
:1018800000F007F803E00221280002F0B0F805B0EC
:1018900030BD38B50400080015002178032909D0AF
:1018A0000023227892B22A210420FFF72FFC002087
:1018B00028700EE0052101700822611C401CFFF712
:1018C00025FF02202870082214F10901681CFFF787
:1018D0001DFF31BD38B50C0015000178052902D176
:1018E0002178022909D00123027892B22A2104200A
:1018F000FFF70CFC002028700CE00321297008225F
:10190000411C681CFFF702FF0822611C15F1090049
:10191000FFF7FCFE31BD10B50C000178022909D09B
:101920000223027892B22A210420FFF7EFFB002065
:10193000207005E001212170C1796170007AA070EA
:1019400010BD10B50C000178012909D003230278DD
:1019500092B22A210420FFF7D9FB0020207011E069
:1019600002212170002161700021A1700021E1702D
:1019700000212171002161710021A1714178E17183
:101980008078207210BD80B50178032906D1407897
:10199000FF2801D1012022E0002020E00178012968
:1019A00002D0022903D004E0022200210BE0082229
:1019B000FBE70423027892B22A210420FFF7A6FB5A
:1019C00000200CE0491CC9B2D2B2914206D2C9B281
:1019D0000B185B78FF2BF5D0002000E0012002BD42
:1019E0000178032931D14178FF292ED1817802294C
:1019F0002BD1C178002928D10179002925D141793D
:101A0000002922D1817900291FD1C17900291CD157
:101A1000017A002919D1417A002916D1817A002949
:101A200013D1C17A002910D1017B00290DD1417B4E
:101A300000290AD1817B002907D1C17B002904D16B
:101A4000007C022801D1012000E00020704780B511
:101A500002780B789A4201D000202EE00278012A09
:101A600006D020D3032A1CD00CD3052A17D01AD2B3
:101A70000222D2B2491C401C03F0E6F800281BD118
:101A800001201AE0C279CB799A4205D1007A097A0D
:101A9000884201D1012000E00020C0B20DE0082200
:101AA000E7E71022E5E70523027892B22A21042015
:101AB000FFF72CFB002000E0002002BD70B5117084
:101AC000C9B2012906D00CD3032908D005D30529B2
:101AD00003D006D20224002112E00824FBE71024E0
:101AE000F9E70623C9B20A0092B22A210420FFF7BF
:101AF0000DFB15E0C9B28D18C9B20E5C6E70491CA1
:101B0000C9B2E4B2A1420BD2DBB2002BF2D0E4B2F4
:101B1000651EC9B26D1AAD18C9B20E5C6E70EEE7E3
:101B200070BD70B50B78012B06D00CD3032B08D0F9
:101B300005D3052B03D006D20223002414E008238A
:101B4000FBE71023F9E707230A7892B22A21042041
:101B5000FFF7DCFA1BE0DBB25D1EE4B22D1B6D1853
:101B60006D7846683570641CE4B2DBB29C420ED2DC
:101B700045686D1E4560057A6D1C0572D2B2002A5B
:101B8000E9D0E4B265186D7846683570EBE770BD52
:101B900080B5C9B24A424368D2184260027A8918B5
:101BA0000172416810F14C02914206D2037A9BB255
:101BB00000222C210420FFF7A9FA01BD80B5C9B28B
:101BC00042688A184260027A511A017210F1CA0101
:101BD0004268914206D2037A9BB201222C21042052
:101BE000FFF794FA01BD80B5027A89180172017A73
:101BF000802906D3037A9BB202222C210420FFF70E
:101C000085FA01BD80B5027A511A0172017A8129E3
:101C100006D3037A9BB203222C210420FFF776FA25
:101C200001BD30B58BB004000D0000208DF8000020
:101C300000208DF80100002028700020687001AAA3
:101C400006A914F11500FFF724FE052000F02BFD76
:101C5000010006A8FFF7FBFE002820D0FE208DF82B
:101C6000020080208DF8030002220DF1020100A87D
:101C700000F05CF8022000F016FD0822411C00A8CC
:101C800000F054F802220DF1020100A800F04EF815
:101C900008220DF1050100A800F048F815E0052024
:101CA00000F001FD0822411C00A800F03FF80220CE
:101CB00000F0F9FC0822411C00A800F037F81022BF
:101CC00014F1160100A800F031F800208DF8020090
:101CD000207A8DF8030002220DF1020100A800F025
:101CE00025F800208DF80200607A8DF803000222AA
:101CF0000DF1020100A800F019F8227A616800A82D
:101D000000F014F89DF8000090F0FF008DF800003E
:101D10009DF8010090F0FF008DF801009DF8000093
:101D200028709DF8010068700BB030BD30B40378A6
:101D3000447854EA032306E00C784D7855EA0424ED
:101D4000E318891C921E022AF6DA002A06D00978C6
:101D500013EB012302E099B211EB1343190C002994
:101D6000F9D1190A0170437030BC704780B2020A81
:101D70000A70487070470178407850EA012080B2BC
:101D80007047020E0A70020C4A70020A8A70C8700C
:101D9000704701784278120452EA0161827851EA70
:101DA0000221C0780843704780B5DFF8AC040021F9
:101DB00080F8C810002030E0C0B21421DFF8982469
:101DC00001FB002100220A60C0B21421DFF8882440
:101DD00001FB002100228A80C0B21421DFF87824A0
:101DE00001FB002101220A72C0B21421DFF868242D
:101DF00001FB002100224A72C0B21421DFF85824EE
:101E000001FB00210022CA60C0B21421DFF848247F
:101E100001FB002100220A74401CC0B20A28CBD367
:101E2000DFF8380402F087FF01BDF8B5002400E0B8
:101E3000641CE4B20A2C08D2E4B21425DFF818645A
:101E400005FB04656D7A012DF2D0E4B20A2C80F016
:101E5000A980D2B2002A2DD1E4B21425DFF8F863AC
:101E600005FB04650A2606FB00F62E600A2505FB25
:101E700000F54FF6FF76B5FBF6F5E4B21426DFF871
:101E8000D87306FB0476F580E4B21425DFF8C86346
:101E900005FB0465ED88002D2FD1D2B2002A20D198
:101EA000E4B21422DFF8B05302FB04520A2568435F
:101EB00090802BE0D2B2012A12D1E4B21425DFF8CF
:101EC000986305FB046528604FF6FF75B0FBF5F5D8
:101ED000E4B21426DFF8807306FB0476F580D3E7BE
:101EE000FEE7D2B2012A07D1E4B21422DFF8685328
:101EF00002FB0452908009E0FEE7E4B21420DFF810
:101F0000582300FB04204FF6FF728280E4B21420B5
:101F1000DFF8442300FB04200172E4B21420DFF850
:101F2000381300FB041001214172E4B21420DFF8E1
:101F3000281300FB0410C360E4B21420C64900FB60
:101F4000041000210174C44890F8C80000280AD089
:101F5000E4B21420C04900FB04108088BE49B1F8E7
:101F6000CA10884217D2E4B21420BB4900FB041007
:101F70008088B949A1F8CA00B74890F8C80000287D
:101F800001D102F0DBFEE4B21420B34900FB0410DF
:101F9000808802F0EDFEB048012180F8C8102000D2
:101FA000C0B200E0FF20F2BD30B4C9B200292AD18E
:101FB000C0B21423A84C03FB00430A2404FB02F420
:101FC0001C600A2303FB02F34FF6FF74B3FBF4F328
:101FD000C0B21424A04D04FB0054E380C0B214230B
:101FE0009D4C03FB0043DB88002B2BD1C9B2002999
:101FF0001ED1C0B21421984B01FB00300A2101FB15
:1020000002F1818026E0C9B2012910D1C0B21423A7
:10201000914C03FB00431A604FF6FF73B2FBF3F3DE
:10202000C0B214248C4D04FB0054E380D6E7FEE7D5
:10203000C9B201290ED1C0B21421874B01FB003077
:10204000828007E0C0B21421834A01FB00204FF6D2
:10205000FF71818030BC7047C0B214217E4A01FB01
:10206000002000214172704738B5002510E0EDB224
:102070001420794900FB051080887749B1F8CA100F
:10208000401AEDB21421744A01FB052188806D1CB1
:10209000EDB20A2D53D2EDB214206F4900FB0510AA
:1020A000407A0128F3D16C48B0F8CA00EDB214218F
:1020B000694A01FB052189888842D8D3EDB21420F2
:1020C000654900FB0510C088002807D1EDB2142037
:1020D000614900FB051001210174D8E7EDB214201D
:1020E0005D4900FB0510C088401EEDB214215A4A1C
:1020F00001FB0521C880EDB21420574900FB0510F3
:10210000C088002812D1EDB21420534900FB0510FD
:1021100000684FF6FF71B0FBF1F201FB1200EDB267
:1021200014214D4A01FB05218880B0E7EDB214204F
:10213000494900FB05104FF6FF718180A7E7002594
:1021400007E0EDB21420444900FB05100021417264
:102150006D1CEDB20A2D4BD2EDB214203E4900FBAE
:102160000510007C0128F3D1EDB214203A4900FBA0
:102170000510C0688047EDB21420374900FB0510F8
:1021800000210174EDB21420334900FB0510007AE0
:102190000028D6D1EDB214202F4900FB05100068AD
:1021A0004FF6FF71B0FBF1F0EDB214212A4A01FBAA
:1021B0000521C880EDB21420274900FB0510C08816
:1021C00000280CD1EDB21420234900FB0510EDB21C
:1021D0001421214A01FB052109688180B8E7EDB28D
:1021E00014201D4900FB05104FF6FF718180AFE7F9
:1021F000002000251BE0EDB21421174A01FB052148
:10220000497A012912D1C0B2002808D0EDB21421B8
:10221000114A01FB05218988A4B2A14206D2EDB280
:1022200014200D4900FB0510848801206D1CEDB2BF
:102230000A2DE0D3C0B2012808D10748A0F8CA404F
:102240000548B0F8CA0002F093FD03E002480021FF
:1022500080F8C81031BD0000400C00206920000843
:1022600080B580220021304802F0BCFD022200210E
:102270002E4802F0B7FD012002F0C2FD01BD10B5ED
:1022800019E02948846F2848A16881672068804741
:1022900000202060002020710020A06023480078EA
:1022A000401E224908702048806F0028E9D102F0C2
:1022B000B4FD02F0B3FDF6E738B504000D0000F000
:1022C0008EF8194801E000F20C000168002902D0E4
:1022D00017498142F7D21649814200D2FEE70460D5
:1022E0000571144901E0096808310A68002A04D020
:1022F0000A68127903799A42F5D30A688260086005
:102300000A480078401C0949087008484078074985
:102310000978884203D2054804490978417000F0E1
:1023200062F831BD000000000C0D0020CC0E002032
:10233000780D0020840D0020DFF8D0100843DFF86E
:10234000C8100860704770B40021002200230024E8
:102350000F25C678002E35D02B49096811F4E061AD
:10236000D1F5E061090AD1F10404CD404178A140E2
:1023700082782A4011430901027812F00302D2B296
:10238000D2009140027892101D4B53F82220FF2377
:10239000047814F00304E4B2E400A3409A43194023
:1023A0000A4301788910164B43F82120017849111E
:1023B000174A0123007810F01F0013FA00F042F8CA
:1023C00021000AE0017849110C4A0123007810F03D
:1023D0001F0013FA00F042F8210070BC704780B56E
:1023E00002F045FD01BD80B502F03FFD01BD094A87
:1023F00011400843034908607047000080E100E095
:1024000000E400E008ED00E00CED00E00000FA055B
:1024100000E100E080FFFF1F00B587B00822002127
:10242000524802F0DFFC01214FF4804002F06CFEC4
:102430004FF4164002900020ADF80C000020ADF8DB
:102440000E000020ADF810000020ADF814000C20A4
:10245000ADF8120002A9464802F0BCFE00F03AF8BE
:102460000121434802F004FF0121042002F04CFE48
:102470004FF40070ADF8000002208DF80200182023
:102480008DF8030000A93B4802F03EFF4FF4806046
:10249000ADF8000002208DF8020004208DF8030042
:1024A00000A9344802F030FF25208DF804000320F5
:1024B0008DF8050003208DF8060001208DF8070037
:1024C00001A8FFF740FF07B000BD284A1060274869
:1024D0004160704780B5012240F22661244802F035
:1024E000D5FE012240F22551214802F0CFFE4021C5
:1024F0001F4802F004FF01BD80B5002240F22661B2
:102500001B4802F0C3FE002240F22551184802F099
:10251000BDFE01BD80B52021154802F0F0FE01BDD1
:1025200080B54021124802F0EAFE01BD80B50100ED
:1025300089B20F4802F0D1FE80210D4802F0D5FE8D
:102540000028F9D001BD80B5094802F0CAFE80B26A
:1025500002BD80B5054800688047002002BD80B5F7
:10256000024840688047002002BD0000BC0E0020E9
:10257000003801400008014080B5DFF8B4030021B5
:102580000170DFF8AC0300214170DFF8A4030421DF
:1025900080F82410DFF89803CA2180F82510DFF8AE
:1025A0009003FE2180F82610DFF88403052180F8CF
:1025B0003510DFF87C03002180F83610DFF8700357
:1025C000002180F83710DFF86803002180F8381008
:1025D000DFF85C03002180F83910DFF85403002194
:1025E00080F83A10DFF84803002180F83B10DFF84C
:1025F0004003002180F83C10DFF83403002180F80C
:102600003D10CB480221C174C9480E210175C8484C
:102610000F214175C6485C218175C5480921C175E6
:10262000C34802210176C2482C214176C0480021CE
:102630008176BF48AC21C176BE49BF48FFF76BF930
:10264000BB480079B12805D1B94801210170B848CB
:102650000121417001BD10B5FFF7C1FEB4480478F7
:10266000FFF7C1FE2000C0B210BD10B50400FFF797
:10267000B6FEAF48047001F0D3FAFFF7B4FE10BD08
:1026800010B5FFF7ACFEAA484478FFF7ACFE200077
:10269000C0B210BD10B50400FFF7A1FEA4484470FD
:1026A000FFF7A1FE10BD10B50400FFF798FEE4B2DD
:1026B0002000012806D0022806D0042806D00528CC
:1026C00006D007E09B4C0EE09B4C0CE09B4C0AE0D4
:1026D0009B4C08E00023E4B2220092B22A210120A0
:1026E000FEF714FD0024FFF77EFE200010BD10B59C
:1026F0000400FFF774FE2078012806D002280DD0D0
:10270000042811D0052815D01AE01122210089488B
:10271000FEF7FCFFFFF767FE002010BD112221002D
:102720008548FEF7F3FFF5E7112221008348FEF705
:10273000EDFFEFE7112221008148FEF7E7FFE9E70F
:102740000123227892B22A210120FEF7DFFCFFF755
:102750004AFE0120E1E710B586B00400FFF73FFE16
:102760002078012807D047D3032818D00DD3052897
:1027700038D02DD340E06F492000FFF768F90400FE
:10278000FFF731FE2000C0B240E06B492000FFF7A8
:102790005EF90400FFF727FE2000C0B236E00320F8
:1027A0008DF80000082267490DF10100FEF7AEFF29
:1027B000082265490DF10900FEF7A8FF00A92000D5
:1027C000FFF745F90400FFF70EFE2000C0B21DE040
:1027D0005A492000FFF73BF90400FFF704FE2000F0
:1027E000C0B213E056492000FFF731F90400FFF7AB
:1027F000FAFD2000C0B209E00223227892B22A2119
:102800000120FEF783FCFFF7EEFD002006B010BDAF
:10281000E0B5092100A8FEF75BFDC0B2092808D089
:102820000023C0B2020092B22D210120FEF76EFCFF
:1028300026E09DF800004E280DD054280FD05928CE
:102840001ED10120FFF726FF08220DF101013D48AE
:10285000FEF75CFF14E00020FFF71CFF10E0FFF71D
:102860000FFF002803D00020FFF714FF08E001202D
:10287000FFF710FF08220DF101013248FEF746FF75
:1028800007BD80B5012100A8FEF722FDC0B20128D6
:1028900008D00023C0B2020092B22D210120FEF721
:1028A00035FC1AE09DF800004E2807D0542809D0C6
:1028B000592812D10120FFF7D8FE0EE00020FFF7C3
:1028C000D4FE0AE0FFF7C7FE002803D00020FFF780
:1028D000CCFE02E00120FFF7C8FE01BD00B593B0B9
:1028E000134800788DF80000114840788DF80100F9
:1028F0000DF102000F49112201F0C2FC0DF113008D
:102900000D49112201F0BCFC09A80C49112201F06B
:10291000C4FC0DF135000A49112201F0B1FC462238
:1029200000A90120FEF78EFB012013B000BD0000BE
:102930008C0D00208E0D00209F0D0020B00D00207A
:10294000C10D0020C20D0020A00D002080B5012186
:10295000102002F0D9FB4FF4E070ADF80000102019
:102960008DF8030002208DF8020000A9114802F042
:10297000CBFC01BD104800684FF4807148400E49FF
:102980000860704780B540210A4802F023FD01BD70
:1029900080B54021074802F020FD01BD80B58021AF
:1029A000044802F017FD01BD80B58021014802F006
:1029B00014FD01BD001001400C10014080B524221F
:1029C0000021DFF8300502F00DFA08220021DFF8BF
:1029D000280502F007FAFFF73EFE012803D1012087
:1029E00000F0CBF902E0002000F0C7F902F022FD70
:1029F000DFF8080500218171DFF8040502F07DFD94
:102A0000DFF8000502F07DFDDFF8FC0402F07DFD3B
:102A1000DFF8F80402F07CFD40F2EB1002F07BFDE1
:102A200002F09BFD01BD38B50400FFF7D8FCDFF8CC
:102A3000C40400782178884204D0FFF7D4FC4FF614
:102A4000FF7024E00025DFF8AC04408861888842EC
:102A500008D1FFF7C8FCDFF89C048088A188401AE1
:102A600080B214E0DFF88C0440886188401A0128A5
:102A700007D1DFF880048588681EA188451A6D1C7F
:102A800001E04FF6FF75FFF7AEFC280080B232BDC3
:102A900080B502F0BEF940F2EB1002F015FFDFF84E
:102AA0005404007B002802D102F06AFF01E002F02A
:102AB00093FFDFF844040088401CDFF83C140880D2
:102AC00001BD80B5DFF82C04407B042826D0052802
:102AD00027D0062828D0072829D008282AD0092856
:102AE0002BD00A282CD00B282DD00C282ED00D2826
:102AF0002FD00F2830D0102831D0112832D01228F2
:102B000033D0132834D0142835D0152836D01628C1
:102B100037D0172838D0182839D03BE003F056F8C2
:102B200045E003F077F842E003F084F83FE003F07B
:102B300093F83CE003F0A0F839E003F0ADF836E09C
:102B400003F0C6F833E003F0D3F830E003F0E2F826
:102B50002DE003F005F92AE003F006F927E003F081
:102B60001FF924E003F02CF921E003F03BF91EE00B
:102B700003F03CF91BE003F049F918E003F0C6F953
:102B800015E003F0D3F912E003F0E2F90FE003F0EF
:102B9000EFF90CE0DFF85C03C388DFF85803427BF1
:102BA00092B217210820FEF7B1FA00F04FF9DFF8D2
:102BB00048034088401CDFF84013488001BD80B5C1
:102BC000DFF83013097B002903D180B203F0E0F96C
:102BD00025E0C849497B072906D00C2908D01229CD
:102BE0000AD017290CD00FE080B203F0E3F916E009
:102BF00080B203F0F3F912E080B203F003FA0EE0C2
:102C000080B203F015FA0AE0BA48C388B948427B9B
:102C100092B218210820FEF779FA00F017F9B648A9
:102C20008088401CB449888001BD80B5B149097BCA
:102C3000002903D180B203F00FFA25E0AD49497BAA
:102C4000082906D00D2908D013290AD018290CD03C
:102C50000FE080B203F0A6FA16E080B203F0D4FAD7
:102C600012E080B203F086FB0EE080B203F038FC85
:102C70000AE0A048C3889F48427B92B219210820ED
:102C8000FEF744FA00F0E2F89B48C088401C9A49DD
:102C9000C88001BD00B583B0964880888DF80000DB
:102CA000944880884FF4807190FBF1F08DF801001A
:102CB000904840888DF802008E4840884FF480711B
:102CC00090FBF1F08DF803008A4800788DF804003D
:102CD000052200A90420FEF7B5F901200EBD80B53C
:102CE00000208DF800008348007B8DF80000012251
:102CF00000A90020FEF7A6F9012002BD80B5082238
:102D00007E490520FEF79EF9012002BDF8B50400BA
:102D100002F006FC070002F00DFCB4F1830540F25E
:102D2000EB16BFB2A4B2A74204D380B2BFB2C01B9D
:102D3000052803DA06F2EB1603F0FEFBAE193000AD
:102D400080B202F0F2FB6B4840F2DC514181280076
:102D500000B200F045F8F1BD10B5040002F0EAFB46
:102D6000001B80B202F0E1FB624840F2DC5141817D
:102D7000200000B200F034F810BD80B55D49087342
:102D80005C48007B012804D1FFF7FCFD02F052FBF8
:102D900001E0FFF7FDFD01BD10B5040084F8261029
:102DA0000622544914F13C00FEF7B0FC0A20607082
:102DB00002215748FFF780FA10BD10B50400062223
:102DC0004C4914F13C00FEF7A1FC14F13C0000F06A
:102DD00037FB0A20607001214E48FFF76DFA10BDE5
:102DE00046490978491C454A11704449B1F9021015
:102DF00000B2884201DA414948804049B1F90410E3
:102E000000B2814201DA3D498880704780B5394976
:102E100048733848407B002812D0401E0DD0401E19
:102E2000012810D9801E08D0401E09280BD90A3865
:102E300006D0401E092806D907E001F0EDFF04E0A6
:102E400001F0E9FF01E001F0E5FF01BD80B502F00E
:102E500085FB02F05BFD2748002101842548002105
:102E600041842448006900281FD00021214800F037
:102E7000FFFA2048006990F83A00401E1D49096990
:102E800081F83A001B48006990F83A00002805D103
:102E9000012118480069FFF77FFF03E0154800692A
:102EA000092141701348002101611248406900283E
:102EB00006D010484069FFF780FF0E4800214161AD
:102EC0000C488069002806D00A488069FDF722FF77
:102ED0000848002181610748C069002806D00548DC
:102EE000C069FDF717FF03480021C1610020FFF70B
:102EF0008DFF01BD040E0020940E00209C0E0020CA
:102F0000912A0008C32A0008BF2B00082B2C0008B8
:102F1000792F00080130000880B580484FF47A719D
:102F200001807E48002181707C480021C1707B486F
:102F3000002101717A4B0022002178480088FEF7B9
:102F400074FF7649487101BD80B500208DF80000FE
:102F500000F048FD8DF80000012200A90220FEF7D4
:102F600071F8012002BD80B50B214170012180F86C
:102F7000381000F099F802BD10B5FDF71CFF0400F1
:102F8000002C06D1002300220E210B20FEF7BEF8F4
:102F900035E00B20607094F82600002809D114F168
:102FA0003C03012294F83B1014F1270000F02FFCA1
:102FB00008E014F13C03002294F83B1014F12700C0
:102FC00000F025FC20780B2814D12000FDF7A2FE8C
:102FD00052480021817003F0F1FAC0B200F2A460FF
:102FE0004E4908804D48028800214C484079FEF740
:102FF000DBFF04E094F82610200001F01CFB10BD5C
:1030000010B5FDF7FDFE0400002C06D100230022C0
:103010000F210B20FEF77AF826E00B20607014F1E8
:103020003C0294F9491014F1270000F03CFB94F89D
:1030300038000028012801D9C01E0AD1207A0128B1
:1030400003D3200001F005FB02E02000FDF762FE43
:103050000AE02000FDF75EFE002394F8382092B2CB
:1030600029210B20FEF752F810BD80B52B480079BE
:10307000401C022190FBF1F202FB11022748027171
:103080000120FFF710FB8078B12806D12348007992
:10309000002808D103F0B2FA05E0204800790028A2
:1030A00001D003F0D9FA01BD10B582B0040014F1CB
:1030B0002700FEF768FC012803D1012084F83A00BC
:1030C00002E0032084F83A001448C07884F83900FC
:1030D0001248C078401C1149C870002084F83B0099
:1030E0001F2084F848006068606414F12700009095
:1030F00094F83930002294F83810200003F0D8FA00
:1031000002212000FEF76FFD09206070002016BD2F
:1031100080B503210348FFF7CFF801BDAC0E0020B6
:10312000113100086B30000810B586B0D0220021A4
:10313000DFF81C0401F056FE02220021DFF814041F
:1031400001F050FE002408E0E4B22820DFF800146B
:1031500000FB041000F002FA641CE4B2052CF3D367
:10316000092000F07BF800241122002101A801F0C1
:1031700039FE01A80090002300220121E4B22000C2
:1031800080B200F075F801241122002101A801F09D
:1031900029FE06208DF8040001A8009000230122DA
:1031A0000421E4B2200080B200F062F8022411226F
:1031B000002101A801F016FE01A8009000230022C2
:1031C0000521E4B2200080B200F052F8032411225D
:1031D000002101A801F006FE01A8009000230022B2
:1031E0000621E4B2200080B200F042F8042411224B
:1031F000002101A801F0F6FD01A8009000230022A3
:103200000621E4B2200080B200F032F806B010BD12
:1032100000B58BB0CE48B0F8CE00401C052190FB25
:10322000F1F201FB1200CA49A1F8CE00C848B0F87B
:10323000CE008DF8000001A8C549B1F8CE102822B3
:10324000C34B02FB0131282201F027F82C2200A9F0
:103250000620FDF7F7FE01200BB000BD10B50400FD
:10326000FFF7BDF8BA48A0F8CC40FFF7BCF810BD96
:103270002DE9F84305000E0017009846DDF8209070
:10328000FFF7ADF8B24C01E004F22804A078002862
:1032900002D0B148A042F7D2AF48A04200D2FEE728
:1032A0002580A670E77084F8048011224946601DCD
:1032B000FEF72CFAA648D0F8C800002804D16462B2
:1032C000A348C0F8C8401FE0A148D0F8C80000E0FB
:1032D0000800416A028823889A4203D222880B8818
:1032E0009A420FD3028823889A4203D202880B881D
:1032F0009A4207D222880B889A42E9D202880B8828
:103300009A42E5D34462616292480078401C914938
:103310000870904840788F490978884203D28D48D8
:103320008C4909784170FFF75EF8BDE8F18310B56C
:103330000400FFF754F801E000F00AF88448D0F8E0
:10334000C8000088A4B2A042F6D1FFF74CF810BD27
:1033500080B5FFF744F87E48D0F8C800406A7C4941
:10336000C1F8C800FFF73FF801BD10B5FFF737F807
:103370007748D0F8C800406A0488FFF734F8200086
:1033800080B210BD10B5FFF72AF87148B0F8CC40F4
:10339000FFF729F8200080B210BD10B5FFF71FF825
:1033A0006B48D0F8C8008478FFF71DF82000C0B241
:1033B00010BD10B50400FFF712F811226448D0F8D0
:1033C000C800411D2000FEF7A1F9FFF70CF810BD61
:1033D00010B5FFF704F85E48D0F8C8000479FFF78D
:1033E00002F82000C0B210BD80B5FEF7F8FF5848C3
:1033F000D0F8C800C07D012808D35548D0F8C800CF
:10340000C07D401E5249D1F8C810C8755048D0F848
:10341000C800C07800280BD04D48D0F8C800C0784C
:10342000012809D14A48D0F8C800C07D002803D13E
:10343000FEF7D9FF012002E0FEF7D5FF002002BD14
:1034400010B50400FEF7CBFF4148D0F8C800007E5D
:10345000401C3F49D1F8C8100876062221003C489C
:10346000D0F8C8001C30FEF751F9FEF7BCFF10BDC4
:1034700038B504000D00FEF7B2FF3548D0F8C8009B
:10348000407EFF2815D13248D0F8C800407E022186
:1034900090FBF1F02E49D1F8C81048762C48D0F8AE
:1034A000C800807E022190FBF1F02949D1F8C810B4
:1034B00088762748D0F8C800407E401C2449D1F8BF
:1034C000C8104876EDB2012D08D12148D0F8C800C7
:1034D000807E401C1E49D1F8C81088760622210043
:1034E0001B48D0F8C8001C30FEF710F9EDB2012DD2
:1034F0000AD11748D0F8C800012181751448D0F8C6
:10350000C8000021C1751FE01148D0F8C800807DB7
:10351000042808D20E48D0F8C800807D401C0C4911
:10352000D1F8C810887503F049F80121084AD2F88B
:10353000C82092F91620914090FBF1F201FB120095
:103540000349D1F8C810C875FEF74DFF31BD000022
:10355000700B0020C80E0020100C0020002181708C
:103560000021C170012181750021C1750021017107
:1035700000214171142181711521C17192210172C3
:1035800009214172022181722C21C1720021017333
:1035900000210176002141760021817600210184FD
:1035A0000021C183002101777047000080B5002011
:1035B00006E0C0B24101DFF84C2700238B54401CC9
:1035C000C0B20A28F5D3FFF746F8012805D1DFF885
:1035D0003407002180F8401104E0DFF82807FF21BC
:1035E00080F8401101BD38B505000C20687015F158
:1035F000270000F0DFFA012854D1002400E0641C09
:10360000E4B20A2C4ED22100C9B215F1270000F015
:10361000E6FA0028F3D0E4B2DFF8E80610EB441035
:10362000696809784175E4B2DFF8D80610EB4410F8
:10363000407D00282FD1E4B2DFF8C80610EB44101B
:1036400002214170E4B2DFF8BC0610EB4410407E6A
:10365000002801D10F250EE0E4B2DFF8A80610EB38
:103660004410417EE4B2DFF89C0610EB4410007E6B
:1036700003F0AEF90500FEF7EEFF002812D1E4B228
:10368000DFF8800610EB4410407D2818DFF8741630
:1036900081F8400106E0E4B2DFF8680610EB441060
:1036A0000021417031BDF8B507000C00150000265F
:1036B00000E0761CF6B20A2E80F0A2803100C9B27A
:1036C000380000F08CFA0028F3D0F6B2DFF83406A8
:1036D00010EB4610C07D401CF6B2DFF8281611EB47
:1036E0004611C875F6B2DFF81C0610EB461084755B
:1036F00006222900F6B2DFF80C0610EB46101A304D
:10370000FEF704F8F6B2DFF8FC0510EB46108078FF
:10371000002836D1F6B2DFF8EC0510EB461090F930
:1037200016007FF04E01884223DBF6B2DFF8D405A5
:1037300010EB4610C078401CF6B2DFF8C81511EB4C
:103740004611C870F6B2DFF8BC0510EB4610C07821
:10375000032854D3F6B2DFF8AC0510EB4610002175
:10376000C170F6B2DFF89C0510EB461001218170A4
:1037700045E0F6B2DFF88C0510EB46100021C17071
:103780003DE0F6B2DFF87C0510EB461080780128AA
:1037900035D1F6B2DFF86C0510EB461090F9160043
:1037A0007FF05901884223DAF6B2DFF8580510EBB2
:1037B0004610C078401CF6B2DFF8481511EB4611F0
:1037C000C870F6B2DFF83C0510EB4610C07803284D
:1037D00015D3F6B2DFF82C0510EB46100021C170AE
:1037E000F6B2DFF8200510EB46100021817006E0EC
:1037F000F6B2DFF8100510EB46100021C17005E0AD
:103800002A00210049B2380000F047F9F1BD2DE946
:10381000F04180460C0015001E0000274046FEF7D0
:10382000B2F800285AD1002700E07F1CFFB20A2F0F
:1038300054D23900C9B2404600F0D1F90028F4D082
:10384000FFB2DFF8C00410EB4710007EFF281DD147
:10385000FFB2DFF8B00410EB4710007E022190FBAE
:10386000F1F0FFB2DFF89C1411EB47110876FFB2BC
:10387000DFF8900410EB4710407E022190FBF1F03E
:10388000FFB2DFF8801411EB47114876FFB2DFF882
:10389000740410EB4710007E2018FFB2DFF86414A8
:1038A00011EB47110876EDB2012D16D1FFB2DFF80A
:1038B000540410EB4710407E401CFFB2DFF8441464
:1038C00011EB4711487606223100FFB2DFF83404CD
:1038D00010EB47101A30FDF719FFFFE7BDE8F08144
:1038E00070B500240025002622E0F6B27001DFF852
:1038F0001414405C01281AD1F6B2DFF8080410EB6A
:1039000046101A30FFF78FF840F2F51180B2884266
:103910000DD3F6B2DFF8EC0310EB46104078022826
:1039200005D1F6B2DFF8DC0310EB4610041D761C5F
:10393000F6B20A2ED9D3002C01D0200004E0002DCD
:1039400001D0280000E0002070BD10B58AB00178D9
:10395000032905D100AA05A9FDF79BFF002409E072
:103960000023027892B22A210C20FDF7CFFB002021
:1039700015E0641CE4B20A2C10D22100C9B200A8E0
:1039800000F02DF90028F4D0E4B2DFF8780310EB52
:10399000441080780128ECD1012000E000200AB01A
:1039A00010BD38B50400FEF71AFD002500E06D1CBF
:1039B000EDB20A2D12D22900C9B2200000F00FF991
:1039C0000028F4D0EDB2DFF83C0310EB451040784E
:1039D0000228ECD1FEF707FD012002E0FEF703FD0F
:1039E000002032BDDFF81C0390F84001704710B58D
:1039F00000220270002300E05B1CDBB20A2B24D201
:103A0000DBB25A01DFF8FC42125D012AF4D1DBB2CD
:103A1000DFF8F02212EB43125278022AECD1C9B23D
:103A2000022909D11122DBB2DFF8D81211EB4311C0
:103A3000091DFDF76BFE07E00123C9B20A0092B22F
:103A40002A210C20FDF762FBFFE710BD00B589B00D
:103A5000DFF8B00290F84101401C0A2190FBF1F21E
:103A600001FB1200A74981F84101A64890F84101E5
:103A70008DF800000DF10200A24991F84111A14A10
:103A800012EB4111202200F0FBFB222200A90820AA
:103A9000FDF7D8FA012009B000BDF8B505000E0009
:103AA00017002878022807D002232A7892B22A2108
:103AB0000C20FDF72BFB7CE0280000F07BF80028B1
:103AC00077D1002400E0641CE4B20A2C67D2E4B28F
:103AD00060018C49405C0028F5D1E4B2600189495D
:103AE00001224254E4B2874810EB44100021417097
:103AF000E4B2844810EB441001218170E4B28148A3
:103B000010EB44100021C17011222900E4B27D485D
:103B100010EB4410001DFDF7F9FDE4B2794810EBFD
:103B20004410FF214175E4B2764810EB44108675CD
:103B3000E4B2744810EB44100121C175E4B271483D
:103B400010EB441000210176E4B26E4810EB4410F3
:103B50000021417606223900E4B26A4810EB441095
:103B60001A30FDF7D3FD0021002008E0C0B2654AFD
:103B700012EB40125278022A00D10121401CC0B23F
:103B80000A28F3D3C9B2002909D1FEF764FD002841
:103B900005D1E4B25B4810EB441002214170E4B25D
:103BA0000A2C06D100230A220D210C20FDF7AEFAC3
:103BB000FFE7F1BD38B5040000250020050000E056
:103BC0006D1CEDB20A2D08D22900C9B2200000F008
:103BD00006F80028F4D0012000E0002032BD80B5B6
:103BE0000278022A13D1C9B24A01464BD25C002A9C
:103BF0000AD0C9B2434A12EB4111091DFDF727FF54
:103C0000002801D0012000E00020C0B207E003231B
:103C1000027892B22A210C20FDF778FA002002BD2A
:103C2000F8B500240025FEF716FD002864D13548BC
:103C3000FF2180F84011002635E0F6B2314810EB44
:103C40004610007E02F0DEFE0700F6B22D4810EBB3
:103C50004610407E02F0D6FE0100380002F0E0FE81
:103C600002F05CFF0022284B02F080FF03F050F8C6
:103C7000F6B2244911EB4611497DC0B24718FEF750
:103C8000EAFC00280ED11F4890F84001BFB280B274
:103C9000874207D2BFB2FF2F04D21A4880F8407182
:103CA00001253400761CF6B20A2E1BD2F6B2154856
:103CB00010EB461000214170F6B270011149405CD2
:103CC0000128EFD1F6B20F4810EB4610807801289A
:103CD000E8D1F6B20B4810EB4610407E0028ACD17C
:103CE0000F20C5E7EDB2002D0AD0E4B2054810EB75
:103CF00044100221417003E00248002180F8401185
:103D0000F1BD00002C0A0020000024401FB5102146
:103D100000A8FDF7DDFAC0B2102808D00023C0B219
:103D2000020092B22D211220FDF7F0F961E06F48F8
:103D300003214170102200A96D48FDF7E7FC6B4894
:103D40000078012806D10023002223211220FDF74C
:103D5000DDF94EE0654801210170FCF7B9FF040070
:103D6000002C06D10023002225211220FDF7CEF9D8
:103D70003FE012202070122060703A206072802094
:103D8000A08111225B4914F11500FDF7BFFC04214D
:103D90002000FDF7FDFE61685748FDF7F2FF08219E
:103DA0002000FDF7F5FE6068A189017060680021C0
:103DB00041706068011D41F23420FDF7D7FF4B4888
:103DC000408A4A49421C4A826168891D80B2FDF7D7
:103DD000CDFF6068811C2000FDF723FF200000F06C
:103DE00066FB002805D04148002101702000FCF747
:103DF00091FF1FBD10B504001220607020781228BA
:103E000005D00023002224211220FDF77FF9200095
:103E1000FCF780FF35480021017010BD38B5040063
:103E200012206070A089802802D0812848D051E0FB
:103E30000023002202211220FDF768F9FCF748FF59
:103E40000500002D09D10123012225211220FDF7B3
:103E50005DF92000FCF75EFF45E01220287012207B
:103E60006870217A2800FDF793FE227A61686868FD
:103E7000FDF74CFC112214F1150115F11500FDF7A9
:103E800045FC2000FCF746FF00243A2068728120A0
:103E9000A8816868A98901706868811C2800FDF7FD
:103EA000C0FE124801210170280000F000FB00282C
:103EB00005D00E48002101702800FCF72BFF12E00E
:103EC0000023002203211220FDF720F92000FCF737
:103ED00021FF08E00023A2890A211220FDF716F92C
:103EE0002000FCF717FF31BD00000000440E002049
:103EF000460E0020450E0020DEBC9A781FB510212A
:103F000000A8FDF7E5F9C0B2102808D00023C0B220
:103F1000020092B22D211220FDF7F8F87BE049480B
:103F200003214170102200A94748FDF7EFFB4548E7
:103F30000078012806D10023002223211320FDF759
:103F4000E5F868E03F4801210170FCF7C1FE04007C
:103F5000002C06D10023002225211320FDF7D6F8DE
:103F600059E013202070132060703A206072852081
:103F7000A08103206075FF20A0750220E07500205D
:103F80002076002060760020A0760020E0760020D9
:103F90002077002060770020A0770020E0770020C5
:103FA00084F82000002084F82100002084F82200FA
:103FB000002084F82300002084F82400022084F8E4
:103FC000250008212000FDF7E3FD6068A18901704C
:103FD0006068002141706068011D41F23420FDF7E6
:103FE000C5FE1848408A1749421C4A826168891DEB
:103FF00080B2FDF7BBFE6068811C2000FDF711FE5A
:10400000200000F054FA002805D00E48002101706D
:104010002000FCF77FFE1FBD10B504001320607068
:104020002078132805D00023002224211320FDF737
:104030006DF82000FCF76EFE02480021017010BDF3
:1040400000000000580E00205A0E002010B586B067
:1040500004001320607010212000FDF7AFFD6068A0
:104060000078032818D160684078042814D160686B
:104070008078402810D1207A20280DD305208DF893
:1040800000000822606810F110010DF10100FDF739
:104090003DFB00A8FEF72BFB2000FCF73BFE06B023
:1040A00010BD000000B585B0102100A8FDF710F983
:1040B000C0B2102808D00023C0B2020092B22D2155
:1040C0001220FDF723F801E000F025F805B000BD4F
:1040D00010B50400142060702078142805D0002347
:1040E000002224211420FDF711F82000FCF712FE15
:1040F00033480021017510BD10B504001420607014
:1041000008212000FDF75AFD2000FFF76CFA20007F
:10411000FCF700FE10BD10B52948007D00284ED1E7
:10412000274801210175FCF7D3FD0400002C06D1BE
:104130000023002225211420FCF7E8FF3FE0142093
:104140002070142060703A2060729B20A0811122A0
:104150001C4914F11500FDF7D9FA01212000FDF7E3
:1041600017FDFFF73FFC6168087008212000FDF78C
:104170000FFD6068A189017060680121417060686D
:10418000011D41F23420FDF7F1FD0D48C08A0C49B4
:10419000421CCA826168891D80B2FDF7E7FD606834
:1041A000811C2000FDF73DFD200000F080F9002873
:1041B00005D00348002101752000FCF7ABFD10BDC0
:1041C000280E00202B0E002030B5A3B0FDF774F8A8
:1041D00005002900C9B200A8FDF77AF8FEF750FAE9
:1041E000012830D1EDB2012D2DD3FCF771FD040073
:1041F000002C06D10023002225210E20FCF786FF8B
:1042000021E00E2020700E206070022084F827002C
:10421000082200A914F12800FDF778FAB5F1080189
:10422000C9B22000FDF7B4FCEDB2B5F1080202A955
:104230006068FDF76BFA200000F0E9F9012802D16F
:104240002000FCF767FD23B030BD10B504000E2040
:10425000607020780E2805D00023002224210E2033
:10426000FCF754FF2000FCF755FD10BD10B504000D
:10427000217A6068FCF7C4FF2000FCF74BFD10BDFD
:104280004AB38B0707D0521E11F8013B00F8013BDF
:1042900021D08B07F7D183071ED1103A07D330B452
:1042A000B1E83810103AA0E83810F9D230BC530702
:1042B00024BFB1E80810A0E8081044BF51F8043B3F
:1042C00040F8043BD20724BF31F8022B20F8022B20
:1042D00044BF0B7803707047083A07D3B1E8081061
:1042E000083A40F8043B40F804CBF7D25307E4E720
:1042F00010B50400162060701120607260682061A3
:10430000207A207508212000FDF742FC6168A08911
:10431000FDF72CFD6068811CE089FDF727FD6068D2
:10432000011D207A80B2FDF721FD6068811D20000B
:10433000FDF777FC2000FDF7F0F910BD10B5040083
:1043400016206070A08907280ED009280ED040F6EC
:104350008C02904209D041F23362904207D1C9B237
:10436000200002F057FE0BE00AE009E008E000231D
:10437000A28909211620FCF7C9FE2000FCF7CAFC1F
:1043800010BD38B5040016206070A07A01285AD1FB
:104390006068057801212000FDF710FCEDB215F0F2
:1043A0000300C0B2002805D002282DD019D303285D
:1043B00039D05EE0606800784FF4807162685278AE
:1043C00001FB0020A081606880784FF480716268F2
:1043D000D27801FB0020E08104212000FDF7EEFBF4
:1043E00047E0606800784FF480716268527801FBA2
:1043F0000020A08160688078B0F58050E0810321C2
:104400002000FDF7DBFB34E060680078B0F58050F9
:10441000A08160684078B0F58050E08102212000E2
:10442000FDF7CCFB25E060680078C0B20009C0B29F
:10443000A0816068007810F00F00E0810121200069
:10444000FDF7BCFB15E0606800784FF4807162688E
:10445000527801FB0020A081606880784FF4807161
:104460006268D27801FB0020E08108212000FDF77E
:10447000A5FBE08907280DD009280DD040F68C0156
:10448000884208D041F23361884206D1200002F010
:104490006BFC0BE00AE009E008E00123E289092156
:1044A0001620FCF733FE2000FCF734FC31BD80B54C
:1044B000112141703A214172FDF72FF902BD10B56B
:1044C000040011206070A0898038012805D9401FA0
:1044D000012807D916380AD00EE0C9B22000FFF72C
:1044E00089FC12E0C9B22000FFF796FD0DE0C9B2C9
:1044F0002000FFF7EDFD08E00023A2890A2111202A
:10450000FCF704FE2000FCF705FC10BD10B504000C
:104510001120607060680078A081A089803801282F
:1045200005D9401F012806D9163808D00BE0200015
:10453000FFF774FC10E02000FFF788FD0CE020007E
:10454000FFF7DAFD08E00123A2890A211120FCF718
:10455000DDFD2000FCF7DEFB10BD10B594B00400BB
:104560000F206070FEF78CF801280DD114F11500B2
:10457000FDF736FA002807D1002300222B210F2057
:10458000FCF7C4FD012040E00AAA0FA914F11500B0
:10459000FDF77FF90520FEF786F801000FA8FDF76B
:1045A00056FA00280DD014F11500FFF7CEF90028B7
:1045B00003D003210322002007E0012101220AA8E1
:1045C00003E00021002204F215000990D2B2089203
:1045D0000020079000200690C9B2059100200490A9
:1045E000002003904020029000200190607A00900B
:1045F000002300220321200000F052F8012801D1FD
:10460000012002E02000FEF7AEFC14B010BD10B592
:1046100004000F206070FEF733F8002807D1002354
:1046200001222B210F20FCF771FD012002E0200068
:10463000FEF799FC10BD80B50F22427002780E2A59
:1046400003D1C9B2FFF701FE02E0C9B2FDF76BF872
:1046500001BD10B596B004000F206070210009A8BC
:1046600000F03CF9FEF70CF8002804D010A8FDF784
:104670008AF900280FD09DF851102000FDF79EFA0E
:1046800009A983B068463022FFF707FE0EBC200060
:10469000FDF776F802E02000FFF7E8FD16B010BD48
:1046A0002DE9F84F8046894692469B460B9C0F9D0C
:1046B000119E129F1399FFB2002F65D0022F41D097
:1046C00051D3032F71D1EDB2002D00F08A80022D5D
:1046D00075D07DD3032D40F09580E4B220000028F2
:1046E00004D0401E022840F2978096E00121404607
:1046F000FDF74EFAD8F804009DF8301001705FFA0B
:104700008BFBBBF1000F40F0928001214046FDF78A
:104710003FFAD8F804009DF8281001705FFA89F973
:104720004846012800F08E80032800F0A6805FFA3A
:1047300089F94B469BB204220B210F20FCF7E6FCC3
:104740000120C9E00878012808D000230A7892B235
:104750002A210F20FCF7DAFC0120BDE000224046B0
:10476000FDF7DFF9AFE70878022808D001230A78BF
:1047700092B22A210F20FCF7C9FC0120ACE00022F4
:104780004046FDF7CEF99EE70878032808D00223BB
:104790000A7892B22A210F20FCF7B8FC01209BE096
:1047A00000224046FDF7BDF98DE7FFB23B009BB20A
:1047B00000220B210F20FCF7A9FC01208CE0012036
:1047C000FDF771FF002201004046FDF7AAF984E7DA
:1047D0000220FDF768FF002201004046FDF7A1F925
:1047E0007BE70220FDF75FFF002201004046FDF756
:1047F00098F90520FDF757FF002201004046FDF71C
:1048000090F96AE7EDB22B009BB201220B210F2039
:10481000FCF77CFC01205FE071E7E4B223009BB26F
:1048200002220B210F20FCF771FC012054E05FFAFB
:104830008BFB5B469BB203220B210F20FCF766FC2F
:10484000012049E001214046FDF7A2F9D8F8040013
:1048500080F800A001214046FDF79AF9D8F804003D
:104860005FEA1A21017001214046FDF791F9D8F85D
:1048700004005FEA1A410170FFE75FF0000A9DF84B
:1048800034005AEAC01A9DF838005AEA801A5AEAE7
:10489000051A9DF840005AEAC00A5AEA860A57EA01
:1048A0000A0A01214046FDF773F9D8F8040080F8A0
:1048B00000A05FF0000A5AF0600A5AEAC90A5AEAF0
:1048C0008B0A54EA0A0A01214046FDF761F9D8F83B
:1048D000040080F800A00020BDE8F28F2DE9F04F21
:1048E00097B004000D0000208DF82D009DF82D00DC
:1048F0006968405CC0B24309C0F3C108C0F38009D5
:1049000010F0030A9DF82D00401C8DF82D009DF835
:104910002D006968405CC0F3011BC0F3C00610F0B5
:1049200003079DF82D00401C8DF82D00DBB2032BF2
:1049300006D0DBB29BB205220B210F20FCF7E6FB71
:104940005FFA88F84046012802D0032825D027E0E6
:104950009DF82D006968405C01909DF82D00401C79
:104960008DF82D0001989DF82D106A68895C50EA39
:10497000012001909DF82D00401C8DF82D0001981C
:104980009DF82D106A68895C50EA014001909DF8FD
:104990002D00401C8DF82D000BE00020019008E058
:1049A0005FFA88F843469BB206220B210F20FCF7E2
:1049B000ADFB5FFA89F9B9F1000F03D0B9F1010F2E
:1049C0000FD012E000208DF808009DF82D006968D6
:1049D000405C8DF809009DF82D00401C8DF82D00DD
:1049E0000CE001208DF8080008E05FFA89F94B46D9
:1049F0009BB207220B210F20FCF788FB5FFA8AFA93
:104A0000BAF1000F07D0BAF1020F14D00FD3BAF1E8
:104A1000030F14D017E09DF82D006968405C8DF8F5
:104A20000A009DF82D00401C8DF82D0014E0012097
:104A30008DF80A0010E040208DF80A000CE0FF20FD
:104A40008DF80A0008E05FFA8AFA53469BB2082202
:104A50000B210F20FCF75AFB5FFA8BFBBBF1000F19
:104A600046D0BBF1020F0DD029D3BBF1030F51D1BA
:104A70000520FDF718FE0DF10B0215F12701FCF7DB
:104A800029FF50E0002311AA01219DF82D00D5F83F
:104A900004C010EB0C00FDF711F89DF82D00801CF0
:104AA0008DF82D000CA911A8FCF74BFF0520FDF790
:104AB000FAFD0DF10B020CA9FCF70CFF33E000230B
:104AC0000CAA02219DF82D00D5F804C010EB0C00B3
:104AD000FCF7F4FF9DF82D0008308DF82D0005201F
:104AE000FDF7E1FD0DF10B020CA9FCF7F3FE1AE056
:104AF00000230DF10B0203219DF82D00D5F804C011
:104B000010EB0C00FCF7DAFF9DF82D0010308DF84B
:104B10002D0008E05FFA8BFB5B469BB209220B215C
:104B20000F20FCF7F3FAFFB2002F44D0022F0ED073
:104B300029D3032F50D10220FDF7B5FD8046052073
:104B4000FDF7B1FD07AA4146FCF7C4FE4CE0002387
:104B500011AA01219DF82D00D5F804C010EB0C001E
:104B6000FCF7ACFF9DF82D00801C8DF82D000CA9E2
:104B700011A8FCF7E6FE0520FDF795FD07AA0CA994
:104B8000FCF7A8FE30E000230CAA02219DF82D00BE
:104B9000D5F804C010EB0C00FCF790FF9DF82D0039
:104BA00008308DF82D000520FDF77DFD07AA0CA922
:104BB000FCF790FE18E0002307AA03219DF82D00C2
:104BC000D5F804C010EB0C00FCF778FF9DF82D0021
:104BD00010308DF82D0007E0FFB23B009BB20A2297
:104BE0000B210F20FCF792FA9DF80800012817D13D
:104BF0009DF82D006968405CC0B210F0F800F02804
:104C000003D111208DF809000AE000208DF8090079
:104C10009DF809309BB20B220B210F20FCF776FA8E
:104C2000F6B2012E07D1FFB2032F04D19DF82D005B
:104C3000401C8DF82D00200000A93022FFF72DFB2D
:104C400017B0BDE8F08F00000300002013F0030F41
:104C500009D0521E22BF13F8010B11F801CBB0EBA3
:104C60000C00F3D07047121F22BF53F8040B51F809
:104C700004CB6045F7D0121D0AD200BA9CFA8CFC16
:104C8000B0EB0C0038BF6FF0000088BF0120704708
:104C9000521E22BF13F8010B11F801CBB0EB0C0030
:104CA000F6D0521C08BF10467047000000B589B00E
:104CB000082200214A4800F095F80121012000F067
:104CC00033FA4FF6FF70ADF8080041F61F40ADF81B
:104CD00004000020ADF80A000020ADF8060001A98C
:104CE0005FF0804002F0C0F93020ADF810000020E5
:104CF000ADF816000120ADF812000020ADF8180044
:104D000004A95FF0804002F0CAF901215FF0804001
:104D100002F006FA1C208DF8000002208DF8010038
:104D200001208DF8020001208DF8030000A8FDF796
:104D30000AFB09B000BD2A490860704780B5002110
:104D40005FF0804002F008FA02215FF0804002F03C
:104D500011FA012202215FF0804002F0EFF90021F8
:104D60005FF0804002F0F6F91D480021818001BD0E
:104D700070B504001A488688194880882518184894
:104D800085805FF0804002F0E9F9B6B2801BA4B2E2
:104D900084420BDA02215FF0804002F0EBF901223D
:104DA00002215FF0804002F0C9F910E0290089B2C9
:104DB0005FF0804002F0D0F902215FF0804002F005
:104DC000D9F9012202215FF0804002F0B7F970BDED
:104DD00080B5034800688047012002BD0000000044
:104DE000A40E002010B5040010000A0001002000ED
:104DF00002F0C4F9200010BD0349C0B2086070473A
:104E00000249C0B20860704720000E42A0000E4266
:104E10007047704770477047704770477047000091
:104E200030BF704720BF704740BF7047BFF36F8FE0
:104E30007047BFF34F8F7047BFF35F8F704701DF3D
:104E40007047EFF31480704780F31488BFF36F8FBF
:104E50007047EFF30980704780F309887047EFF3DC
:104E60000880704780F30888704762B6704772B652
:104E70007047EFF31080704761B6704771B67047A6
:104E8000EFF31380704780F311887047EFF31280BF
:104E9000704740BA704700BA70470000DFF8EC0274
:104EA000006850F00100DFF8E4120860DFF8E0026B
:104EB0000068DFF8E0120840DFF8D4120860DFF87D
:104EC000CC020068DFF8D0120840DFF8C01208609A
:104ED000DFF8B802006830F48020DFF8B012086014
:104EE000DFF8AC02006830F4FE00DFF8A4120860BE
:104EF000DFF8A802002101607047DFF8901209680E
:104F000031F48031DFF884221160DFF88012096803
:104F100031F48021DFF874221160B0F5803F03D0B6
:104F2000B0F5802F09D011E0DFF86002006850F47E
:104F30008030DFF85812086008E0DFF8500200689F
:104F400050F4A020DFF844120860FFE7704780B5F6
:104F50000020009000200021312000F0F5F8010031
:104F60000098401C0090C9B2002903D10098B0F508
:104F7000A06FF1D1312000F0E7F8002801D0012026
:104F800000E00020C0B202BD0022814B1B681A0065
:104F900032F47C12084302437D4802607047804926
:104FA000C0B2086070470021794A12681100890870
:104FB000890001437648016070477548006810F029
:104FC0000C0070470021724A1268110031F0F001A4
:104FD00001436F480160704700216D4A126811005B
:104FE00031F4E06101436A48016070470021684A7A
:104FF0001268110031F4605151EAC0016448016047
:105000007047684900220A70664900220A70C0B2DF
:10501000012802D0042804D007E062480121017071
:1050200003E0604805210170FFE770475D490968AA
:1050300008435C49086070475B49C0B2086070472C
:1050400030B40022002100230024514D2D6815F0BA
:105050000C052A00002A04D0042A05D0082A06D00C
:1050600021E05249016020E0504901601DE04849BB
:10507000096811F47011890C891C454A126812F4F0
:105080008033002B03D14A4A514301600AE0404A71
:105090001268920303D5464A5143016002E0434A35
:1050A0005143016001E0414901603949096811F04B
:1050B000F00212090FF20811545C0168E1404160EE
:1050C0003349096811F4E062120A0FF2F401545CEA
:1050D0004168E14081602E49096811F46052D20AAA
:1050E0000FF2DC01545C4168E140C1602849096865
:1050F00011F44042920B0FF2D801545CC168B1FB2D
:10510000F4F1016130BC7047C9B2002905D02949CA
:10511000096808432749086005E02649096831EA1B
:105120000000244908607047C9B2002905D022490F
:10513000096808432049086005E01F49096831EA09
:1051400000001D490860704710B4002200230021B0
:10515000C0B24409E4B22200012A02D10B490B6813
:1051600006E0022A02D10F490B6801E013490B68DF
:10517000C0B210F01F0201209040034201D0012173
:1051800000E000210800C0B210BC704700100240CF
:10519000041002400000FFF8FFFFF6FE0810024076
:1051A00060004242201002403C04424200127A0059
:1051B00000093D00181002401C100240241002405B
:1051C00000000000010203040102030406070809AD
:1051D000020406082DE9F04385B004000D0000200C
:1051E000002600275FF000085FF00009A146218A31
:1051F00008004CF6FF710840E98808432082A08926
:105200004EF6F3110840A9882A8911436A8911438F
:105210000843A081A08A4FF6FF410840A9890843AE
:10522000A08200A8FFF70CFF1048814501D1039E22
:1052300000E0029E192000FB06F029688900B0FBFF
:10524000F1F76420B7FBF0F000010109642202FBD2
:1052500011785FEA081132316422B1FBF2F111F0EA
:105260000F010843208105B0BDE8F08300380140FC
:10527000C9B2002904D0818951F40051818104E030
:1052800081894DF6FF7211408181704770B400240E
:1052900000250026002303000800C0B24009C0B268
:1052A000040089B211F01F0005000120A84006008B
:1052B000012C01D10C3304E0022C01D1103300E0A9
:1052C0001433D2B2002A03D018683043186002E0C9
:1052D0001868B043186070BC7047C905C90D81805B
:1052E00070478088C005C00D7047002200880842C2
:1052F00001D0012200E000221000C0B2704789B244
:10530000C943018070470000F0B400220026002449
:1053100000250023002791F803C01CF00F0C624603
:1053200091F803C05FEACC6C01D58B781A430B78F7
:105330001B0621D00368002406E0CD78482D02D159
:105340000125A5400561641C082C14D20125A54047
:105350000E882E40AE42F6D1A5000F2616FA05F7AC
:10536000BB4312FA05F52B43CD78282DE5D1012555
:10537000A5404561E7E703600B884FF48074A342C2
:1053800026D34368002420E0012514F10806B54027
:105390000E882E40AE4217D1A5000F2616FA05F74B
:1053A000BB4312FA05F52B43CD78282D04D10125F6
:1053B00014F10806B5404561CD78482D04D101258A
:1053C00014F10806B5400561641C082CDCD3436069
:1053D000F0BC704789B20161704789B24161704782
:1053E00010B400220F2311F00304E4B2A400A34080
:1053F0001A00C9B28B100E4C54F8233033EA020263
:10540000C9B28B100A4C44F82320C9B28A10084B49
:1054100053F82220C0B211F00303DBB29B00984086
:105420001043C9B28910024A42F8210010BC7047EB
:105430000800014005480021017004487F21418097
:1054400002487FF07E018180704700BF9C0E0020E3
:10545000002000E0401CDFF8BC138842FAD37047FC
:1054600010B500240C220021DFF8AC03FFF7BAFCD2
:10547000DFF8A40300210172200080B2FDF756F886
:10548000641C0321022000F0EBF8200080B2FDF73D
:105490004DF8641C0C210E2000F0E2F8200080B2D0
:1054A000FDF744F8641C0F2000F0FBF8200080B2E8
:1054B000FDF73CF8641C05210D2000F0D1F8200018
:1054C00080B2FDF733F8641C2421042000F0C8F8F2
:1054D000200080B2FDF72AF8641C012000F0E1F8FA
:1054E00010F01F000828F8D1200080B2FDF71EF848
:1054F000641CC9480121017210BD80B500F097F904
:1055000001BD80B500F096F901BDC3490860704740
:10551000C1494860704780B580B200F08EF901BD86
:1055200080B500F0CDF980B202BD80B580B200F048
:10553000CBF901BD80B500F0D1F980B202BD80B5D4
:10554000B54902220A7210F12001C9B2082000F008
:1055500087F8B1480321017201BD704780B5AE489C
:105560000D210172012000F09CF80321022000F0BF
:1055700077F8012000F095F810F01F000828F8D106
:10558000FDF712FAA4480121017201BD80B5A24ABB
:1055900004231372C9B200F09EF89F4805210172DE
:1055A00001BD80B59C48062101720921022000F04E
:1055B00057F8012000F075F810F01F000928F8D105
:1055C00095480721017201BD80B5934808210172F9
:1055D00002219248FFF7FEFE02219048FFF7FDFEF0
:1055E0008D480068002805D000F09DF980B28A49F6
:1055F0000968884701BD80B58748092101720621E5
:10560000022000F02DF8FDF7C9F9012000F049F85B
:1056100010F01F000628F8D17F480A21017201BD51
:1056200070472DE9F84304000D0016001F00DDF857
:105630002080DDF82490062000F033F8C0B2C009C5
:1056400089F80000072000F02CF85B3838704346DA
:105650003200D2B22900200000F061F8BDE8F183E9
:1056600000B585B050F0C0008DF80E008DF80F1019
:1056700001200290012001900220009003AB012242
:1056800002210DF10E0001F008FE9DF80C0080B221
:10569000FCF74CFF9DF80D0080B2FCF747FF05B00A
:1056A00000BD00B585B050F080008DF80C000020E2
:1056B0008DF80D0001200290012001900220009041
:1056C0000DF10E030122022103A801F0E6FD9DF871
:1056D0000F0005B000BD30B5A5B004000D0060207E
:1056E0008DF80C008DF80D500020029001200190E3
:1056F0008120009004AB0122022103A801F0CDFD1E
:1057000001200290002001908120009004AB012232
:105710002900C9B2200001F0C0FD25B030BD70B530
:10572000A4B004000D001E0020208DF81000002001
:105730000290012001900320009003AB012202217E
:1057400004A801F0AAFD9DF80D0028702878C01E5D
:10575000C0B27D281BD200200290002001907D2045
:10576000009023000122297804A801F096FD012071
:105770000290002001900320009003AB012203213E
:1057800004A801F08AFD9DF80E0030700BE00120A6
:105790000290002001900320009003AB0122012120
:1057A00004A801F07AFD24B070BD10B500F0BBF87C
:1057B00004000F20FFF775FF410713D516480B2192
:1057C000017215480068002806D0200080B21249F6
:1057D0000968884701201CE02220FCF7A7FEFFF79C
:1057E00037FEFEE7000713D50B480C2101720A486B
:1057F0004068002806D0200080B2074949688847E1
:10580000012006E04420FCF791FEFFF721FEFEE7B1
:10581000002010BDF8FF0F00880E0020001001408E
:1058200080B5082200215548FFF7DCFA01BD534935
:105830000860704751494860704710B582B0040055
:1058400001215FF0C050FFF76FFC0120FFF7D4FA91
:105850000120FFF7D6FB4120FFF776FC0028FAD0A5
:105860004FF48070FFF7E2FB0120FFF7E5FB01F04A
:10587000E8FD01F0E1FD042001F0FBFD0121042021
:1058800001F08AFD01F0D8FD01F0D6FD002001F005
:10589000B9FD01F0D1FD5FF0FF30001B01F0A6FD66
:1058A00003208DF8000000208DF8010000208DF805
:1058B000020001208DF8030000A8FCF744FD13BD91
:1058C00080B501F088FD02BD10B5040001F0B4FD03
:1058D0005FF0FF30001B01F089FD10BD40F2EB10BE
:1058E000704738B504000D0001F0A6FD5FF0FF30F1
:1058F000001B281801F094FD01F09EFD022001F02C
:10590000B8FD0121022001F047FD31BD80B501F055
:1059100093FD002001F084FD01F08EFD00210220A6
:1059200001F03AFD01BD80B501F055FD02BD80B525
:10593000022001F092FD00280BD0022001F099FD19
:105940000E484068002816D00C4840688047012067
:1059500012E0042001F081FD00280BD0042001F0AA
:1059600088FD06480068002805D004480068804784
:10597000012001E0FEE7002002BD0000B40E00207F
:1059800080B51448407B022823D01248407B012870
:105990000BD00120FDF73AFAFFF7E0FD1A20FFF7E0
:1059A000CEFDFFF728FEFFF73BFEFBF777FD09482A
:1059B0000078411C074A1170C0B2022190FBF1F23D
:1059C00002FB1102002A02D1FBF7F6FC01E0FBF713
:1059D000AEFC01BD040E002010B586B000F0ACFD99
:1059E0007848C088002801D1FFF712FAFCF733FE8F
:1059F00000281AD173484089401E72494881714875
:105A00004089002811D10020FDF7B7F900236D4827
:105A1000C28813210820FBF779FB6B488079401C72
:105A200069498871FDF712FA3AE06648407B002820
:105A30000BD06448C3886348427B92B21621082089
:105A4000FBF764FBFDF702FA2AE05E48C0885D4977
:105A50000989884226D1FDF77BFCFDF786FC594970
:105A60000881FDF79AFC0400E4B2012C21D00AD38E
:105A7000032C00F090804FD3052C00F09A804BD37C
:105A8000062C00F09D80FBF709FD4E48C388E4B268
:105A9000220092B211210820FBF738FBFDF7D6F95E
:105AA00006B010BDFBF7FAFCFDF7D0F9FBF784FC5C
:105AB000F6E7FBF7F3FCFBF728FA42490861414897
:105AC000006900280BD10F20FDF7A0F93D48008C9C
:105AD00010F1370140F2EB10FFF703FF1BE0042049
